{
  "contractName": "BlindAuction",
  "abi": [
    {
      "inputs": [],
      "stateMutability": "nonpayable",
      "type": "constructor"
    },
    {
      "anonymous": false,
      "inputs": [
        {
          "indexed": false,
          "internalType": "address",
          "name": "winner",
          "type": "address"
        },
        {
          "indexed": false,
          "internalType": "uint256",
          "name": "highestBid",
          "type": "uint256"
        }
      ],
      "name": "AuctionEnded",
      "type": "event"
    },
    {
      "anonymous": false,
      "inputs": [],
      "name": "AuctionInit",
      "type": "event"
    },
    {
      "anonymous": false,
      "inputs": [],
      "name": "BiddingStarted",
      "type": "event"
    },
    {
      "anonymous": false,
      "inputs": [],
      "name": "RevealStarted",
      "type": "event"
    },
    {
      "inputs": [],
      "name": "beneficiary",
      "outputs": [
        {
          "internalType": "address payable",
          "name": "",
          "type": "address"
        }
      ],
      "stateMutability": "view",
      "type": "function",
      "constant": true
    },
    {
      "inputs": [
        {
          "internalType": "address",
          "name": "",
          "type": "address"
        }
      ],
      "name": "bids",
      "outputs": [
        {
          "internalType": "bytes32",
          "name": "blindedBid",
          "type": "bytes32"
        },
        {
          "internalType": "uint256",
          "name": "deposit",
          "type": "uint256"
        }
      ],
      "stateMutability": "view",
      "type": "function",
      "constant": true
    },
    {
      "inputs": [],
      "name": "currentPhase",
      "outputs": [
        {
          "internalType": "enum BlindAuction.Phase",
          "name": "",
          "type": "uint8"
        }
      ],
      "stateMutability": "view",
      "type": "function",
      "constant": true
    },
    {
      "inputs": [],
      "name": "highestBid",
      "outputs": [
        {
          "internalType": "uint256",
          "name": "",
          "type": "uint256"
        }
      ],
      "stateMutability": "view",
      "type": "function",
      "constant": true
    },
    {
      "inputs": [],
      "name": "highestBidder",
      "outputs": [
        {
          "internalType": "address",
          "name": "",
          "type": "address"
        }
      ],
      "stateMutability": "view",
      "type": "function",
      "constant": true
    },
    {
      "inputs": [],
      "name": "advancePhase",
      "outputs": [],
      "stateMutability": "nonpayable",
      "type": "function"
    },
    {
      "inputs": [
        {
          "internalType": "bytes32",
          "name": "blindBid",
          "type": "bytes32"
        }
      ],
      "name": "bid",
      "outputs": [],
      "stateMutability": "payable",
      "type": "function",
      "payable": true
    },
    {
      "inputs": [
        {
          "internalType": "uint256",
          "name": "value",
          "type": "uint256"
        },
        {
          "internalType": "bytes32",
          "name": "secret",
          "type": "bytes32"
        }
      ],
      "name": "reveal",
      "outputs": [],
      "stateMutability": "nonpayable",
      "type": "function"
    },
    {
      "inputs": [],
      "name": "withdraw",
      "outputs": [],
      "stateMutability": "nonpayable",
      "type": "function"
    },
    {
      "inputs": [],
      "name": "auctionEnd",
      "outputs": [],
      "stateMutability": "nonpayable",
      "type": "function"
    },
    {
      "inputs": [],
      "name": "closeAuction",
      "outputs": [],
      "stateMutability": "nonpayable",
      "type": "function"
    }
  ],
  "bytecode": "0x608060405260006002556000600560006101000a81548160ff0219169083600381111561002f5761002e610086565b5b021790555034801561004057600080fd5b50336000806101000a81548173ffffffffffffffffffffffffffffffffffffffff021916908373ffffffffffffffffffffffffffffffffffffffff1602179055506100b5565b7f4e487b7100000000000000000000000000000000000000000000000000000000600052602160045260246000fd5b611393806100c46000396000f3fe60806040526004361061009c5760003560e01c80634036778f116100645780634036778f1461013c57806362ea82db1461016557806391f90157146101a3578063957bb1e0146101ce578063be25a718146101ea578063d57bde79146102015761009c565b8063055ad42e146100a15780632a24f46c146100cc578063378252f2146100e357806338af3eed146100fa5780633ccfd60b14610125575b600080fd5b3480156100ad57600080fd5b506100b661022c565b6040516100c39190610da6565b60405180910390f35b3480156100d857600080fd5b506100e161023f565b005b3480156100ef57600080fd5b506100f8610389565b005b34801561010657600080fd5b5061010f610450565b60405161011c9190610e02565b60405180910390f35b34801561013157600080fd5b5061013a610474565b005b34801561014857600080fd5b50610163600480360381019061015e9190610e8e565b610551565b005b34801561017157600080fd5b5061018c60048036038101906101879190610f0c565b610791565b60405161019a929190610f57565b60405180910390f35b3480156101af57600080fd5b506101b86107b5565b6040516101c59190610f8f565b60405180910390f35b6101e860048036038101906101e39190610faa565b6107db565b005b3480156101f657600080fd5b506101ff61094f565b005b34801561020d57600080fd5b50610216610bf1565b6040516102239190610fd7565b60405180910390f35b600560009054906101000a900460ff1681565b600380600381111561025457610253610d2f565b5b600560009054906101000a900460ff16600381111561027657610275610d2f565b5b146102b6576040517f08c379a00000000000000000000000000000000000000000000000000000000081526004016102ad9061104f565b60405180910390fd5b60025447106103295760008054906101000a900473ffffffffffffffffffffffffffffffffffffffff1673ffffffffffffffffffffffffffffffffffffffff166108fc6002549081150290604051600060405180830381858888f19350505050158015610327573d6000803e3d6000fd5b505b7fdaec4582d5d9595688c8c98545fdd1c696d41c6aeaeb636737e84ed2f5c00eda600160009054906101000a900473ffffffffffffffffffffffffffffffffffffffff1660025460405161037e92919061106f565b60405180910390a150565b60008054906101000a900473ffffffffffffffffffffffffffffffffffffffff1673ffffffffffffffffffffffffffffffffffffffff163373ffffffffffffffffffffffffffffffffffffffff1614610417576040517f08c379a000000000000000000000000000000000000000000000000000000000815260040161040e906110e4565b60405180910390fd5b60008054906101000a900473ffffffffffffffffffffffffffffffffffffffff1673ffffffffffffffffffffffffffffffffffffffff16ff5b60008054906101000a900473ffffffffffffffffffffffffffffffffffffffff1681565b6000600460003373ffffffffffffffffffffffffffffffffffffffff1673ffffffffffffffffffffffffffffffffffffffff168152602001908152602001600020549050600081111561054e576000600460003373ffffffffffffffffffffffffffffffffffffffff1673ffffffffffffffffffffffffffffffffffffffff168152602001908152602001600020819055503373ffffffffffffffffffffffffffffffffffffffff166108fc829081150290604051600060405180830381858888f1935050505015801561054c573d6000803e3d6000fd5b505b50565b600280600381111561056657610565610d2f565b5b600560009054906101000a900460ff16600381111561058857610587610d2f565b5b146105c8576040517f08c379a00000000000000000000000000000000000000000000000000000000081526004016105bf9061104f565b60405180910390fd5b60008054906101000a900473ffffffffffffffffffffffffffffffffffffffff1673ffffffffffffffffffffffffffffffffffffffff163373ffffffffffffffffffffffffffffffffffffffff1603610656576040517f08c379a000000000000000000000000000000000000000000000000000000000815260040161064d90611150565b60405180910390fd5b600080600360003373ffffffffffffffffffffffffffffffffffffffff1673ffffffffffffffffffffffffffffffffffffffff168152602001908152602001600020905084846040516020016106ad9291906111b2565b60405160208183030381529060405280519060200120816000015403610743578060010154826106dd919061120d565b9150670de0b6b3a7640000856106f39190611263565b8160010154106107425761071a33670de0b6b3a7640000876107159190611263565b610bf7565b1561074157670de0b6b3a7640000856107339190611263565b8261073e91906112bd565b91505b5b5b3373ffffffffffffffffffffffffffffffffffffffff166108fc839081150290604051600060405180830381858888f19350505050158015610789573d6000803e3d6000fd5b505050505050565b60036020528060005260406000206000915090508060000154908060010154905082565b600160009054906101000a900473ffffffffffffffffffffffffffffffffffffffff1681565b60018060038111156107f0576107ef610d2f565b5b600560009054906101000a900460ff16600381111561081257610811610d2f565b5b14610852576040517f08c379a00000000000000000000000000000000000000000000000000000000081526004016108499061104f565b60405180910390fd5b60008054906101000a900473ffffffffffffffffffffffffffffffffffffffff1673ffffffffffffffffffffffffffffffffffffffff163373ffffffffffffffffffffffffffffffffffffffff16036108e0576040517f08c379a00000000000000000000000000000000000000000000000000000000081526004016108d79061133d565b60405180910390fd5b604051806040016040528083815260200134815250600360003373ffffffffffffffffffffffffffffffffffffffff1673ffffffffffffffffffffffffffffffffffffffff16815260200190815260200160002060008201518160000155602082015181600101559050505050565b60008054906101000a900473ffffffffffffffffffffffffffffffffffffffff1673ffffffffffffffffffffffffffffffffffffffff163373ffffffffffffffffffffffffffffffffffffffff16146109dd576040517f08c379a00000000000000000000000000000000000000000000000000000000081526004016109d4906110e4565b60405180910390fd5b6003808111156109f0576109ef610d2f565b5b600560009054906101000a900460ff166003811115610a1257610a11610d2f565b5b03610a47576000600560006101000a81548160ff02191690836003811115610a3d57610a3c610d2f565b5b0217905550610ab7565b60006001600560009054906101000a900460ff166003811115610a6d57610a6c610d2f565b5b610a77919061120d565b9050806003811115610a8c57610a8b610d2f565b5b600560006101000a81548160ff02191690836003811115610ab057610aaf610d2f565b5b0217905550505b60026003811115610acb57610aca610d2f565b5b600560009054906101000a900460ff166003811115610aed57610aec610d2f565b5b03610b1f577f3bcc93d35219aa0512d7c0d1ca10b0231f473e3d5f9396877d1b7215ee0ab3d560405160405180910390a15b60016003811115610b3357610b32610d2f565b5b600560009054906101000a900460ff166003811115610b5557610b54610d2f565b5b03610b87577f02c124e22ee7da1c9905bbb317cf67658c1cc3ea1c0953b1633f85d0b5c281d960405160405180910390a15b60006003811115610b9b57610b9a610d2f565b5b600560009054906101000a900460ff166003811115610bbd57610bbc610d2f565b5b03610bef577f8ad2842071cb64589c8e006941bc20b615aae08a93530e211ca7c9639bd26d9760405160405180910390a15b565b60025481565b60006002548211610c0b5760009050610d29565b600073ffffffffffffffffffffffffffffffffffffffff16600160009054906101000a900473ffffffffffffffffffffffffffffffffffffffff1673ffffffffffffffffffffffffffffffffffffffff1614610cdc5760025460046000600160009054906101000a900473ffffffffffffffffffffffffffffffffffffffff1673ffffffffffffffffffffffffffffffffffffffff1673ffffffffffffffffffffffffffffffffffffffff1681526020019081526020016000206000828254610cd4919061120d565b925050819055505b8160028190555082600160006101000a81548173ffffffffffffffffffffffffffffffffffffffff021916908373ffffffffffffffffffffffffffffffffffffffff160217905550600190505b92915050565b7f4e487b7100000000000000000000000000000000000000000000000000000000600052602160045260246000fd5b60048110610d6f57610d6e610d2f565b5b50565b6000819050610d8082610d5e565b919050565b6000610d9082610d72565b9050919050565b610da081610d85565b82525050565b6000602082019050610dbb6000830184610d97565b92915050565b600073ffffffffffffffffffffffffffffffffffffffff82169050919050565b6000610dec82610dc1565b9050919050565b610dfc81610de1565b82525050565b6000602082019050610e176000830184610df3565b92915050565b600080fd5b6000819050919050565b610e3581610e22565b8114610e4057600080fd5b50565b600081359050610e5281610e2c565b92915050565b6000819050919050565b610e6b81610e58565b8114610e7657600080fd5b50565b600081359050610e8881610e62565b92915050565b60008060408385031215610ea557610ea4610e1d565b5b6000610eb385828601610e43565b9250506020610ec485828601610e79565b9150509250929050565b6000610ed982610dc1565b9050919050565b610ee981610ece565b8114610ef457600080fd5b50565b600081359050610f0681610ee0565b92915050565b600060208284031215610f2257610f21610e1d565b5b6000610f3084828501610ef7565b91505092915050565b610f4281610e58565b82525050565b610f5181610e22565b82525050565b6000604082019050610f6c6000830185610f39565b610f796020830184610f48565b9392505050565b610f8981610ece565b82525050565b6000602082019050610fa46000830184610f80565b92915050565b600060208284031215610fc057610fbf610e1d565b5b6000610fce84828501610e79565b91505092915050565b6000602082019050610fec6000830184610f48565b92915050565b600082825260208201905092915050565b7f70686173654572726f7200000000000000000000000000000000000000000000600082015250565b6000611039600a83610ff2565b915061104482611003565b602082019050919050565b600060208201905081810360008301526110688161102c565b9050919050565b60006040820190506110846000830185610f80565b6110916020830184610f48565b9392505050565b7f6f6e6c7942656e65666963696172790000000000000000000000000000000000600082015250565b60006110ce600f83610ff2565b91506110d982611098565b602082019050919050565b600060208201905081810360008301526110fd816110c1565b9050919050565b7f62656e656669636961727952657665616c000000000000000000000000000000600082015250565b600061113a601183610ff2565b915061114582611104565b602082019050919050565b600060208201905081810360008301526111698161112d565b9050919050565b6000819050919050565b61118b61118682610e22565b611170565b82525050565b6000819050919050565b6111ac6111a782610e58565b611191565b82525050565b60006111be828561117a565b6020820191506111ce828461119b565b6020820191508190509392505050565b7f4e487b7100000000000000000000000000000000000000000000000000000000600052601160045260246000fd5b600061121882610e22565b915061122383610e22565b9250827fffffffffffffffffffffffffffffffffffffffffffffffffffffffffffffffff03821115611258576112576111de565b5b828201905092915050565b600061126e82610e22565b915061127983610e22565b9250817fffffffffffffffffffffffffffffffffffffffffffffffffffffffffffffffff04831182151516156112b2576112b16111de565b5b828202905092915050565b60006112c882610e22565b91506112d383610e22565b9250828210156112e6576112e56111de565b5b828203905092915050565b7f62656e6566696369617279426964000000000000000000000000000000000000600082015250565b6000611327600e83610ff2565b9150611332826112f1565b602082019050919050565b600060208201905081810360008301526113568161131a565b905091905056fea26469706673582212205c3bb7c11e480f742986435d05849b66e8ed69b9f46816faccd7754f4a471b7164736f6c634300080d0033",
  "immutableReferences": {},
  "source": "pragma solidity ^0.8.13;\r\n\r\n\r\ncontract BlindAuction {\r\n    struct Bid {\r\n        bytes32 blindedBid;\r\n        uint deposit;\r\n    }\r\n\r\n    // Phases will be set only by external agents and not by time \"now\"\r\n    // Enum-uint mapping:\r\n    // Init - 0; Bidding - 1; Reveal - 2; Done - 3\r\n    enum Phase {Init, Bidding, Reveal, Done}\r\n    // Owner\r\n    address payable public beneficiary;\r\n    // Keep track of the highest bid,bidder\r\n    address public highestBidder;\r\n    uint public highestBid = 0;\r\n    // Only one bid allowed per address\r\n    mapping(address => Bid) public bids;\r\n    mapping(address => uint) pendingReturns;\r\n\r\n    Phase public currentPhase = Phase.Init;\r\n    // Events\r\n    event AuctionEnded(address winner, uint highestBid);\r\n    event BiddingStarted();\r\n    event RevealStarted();\r\n    event AuctionInit();\r\n    // Modifiers\r\n    modifier validPhase(Phase phase) {\r\n        require(currentPhase == phase, \"phaseError\");\r\n        _;\r\n    }\r\n    modifier onlyBeneficiary() {\r\n        require(msg.sender == beneficiary, \"onlyBeneficiary\");\r\n        _;\r\n    }\r\n\r\n    constructor() {\r\n        beneficiary = payable(msg.sender);\r\n        // advancePhase();\r\n    }\r\n\r\n    function advancePhase() public onlyBeneficiary {\r\n        // If already in done phase, reset to init phase\r\n        if (currentPhase == Phase.Done) {\r\n            currentPhase = Phase.Init;\r\n        } else {\r\n            // else, increment the phase\r\n            // Conversion to uint needed as enums are internally uints\r\n            uint nextPhase = uint(currentPhase) + 1;\r\n            currentPhase = Phase(nextPhase);\r\n        }\r\n\r\n        // Emit appropriate events for the new phase\r\n        if (currentPhase == Phase.Reveal) emit RevealStarted();\r\n        if (currentPhase == Phase.Bidding) emit BiddingStarted();\r\n        if (currentPhase == Phase.Init) emit AuctionInit();\r\n    }\r\n\r\n    function bid(bytes32 blindBid) public payable validPhase(Phase.Bidding) {\r\n        require(msg.sender != beneficiary,'beneficiaryBid');    // Beneficiary should not be allowed to place bids\r\n        bids[msg.sender] = Bid({blindedBid: blindBid, deposit: msg.value});\r\n    }\r\n\r\n    function reveal(uint value, bytes32 secret) public validPhase(Phase.Reveal) {\r\n        require(msg.sender != beneficiary,'beneficiaryReveal');\r\n\t\tuint refund = 0;\r\n        Bid storage bidToCheck = bids[msg.sender];\r\n\r\n        if (bidToCheck.blindedBid == keccak256(abi.encodePacked(value, secret))) {\r\n            refund += bidToCheck.deposit;\r\n            if (bidToCheck.deposit >= value*1000000000000000000) {\r\n                if (placeBid(msg.sender, value*1000000000000000000))\r\n                    refund -= value * 1000000000000000000;\r\n            }\r\n        }\r\n        payable(msg.sender).transfer(refund);\r\n    }\r\n\r\n    // This is an \"internal\" function which means that it\r\n    // can only be called from the contract itself (or from\r\n    // derived contracts).\r\n    function placeBid(address bidder, uint value) internal returns (bool success)\r\n    {\r\n        if (value <= highestBid) {\r\n            return false;\r\n        }\r\n        if (highestBidder != address(0)) {\r\n            // Refund the previously highest bidder.\r\n            pendingReturns[highestBidder] += highestBid;\r\n        }\r\n\r\n        highestBid = value;\r\n        highestBidder = bidder;\r\n        return true;\r\n    }\r\n\r\n    // Withdraw a non-winning bid\r\n    function withdraw() public {\r\n        uint amount = pendingReturns[msg.sender];\r\n        if (amount > 0) {\r\n            pendingReturns[msg.sender] = 0;\r\n            payable(msg.sender).transfer(amount);\r\n        }\r\n    }\r\n\r\n    // Send the highest bid to the beneficiary and\r\n    // end the auction\r\n    function auctionEnd() public validPhase(Phase.Done) {\r\n        if(address(this).balance >= highestBid){\r\n            beneficiary.transfer(highestBid);\r\n        }\r\n        emit AuctionEnded(highestBidder, highestBid);\r\n    }\r\n\r\n    function closeAuction() public onlyBeneficiary {\r\n        selfdestruct(beneficiary);\r\n    }\r\n}\r\n",
  "sourcePath": "/Users/kimmingyu/Desktop/Solidity-Remix/Chapter6/BlindAuctionV2-Dapp/blindauction-contract/contracts/BlindAuction.sol",
  "compiler": {
    "name": "solc",
    "version": "0.8.13+commit.abaa5c0e.Emscripten.clang"
  },
  "schemaVersion": "3.4.7",
  "updatedAt": "2022-05-19T03:41:36.771Z",
  "networkType": "ethereum",
  "devdoc": {
    "kind": "dev",
    "methods": {},
    "version": 1
  },
  "userdoc": {
    "kind": "user",
    "methods": {},
    "version": 1
  }
}