{
	"Airlines.sol": {
		"Airlines": {
			"abi": [
				{
					"inputs": [],
					"stateMutability": "payable",
					"type": "constructor"
				},
				{
					"inputs": [
						{
							"internalType": "address",
							"name": "",
							"type": "address"
						}
					],
					"name": "balanceDetails",
					"outputs": [
						{
							"internalType": "uint256",
							"name": "escrow",
							"type": "uint256"
						},
						{
							"internalType": "uint256",
							"name": "status",
							"type": "uint256"
						},
						{
							"internalType": "uint256",
							"name": "hashofDetails",
							"type": "uint256"
						}
					],
					"stateMutability": "view",
					"type": "function"
				},
				{
					"inputs": [],
					"name": "register",
					"outputs": [],
					"stateMutability": "payable",
					"type": "function"
				},
				{
					"inputs": [
						{
							"internalType": "address",
							"name": "toAirline",
							"type": "address"
						},
						{
							"internalType": "uint256",
							"name": "hashofDetails",
							"type": "uint256"
						}
					],
					"name": "request",
					"outputs": [],
					"stateMutability": "nonpayable",
					"type": "function"
				},
				{
					"inputs": [
						{
							"internalType": "address",
							"name": "fromAirline",
							"type": "address"
						},
						{
							"internalType": "uint256",
							"name": "hashofDetails",
							"type": "uint256"
						},
						{
							"internalType": "uint256",
							"name": "done",
							"type": "uint256"
						}
					],
					"name": "response",
					"outputs": [],
					"stateMutability": "nonpayable",
					"type": "function"
				},
				{
					"inputs": [
						{
							"internalType": "address payable",
							"name": "toAirline",
							"type": "address"
						}
					],
					"name": "settlePayment",
					"outputs": [],
					"stateMutability": "payable",
					"type": "function"
				},
				{
					"inputs": [
						{
							"internalType": "address payable",
							"name": "AirlineZ",
							"type": "address"
						}
					],
					"name": "unregister",
					"outputs": [],
					"stateMutability": "nonpayable",
					"type": "function"
				}
			],
			"devdoc": {
				"methods": {}
			},
			"evm": {
				"assembly": "    /* \"Airlines.sol\":24:2304  contract Airlines {... */\n  mstore(0x40, 0x80)\n    /* \"Airlines.sol\":765:775  msg.sender */\n  caller\n    /* \"Airlines.sol\":751:762  chairperson */\n  0x00\n  dup1\n    /* \"Airlines.sol\":751:775  chairperson = msg.sender */\n  0x0100\n  exp\n  dup2\n  sload\n  dup2\n  0xffffffffffffffffffffffffffffffffffffffff\n  mul\n  not\n  and\n  swap1\n  dup4\n  0xffffffffffffffffffffffffffffffffffffffff\n  and\n  mul\n  or\n  swap1\n  sstore\n  pop\n    /* \"Airlines.sol\":810:811  1 */\n  0x01\n    /* \"Airlines.sol\":785:795  membership */\n  0x02\n    /* \"Airlines.sol\":785:807  membership[msg.sender] */\n  0x00\n    /* \"Airlines.sol\":796:806  msg.sender */\n  caller\n    /* \"Airlines.sol\":785:807  membership[msg.sender] */\n  0xffffffffffffffffffffffffffffffffffffffff\n  and\n  0xffffffffffffffffffffffffffffffffffffffff\n  and\n  dup2\n  mstore\n  0x20\n  add\n  swap1\n  dup2\n  mstore\n  0x20\n  add\n  0x00\n  keccak256\n    /* \"Airlines.sol\":785:811  membership[msg.sender] = 1 */\n  dup2\n  swap1\n  sstore\n  pop\n    /* \"Airlines.sol\":857:866  msg.value */\n  callvalue\n    /* \"Airlines.sol\":821:835  balanceDetails */\n  0x01\n    /* \"Airlines.sol\":821:847  balanceDetails[msg.sender] */\n  0x00\n    /* \"Airlines.sol\":836:846  msg.sender */\n  caller\n    /* \"Airlines.sol\":821:847  balanceDetails[msg.sender] */\n  0xffffffffffffffffffffffffffffffffffffffff\n  and\n  0xffffffffffffffffffffffffffffffffffffffff\n  and\n  dup2\n  mstore\n  0x20\n  add\n  swap1\n  dup2\n  mstore\n  0x20\n  add\n  0x00\n  keccak256\n    /* \"Airlines.sol\":821:854  balanceDetails[msg.sender].escrow */\n  0x00\n  add\n    /* \"Airlines.sol\":821:866  balanceDetails[msg.sender].escrow = msg.value */\n  dup2\n  swap1\n  sstore\n  pop\n    /* \"Airlines.sol\":24:2304  contract Airlines {... */\n  dataSize(sub_0)\n  dup1\n  dataOffset(sub_0)\n  0x00\n  codecopy\n  0x00\n  return\nstop\n\nsub_0: assembly {\n        /* \"Airlines.sol\":24:2304  contract Airlines {... */\n      mstore(0x40, 0x80)\n      jumpi(tag_1, lt(calldatasize, 0x04))\n      shr(0xe0, calldataload(0x00))\n      dup1\n      0x1aa3a008\n      eq\n      tag_2\n      jumpi\n      dup1\n      0x2109dc88\n      eq\n      tag_3\n      jumpi\n      dup1\n      0x2ec2c246\n      eq\n      tag_4\n      jumpi\n      dup1\n      0x6d1954e0\n      eq\n      tag_5\n      jumpi\n      dup1\n      0xa3aa1913\n      eq\n      tag_6\n      jumpi\n      dup1\n      0xc8c01a55\n      eq\n      tag_7\n      jumpi\n    tag_1:\n      0x00\n      dup1\n      revert\n        /* \"Airlines.sol\":879:1049  function register() public payable {... */\n    tag_2:\n      tag_8\n      tag_9\n      jump\t// in\n    tag_8:\n      stop\n        /* \"Airlines.sol\":1855:2302  function settlePayment (address payable toAirline) onlyMember payable public {... */\n    tag_3:\n      tag_10\n      0x04\n      dup1\n      calldatasize\n      sub\n        /* \"--CODEGEN--\":13:15   */\n      0x20\n        /* \"--CODEGEN--\":8:11   */\n      dup2\n        /* \"--CODEGEN--\":5:16   */\n      lt\n        /* \"--CODEGEN--\":2:4   */\n      iszero\n      tag_11\n      jumpi\n        /* \"--CODEGEN--\":29:30   */\n      0x00\n        /* \"--CODEGEN--\":26:27   */\n      dup1\n        /* \"--CODEGEN--\":19:31   */\n      revert\n        /* \"--CODEGEN--\":2:4   */\n    tag_11:\n        /* \"Airlines.sol\":1855:2302  function settlePayment (address payable toAirline) onlyMember payable public {... */\n      dup2\n      add\n      swap1\n      dup1\n      dup1\n      calldataload\n      0xffffffffffffffffffffffffffffffffffffffff\n      and\n      swap1\n      0x20\n      add\n      swap1\n      swap3\n      swap2\n      swap1\n      pop\n      pop\n      pop\n      tag_12\n      jump\t// in\n    tag_10:\n      stop\n        /* \"Airlines.sol\":1055:1270  function unregister(address payable AirlineZ) onlyChairperson public {... */\n    tag_4:\n      callvalue\n        /* \"--CODEGEN--\":8:17   */\n      dup1\n        /* \"--CODEGEN--\":5:7   */\n      iszero\n      tag_13\n      jumpi\n        /* \"--CODEGEN--\":30:31   */\n      0x00\n        /* \"--CODEGEN--\":27:28   */\n      dup1\n        /* \"--CODEGEN--\":20:32   */\n      revert\n        /* \"--CODEGEN--\":5:7   */\n    tag_13:\n        /* \"Airlines.sol\":1055:1270  function unregister(address payable AirlineZ) onlyChairperson public {... */\n      pop\n      tag_14\n      0x04\n      dup1\n      calldatasize\n      sub\n        /* \"--CODEGEN--\":13:15   */\n      0x20\n        /* \"--CODEGEN--\":8:11   */\n      dup2\n        /* \"--CODEGEN--\":5:16   */\n      lt\n        /* \"--CODEGEN--\":2:4   */\n      iszero\n      tag_15\n      jumpi\n        /* \"--CODEGEN--\":29:30   */\n      0x00\n        /* \"--CODEGEN--\":26:27   */\n      dup1\n        /* \"--CODEGEN--\":19:31   */\n      revert\n        /* \"--CODEGEN--\":2:4   */\n    tag_15:\n        /* \"Airlines.sol\":1055:1270  function unregister(address payable AirlineZ) onlyChairperson public {... */\n      dup2\n      add\n      swap1\n      dup1\n      dup1\n      calldataload\n      0xffffffffffffffffffffffffffffffffffffffff\n      and\n      swap1\n      0x20\n      add\n      swap1\n      swap3\n      swap2\n      swap1\n      pop\n      pop\n      pop\n      tag_16\n      jump\t// in\n    tag_14:\n      stop\n        /* \"Airlines.sol\":1555:1849  function response (address fromAirline, uint hashofDetails, uint done)... */\n    tag_5:\n      callvalue\n        /* \"--CODEGEN--\":8:17   */\n      dup1\n        /* \"--CODEGEN--\":5:7   */\n      iszero\n      tag_17\n      jumpi\n        /* \"--CODEGEN--\":30:31   */\n      0x00\n        /* \"--CODEGEN--\":27:28   */\n      dup1\n        /* \"--CODEGEN--\":20:32   */\n      revert\n        /* \"--CODEGEN--\":5:7   */\n    tag_17:\n        /* \"Airlines.sol\":1555:1849  function response (address fromAirline, uint hashofDetails, uint done)... */\n      pop\n      tag_18\n      0x04\n      dup1\n      calldatasize\n      sub\n        /* \"--CODEGEN--\":13:15   */\n      0x60\n        /* \"--CODEGEN--\":8:11   */\n      dup2\n        /* \"--CODEGEN--\":5:16   */\n      lt\n        /* \"--CODEGEN--\":2:4   */\n      iszero\n      tag_19\n      jumpi\n        /* \"--CODEGEN--\":29:30   */\n      0x00\n        /* \"--CODEGEN--\":26:27   */\n      dup1\n        /* \"--CODEGEN--\":19:31   */\n      revert\n        /* \"--CODEGEN--\":2:4   */\n    tag_19:\n        /* \"Airlines.sol\":1555:1849  function response (address fromAirline, uint hashofDetails, uint done)... */\n      dup2\n      add\n      swap1\n      dup1\n      dup1\n      calldataload\n      0xffffffffffffffffffffffffffffffffffffffff\n      and\n      swap1\n      0x20\n      add\n      swap1\n      swap3\n      swap2\n      swap1\n      dup1\n      calldataload\n      swap1\n      0x20\n      add\n      swap1\n      swap3\n      swap2\n      swap1\n      dup1\n      calldataload\n      swap1\n      0x20\n      add\n      swap1\n      swap3\n      swap2\n      swap1\n      pop\n      pop\n      pop\n      tag_20\n      jump\t// in\n    tag_18:\n      stop\n        /* \"Airlines.sol\":198:246  mapping (address=>details) public balanceDetails */\n    tag_6:\n      callvalue\n        /* \"--CODEGEN--\":8:17   */\n      dup1\n        /* \"--CODEGEN--\":5:7   */\n      iszero\n      tag_21\n      jumpi\n        /* \"--CODEGEN--\":30:31   */\n      0x00\n        /* \"--CODEGEN--\":27:28   */\n      dup1\n        /* \"--CODEGEN--\":20:32   */\n      revert\n        /* \"--CODEGEN--\":5:7   */\n    tag_21:\n        /* \"Airlines.sol\":198:246  mapping (address=>details) public balanceDetails */\n      pop\n      tag_22\n      0x04\n      dup1\n      calldatasize\n      sub\n        /* \"--CODEGEN--\":13:15   */\n      0x20\n        /* \"--CODEGEN--\":8:11   */\n      dup2\n        /* \"--CODEGEN--\":5:16   */\n      lt\n        /* \"--CODEGEN--\":2:4   */\n      iszero\n      tag_23\n      jumpi\n        /* \"--CODEGEN--\":29:30   */\n      0x00\n        /* \"--CODEGEN--\":26:27   */\n      dup1\n        /* \"--CODEGEN--\":19:31   */\n      revert\n        /* \"--CODEGEN--\":2:4   */\n    tag_23:\n        /* \"Airlines.sol\":198:246  mapping (address=>details) public balanceDetails */\n      dup2\n      add\n      swap1\n      dup1\n      dup1\n      calldataload\n      0xffffffffffffffffffffffffffffffffffffffff\n      and\n      swap1\n      0x20\n      add\n      swap1\n      swap3\n      swap2\n      swap1\n      pop\n      pop\n      pop\n      tag_24\n      jump\t// in\n    tag_22:\n      mload(0x40)\n      dup1\n      dup5\n      dup2\n      mstore\n      0x20\n      add\n      dup4\n      dup2\n      mstore\n      0x20\n      add\n      dup3\n      dup2\n      mstore\n      0x20\n      add\n      swap4\n      pop\n      pop\n      pop\n      pop\n      mload(0x40)\n      dup1\n      swap2\n      sub\n      swap1\n      return\n        /* \"Airlines.sol\":1276:1549  function request (address toAirline, uint hashofDetails) onlyMember... */\n    tag_7:\n      callvalue\n        /* \"--CODEGEN--\":8:17   */\n      dup1\n        /* \"--CODEGEN--\":5:7   */\n      iszero\n      tag_25\n      jumpi\n        /* \"--CODEGEN--\":30:31   */\n      0x00\n        /* \"--CODEGEN--\":27:28   */\n      dup1\n        /* \"--CODEGEN--\":20:32   */\n      revert\n        /* \"--CODEGEN--\":5:7   */\n    tag_25:\n        /* \"Airlines.sol\":1276:1549  function request (address toAirline, uint hashofDetails) onlyMember... */\n      pop\n      tag_26\n      0x04\n      dup1\n      calldatasize\n      sub\n        /* \"--CODEGEN--\":13:15   */\n      0x40\n        /* \"--CODEGEN--\":8:11   */\n      dup2\n        /* \"--CODEGEN--\":5:16   */\n      lt\n        /* \"--CODEGEN--\":2:4   */\n      iszero\n      tag_27\n      jumpi\n        /* \"--CODEGEN--\":29:30   */\n      0x00\n        /* \"--CODEGEN--\":26:27   */\n      dup1\n        /* \"--CODEGEN--\":19:31   */\n      revert\n        /* \"--CODEGEN--\":2:4   */\n    tag_27:\n        /* \"Airlines.sol\":1276:1549  function request (address toAirline, uint hashofDetails) onlyMember... */\n      dup2\n      add\n      swap1\n      dup1\n      dup1\n      calldataload\n      0xffffffffffffffffffffffffffffffffffffffff\n      and\n      swap1\n      0x20\n      add\n      swap1\n      swap3\n      swap2\n      swap1\n      dup1\n      calldataload\n      swap1\n      0x20\n      add\n      swap1\n      swap3\n      swap2\n      swap1\n      pop\n      pop\n      pop\n      tag_28\n      jump\t// in\n    tag_26:\n      stop\n        /* \"Airlines.sol\":879:1049  function register() public payable {... */\n    tag_9:\n        /* \"Airlines.sol\":924:940  address AirlineA */\n      0x00\n        /* \"Airlines.sol\":943:953  msg.sender */\n      caller\n        /* \"Airlines.sol\":924:953  address AirlineA = msg.sender */\n      swap1\n      pop\n        /* \"Airlines.sol\":986:987  1 */\n      0x01\n        /* \"Airlines.sol\":963:973  membership */\n      0x02\n        /* \"Airlines.sol\":963:983  membership[AirlineA] */\n      0x00\n        /* \"Airlines.sol\":974:982  AirlineA */\n      dup4\n        /* \"Airlines.sol\":963:983  membership[AirlineA] */\n      0xffffffffffffffffffffffffffffffffffffffff\n      and\n      0xffffffffffffffffffffffffffffffffffffffff\n      and\n      dup2\n      mstore\n      0x20\n      add\n      swap1\n      dup2\n      mstore\n      0x20\n      add\n      0x00\n      keccak256\n        /* \"Airlines.sol\":963:987  membership[AirlineA] = 1 */\n      dup2\n      swap1\n      sstore\n      pop\n        /* \"Airlines.sol\":1033:1042  msg.value */\n      callvalue\n        /* \"Airlines.sol\":997:1011  balanceDetails */\n      0x01\n        /* \"Airlines.sol\":997:1023  balanceDetails[msg.sender] */\n      0x00\n        /* \"Airlines.sol\":1012:1022  msg.sender */\n      caller\n        /* \"Airlines.sol\":997:1023  balanceDetails[msg.sender] */\n      0xffffffffffffffffffffffffffffffffffffffff\n      and\n      0xffffffffffffffffffffffffffffffffffffffff\n      and\n      dup2\n      mstore\n      0x20\n      add\n      swap1\n      dup2\n      mstore\n      0x20\n      add\n      0x00\n      keccak256\n        /* \"Airlines.sol\":997:1030  balanceDetails[msg.sender].escrow */\n      0x00\n      add\n        /* \"Airlines.sol\":997:1042  balanceDetails[msg.sender].escrow = msg.value */\n      dup2\n      swap1\n      sstore\n      pop\n        /* \"Airlines.sol\":879:1049  function register() public payable {... */\n      pop\n      jump\t// out\n        /* \"Airlines.sol\":1855:2302  function settlePayment (address payable toAirline) onlyMember payable public {... */\n    tag_12:\n        /* \"Airlines.sol\":604:605  1 */\n      0x01\n        /* \"Airlines.sol\":578:588  membership */\n      0x02\n        /* \"Airlines.sol\":578:600  membership[msg.sender] */\n      0x00\n        /* \"Airlines.sol\":589:599  msg.sender */\n      caller\n        /* \"Airlines.sol\":578:600  membership[msg.sender] */\n      0xffffffffffffffffffffffffffffffffffffffff\n      and\n      0xffffffffffffffffffffffffffffffffffffffff\n      and\n      dup2\n      mstore\n      0x20\n      add\n      swap1\n      dup2\n      mstore\n      0x20\n      add\n      0x00\n      keccak256\n      sload\n        /* \"Airlines.sol\":578:605  membership[msg.sender] == 1 */\n      eq\n        /* \"Airlines.sol\":569:606  require (membership[msg.sender] == 1) */\n      tag_31\n      jumpi\n      0x00\n      dup1\n      revert\n    tag_31:\n        /* \"Airlines.sol\":1942:1961  address fromAirline */\n      0x00\n        /* \"Airlines.sol\":1964:1974  msg.sender */\n      caller\n        /* \"Airlines.sol\":1942:1974  address fromAirline = msg.sender */\n      swap1\n      pop\n        /* \"Airlines.sol\":1984:1992  uint amt */\n      0x00\n        /* \"Airlines.sol\":1995:2004  msg.value */\n      callvalue\n        /* \"Airlines.sol\":1984:2004  uint amt = msg.value */\n      swap1\n      pop\n        /* \"Airlines.sol\":2085:2088  amt */\n      dup1\n        /* \"Airlines.sol\":2050:2064  balanceDetails */\n      0x01\n        /* \"Airlines.sol\":2050:2075  balanceDetails[toAirline] */\n      0x00\n        /* \"Airlines.sol\":2065:2074  toAirline */\n      dup6\n        /* \"Airlines.sol\":2050:2075  balanceDetails[toAirline] */\n      0xffffffffffffffffffffffffffffffffffffffff\n      and\n      0xffffffffffffffffffffffffffffffffffffffff\n      and\n      dup2\n      mstore\n      0x20\n      add\n      swap1\n      dup2\n      mstore\n      0x20\n      add\n      0x00\n      keccak256\n        /* \"Airlines.sol\":2050:2082  balanceDetails[toAirline].escrow */\n      0x00\n      add\n      sload\n        /* \"Airlines.sol\":2050:2088  balanceDetails[toAirline].escrow + amt */\n      add\n        /* \"Airlines.sol\":2015:2029  balanceDetails */\n      0x01\n        /* \"Airlines.sol\":2015:2040  balanceDetails[toAirline] */\n      0x00\n        /* \"Airlines.sol\":2030:2039  toAirline */\n      dup6\n        /* \"Airlines.sol\":2015:2040  balanceDetails[toAirline] */\n      0xffffffffffffffffffffffffffffffffffffffff\n      and\n      0xffffffffffffffffffffffffffffffffffffffff\n      and\n      dup2\n      mstore\n      0x20\n      add\n      swap1\n      dup2\n      mstore\n      0x20\n      add\n      0x00\n      keccak256\n        /* \"Airlines.sol\":2015:2047  balanceDetails[toAirline].escrow */\n      0x00\n      add\n        /* \"Airlines.sol\":2015:2088  balanceDetails[toAirline].escrow = balanceDetails[toAirline].escrow + amt */\n      dup2\n      swap1\n      sstore\n      pop\n        /* \"Airlines.sol\":2172:2175  amt */\n      dup1\n        /* \"Airlines.sol\":2135:2149  balanceDetails */\n      0x01\n        /* \"Airlines.sol\":2135:2162  balanceDetails[fromAirline] */\n      0x00\n        /* \"Airlines.sol\":2150:2161  fromAirline */\n      dup5\n        /* \"Airlines.sol\":2135:2162  balanceDetails[fromAirline] */\n      0xffffffffffffffffffffffffffffffffffffffff\n      and\n      0xffffffffffffffffffffffffffffffffffffffff\n      and\n      dup2\n      mstore\n      0x20\n      add\n      swap1\n      dup2\n      mstore\n      0x20\n      add\n      0x00\n      keccak256\n        /* \"Airlines.sol\":2135:2169  balanceDetails[fromAirline].escrow */\n      0x00\n      add\n      sload\n        /* \"Airlines.sol\":2135:2175  balanceDetails[fromAirline].escrow - amt */\n      sub\n        /* \"Airlines.sol\":2098:2112  balanceDetails */\n      0x01\n        /* \"Airlines.sol\":2098:2125  balanceDetails[fromAirline] */\n      0x00\n        /* \"Airlines.sol\":2113:2124  fromAirline */\n      dup5\n        /* \"Airlines.sol\":2098:2125  balanceDetails[fromAirline] */\n      0xffffffffffffffffffffffffffffffffffffffff\n      and\n      0xffffffffffffffffffffffffffffffffffffffff\n      and\n      dup2\n      mstore\n      0x20\n      add\n      swap1\n      dup2\n      mstore\n      0x20\n      add\n      0x00\n      keccak256\n        /* \"Airlines.sol\":2098:2132  balanceDetails[fromAirline].escrow */\n      0x00\n      add\n        /* \"Airlines.sol\":2098:2175  balanceDetails[fromAirline].escrow = balanceDetails[fromAirline].escrow - amt */\n      dup2\n      swap1\n      sstore\n      pop\n        /* \"Airlines.sol\":2186:2195  toAirline */\n      dup3\n        /* \"Airlines.sol\":2186:2204  toAirline.transfer */\n      0xffffffffffffffffffffffffffffffffffffffff\n      and\n        /* \"Airlines.sol\":2186:2209  toAirline.transfer(amt) */\n      0x08fc\n        /* \"Airlines.sol\":2205:2208  amt */\n      dup3\n        /* \"Airlines.sol\":2186:2209  toAirline.transfer(amt) */\n      swap1\n      dup2\n      iszero\n      mul\n      swap1\n      mload(0x40)\n      0x00\n      mload(0x40)\n      dup1\n      dup4\n      sub\n      dup2\n      dup6\n      dup9\n      dup9\n      call\n      swap4\n      pop\n      pop\n      pop\n      pop\n      iszero\n        /* \"--CODEGEN--\":8:17   */\n      dup1\n        /* \"--CODEGEN--\":5:7   */\n      iszero\n      tag_34\n      jumpi\n        /* \"--CODEGEN--\":45:61   */\n      returndatasize\n        /* \"--CODEGEN--\":42:43   */\n      0x00\n        /* \"--CODEGEN--\":39:40   */\n      dup1\n        /* \"--CODEGEN--\":24:62   */\n      returndatacopy\n        /* \"--CODEGEN--\":77:93   */\n      returndatasize\n        /* \"--CODEGEN--\":74:75   */\n      0x00\n        /* \"--CODEGEN--\":67:94   */\n      revert\n        /* \"--CODEGEN--\":5:7   */\n    tag_34:\n        /* \"Airlines.sol\":2186:2209  toAirline.transfer(amt) */\n      pop\n        /* \"Airlines.sol\":616:617  _ */\n      pop\n      pop\n        /* \"Airlines.sol\":1855:2302  function settlePayment (address payable toAirline) onlyMember payable public {... */\n      pop\n      jump\t// out\n        /* \"Airlines.sol\":1055:1270  function unregister(address payable AirlineZ) onlyChairperson public {... */\n    tag_16:\n        /* \"Airlines.sol\":458:469  chairperson */\n      0x00\n      dup1\n      swap1\n      sload\n      swap1\n      0x0100\n      exp\n      swap1\n      div\n      0xffffffffffffffffffffffffffffffffffffffff\n      and\n        /* \"Airlines.sol\":444:469  msg.sender == chairperson */\n      0xffffffffffffffffffffffffffffffffffffffff\n      and\n        /* \"Airlines.sol\":444:454  msg.sender */\n      caller\n        /* \"Airlines.sol\":444:469  msg.sender == chairperson */\n      0xffffffffffffffffffffffffffffffffffffffff\n      and\n      eq\n        /* \"Airlines.sol\":435:470  require (msg.sender == chairperson) */\n      tag_36\n      jumpi\n      0x00\n      dup1\n      revert\n    tag_36:\n        /* \"Airlines.sol\":1157:1158  0 */\n      0x00\n        /* \"Airlines.sol\":1134:1144  membership */\n      0x02\n        /* \"Airlines.sol\":1134:1154  membership[AirlineZ] */\n      0x00\n        /* \"Airlines.sol\":1145:1153  AirlineZ */\n      dup4\n        /* \"Airlines.sol\":1134:1154  membership[AirlineZ] */\n      0xffffffffffffffffffffffffffffffffffffffff\n      and\n      0xffffffffffffffffffffffffffffffffffffffff\n      and\n      dup2\n      mstore\n      0x20\n      add\n      swap1\n      dup2\n      mstore\n      0x20\n      add\n      0x00\n      keccak256\n        /* \"Airlines.sol\":1134:1158  membership[AirlineZ] = 0 */\n      dup2\n      swap1\n      sstore\n      pop\n        /* \"Airlines.sol\":1168:1176  AirlineZ */\n      dup1\n        /* \"Airlines.sol\":1168:1185  AirlineZ.transfer */\n      0xffffffffffffffffffffffffffffffffffffffff\n      and\n        /* \"Airlines.sol\":1168:1218  AirlineZ.transfer(balanceDetails[AirlineZ].escrow) */\n      0x08fc\n        /* \"Airlines.sol\":1186:1200  balanceDetails */\n      0x01\n        /* \"Airlines.sol\":1186:1210  balanceDetails[AirlineZ] */\n      0x00\n        /* \"Airlines.sol\":1201:1209  AirlineZ */\n      dup5\n        /* \"Airlines.sol\":1186:1210  balanceDetails[AirlineZ] */\n      0xffffffffffffffffffffffffffffffffffffffff\n      and\n      0xffffffffffffffffffffffffffffffffffffffff\n      and\n      dup2\n      mstore\n      0x20\n      add\n      swap1\n      dup2\n      mstore\n      0x20\n      add\n      0x00\n      keccak256\n        /* \"Airlines.sol\":1186:1217  balanceDetails[AirlineZ].escrow */\n      0x00\n      add\n      sload\n        /* \"Airlines.sol\":1168:1218  AirlineZ.transfer(balanceDetails[AirlineZ].escrow) */\n      swap1\n      dup2\n      iszero\n      mul\n      swap1\n      mload(0x40)\n      0x00\n      mload(0x40)\n      dup1\n      dup4\n      sub\n      dup2\n      dup6\n      dup9\n      dup9\n      call\n      swap4\n      pop\n      pop\n      pop\n      pop\n      iszero\n        /* \"--CODEGEN--\":8:17   */\n      dup1\n        /* \"--CODEGEN--\":5:7   */\n      iszero\n      tag_39\n      jumpi\n        /* \"--CODEGEN--\":45:61   */\n      returndatasize\n        /* \"--CODEGEN--\":42:43   */\n      0x00\n        /* \"--CODEGEN--\":39:40   */\n      dup1\n        /* \"--CODEGEN--\":24:62   */\n      returndatacopy\n        /* \"--CODEGEN--\":77:93   */\n      returndatasize\n        /* \"--CODEGEN--\":74:75   */\n      0x00\n        /* \"--CODEGEN--\":67:94   */\n      revert\n        /* \"--CODEGEN--\":5:7   */\n    tag_39:\n        /* \"Airlines.sol\":1168:1218  AirlineZ.transfer(balanceDetails[AirlineZ].escrow) */\n      pop\n        /* \"Airlines.sol\":1262:1263  0 */\n      0x00\n        /* \"Airlines.sol\":1228:1242  balanceDetails */\n      0x01\n        /* \"Airlines.sol\":1228:1252  balanceDetails[AirlineZ] */\n      0x00\n        /* \"Airlines.sol\":1243:1251  AirlineZ */\n      dup4\n        /* \"Airlines.sol\":1228:1252  balanceDetails[AirlineZ] */\n      0xffffffffffffffffffffffffffffffffffffffff\n      and\n      0xffffffffffffffffffffffffffffffffffffffff\n      and\n      dup2\n      mstore\n      0x20\n      add\n      swap1\n      dup2\n      mstore\n      0x20\n      add\n      0x00\n      keccak256\n        /* \"Airlines.sol\":1228:1259  balanceDetails[AirlineZ].escrow */\n      0x00\n      add\n        /* \"Airlines.sol\":1228:1263  balanceDetails[AirlineZ].escrow = 0 */\n      dup2\n      swap1\n      sstore\n      pop\n        /* \"Airlines.sol\":1055:1270  function unregister(address payable AirlineZ) onlyChairperson public {... */\n      pop\n      jump\t// out\n        /* \"Airlines.sol\":1555:1849  function response (address fromAirline, uint hashofDetails, uint done)... */\n    tag_20:\n        /* \"Airlines.sol\":604:605  1 */\n      0x01\n        /* \"Airlines.sol\":578:588  membership */\n      0x02\n        /* \"Airlines.sol\":578:600  membership[msg.sender] */\n      0x00\n        /* \"Airlines.sol\":589:599  msg.sender */\n      caller\n        /* \"Airlines.sol\":578:600  membership[msg.sender] */\n      0xffffffffffffffffffffffffffffffffffffffff\n      and\n      0xffffffffffffffffffffffffffffffffffffffff\n      and\n      dup2\n      mstore\n      0x20\n      add\n      swap1\n      dup2\n      mstore\n      0x20\n      add\n      0x00\n      keccak256\n      sload\n        /* \"Airlines.sol\":578:605  membership[msg.sender] == 1 */\n      eq\n        /* \"Airlines.sol\":569:606  require (membership[msg.sender] == 1) */\n      tag_41\n      jumpi\n      0x00\n      dup1\n      revert\n    tag_41:\n        /* \"Airlines.sol\":1689:1690  1 */\n      0x01\n        /* \"Airlines.sol\":1662:1672  membership */\n      0x02\n        /* \"Airlines.sol\":1662:1685  membership[fromAirline] */\n      0x00\n        /* \"Airlines.sol\":1673:1684  fromAirline */\n      dup6\n        /* \"Airlines.sol\":1662:1685  membership[fromAirline] */\n      0xffffffffffffffffffffffffffffffffffffffff\n      and\n      0xffffffffffffffffffffffffffffffffffffffff\n      and\n      dup2\n      mstore\n      0x20\n      add\n      swap1\n      dup2\n      mstore\n      0x20\n      add\n      0x00\n      keccak256\n      sload\n        /* \"Airlines.sol\":1662:1690  membership[fromAirline] != 1 */\n      eq\n        /* \"Airlines.sol\":1658:1726  if (membership[fromAirline] != 1) {... */\n      tag_43\n      jumpi\n        /* \"Airlines.sol\":1706:1715  revert () */\n      0x00\n      dup1\n      revert\n        /* \"Airlines.sol\":1658:1726  if (membership[fromAirline] != 1) {... */\n    tag_43:\n        /* \"Airlines.sol\":1771:1775  done */\n      dup1\n        /* \"Airlines.sol\":1735:1749  balanceDetails */\n      0x01\n        /* \"Airlines.sol\":1735:1761  balanceDetails[msg.sender] */\n      0x00\n        /* \"Airlines.sol\":1750:1760  msg.sender */\n      caller\n        /* \"Airlines.sol\":1735:1761  balanceDetails[msg.sender] */\n      0xffffffffffffffffffffffffffffffffffffffff\n      and\n      0xffffffffffffffffffffffffffffffffffffffff\n      and\n      dup2\n      mstore\n      0x20\n      add\n      swap1\n      dup2\n      mstore\n      0x20\n      add\n      0x00\n      keccak256\n        /* \"Airlines.sol\":1735:1768  balanceDetails[msg.sender].status */\n      0x01\n      add\n        /* \"Airlines.sol\":1735:1775  balanceDetails[msg.sender].status = done */\n      dup2\n      swap1\n      sstore\n      pop\n        /* \"Airlines.sol\":1829:1842  hashofDetails */\n      dup2\n        /* \"Airlines.sol\":1785:1799  balanceDetails */\n      0x01\n        /* \"Airlines.sol\":1785:1812  balanceDetails[fromAirline] */\n      0x00\n        /* \"Airlines.sol\":1800:1811  fromAirline */\n      dup6\n        /* \"Airlines.sol\":1785:1812  balanceDetails[fromAirline] */\n      0xffffffffffffffffffffffffffffffffffffffff\n      and\n      0xffffffffffffffffffffffffffffffffffffffff\n      and\n      dup2\n      mstore\n      0x20\n      add\n      swap1\n      dup2\n      mstore\n      0x20\n      add\n      0x00\n      keccak256\n        /* \"Airlines.sol\":1785:1826  balanceDetails[fromAirline].hashofDetails */\n      0x02\n      add\n        /* \"Airlines.sol\":1785:1842  balanceDetails[fromAirline].hashofDetails = hashofDetails */\n      dup2\n      swap1\n      sstore\n      pop\n        /* \"Airlines.sol\":1555:1849  function response (address fromAirline, uint hashofDetails, uint done)... */\n      pop\n      pop\n      pop\n      jump\t// out\n        /* \"Airlines.sol\":198:246  mapping (address=>details) public balanceDetails */\n    tag_24:\n      mstore(0x20, 0x01)\n      dup1\n      0x00\n      mstore\n      keccak256(0x00, 0x40)\n      0x00\n      swap2\n      pop\n      swap1\n      pop\n      dup1\n      0x00\n      add\n      sload\n      swap1\n      dup1\n      0x01\n      add\n      sload\n      swap1\n      dup1\n      0x02\n      add\n      sload\n      swap1\n      pop\n      dup4\n      jump\t// out\n        /* \"Airlines.sol\":1276:1549  function request (address toAirline, uint hashofDetails) onlyMember... */\n    tag_28:\n        /* \"Airlines.sol\":604:605  1 */\n      0x01\n        /* \"Airlines.sol\":578:588  membership */\n      0x02\n        /* \"Airlines.sol\":578:600  membership[msg.sender] */\n      0x00\n        /* \"Airlines.sol\":589:599  msg.sender */\n      caller\n        /* \"Airlines.sol\":578:600  membership[msg.sender] */\n      0xffffffffffffffffffffffffffffffffffffffff\n      and\n      0xffffffffffffffffffffffffffffffffffffffff\n      and\n      dup2\n      mstore\n      0x20\n      add\n      swap1\n      dup2\n      mstore\n      0x20\n      add\n      0x00\n      keccak256\n      sload\n        /* \"Airlines.sol\":578:605  membership[msg.sender] == 1 */\n      eq\n        /* \"Airlines.sol\":569:606  require (membership[msg.sender] == 1) */\n      tag_45\n      jumpi\n      0x00\n      dup1\n      revert\n    tag_45:\n        /* \"Airlines.sol\":1393:1394  1 */\n      0x01\n        /* \"Airlines.sol\":1369:1379  membership */\n      0x02\n        /* \"Airlines.sol\":1369:1390  membership[toAirline] */\n      0x00\n        /* \"Airlines.sol\":1380:1389  toAirline */\n      dup5\n        /* \"Airlines.sol\":1369:1390  membership[toAirline] */\n      0xffffffffffffffffffffffffffffffffffffffff\n      and\n      0xffffffffffffffffffffffffffffffffffffffff\n      and\n      dup2\n      mstore\n      0x20\n      add\n      swap1\n      dup2\n      mstore\n      0x20\n      add\n      0x00\n      keccak256\n      sload\n        /* \"Airlines.sol\":1369:1394  membership[toAirline]!= 1 */\n      eq\n        /* \"Airlines.sol\":1365:1430  if (membership[toAirline]!= 1) {... */\n      tag_47\n      jumpi\n        /* \"Airlines.sol\":1410:1419  revert () */\n      0x00\n      dup1\n      revert\n        /* \"Airlines.sol\":1365:1430  if (membership[toAirline]!= 1) {... */\n    tag_47:\n        /* \"Airlines.sol\":1475:1476  0 */\n      0x00\n        /* \"Airlines.sol\":1439:1453  balanceDetails */\n      0x01\n        /* \"Airlines.sol\":1439:1465  balanceDetails[msg.sender] */\n      0x00\n        /* \"Airlines.sol\":1454:1464  msg.sender */\n      caller\n        /* \"Airlines.sol\":1439:1465  balanceDetails[msg.sender] */\n      0xffffffffffffffffffffffffffffffffffffffff\n      and\n      0xffffffffffffffffffffffffffffffffffffffff\n      and\n      dup2\n      mstore\n      0x20\n      add\n      swap1\n      dup2\n      mstore\n      0x20\n      add\n      0x00\n      keccak256\n        /* \"Airlines.sol\":1439:1472  balanceDetails[msg.sender].status */\n      0x01\n      add\n        /* \"Airlines.sol\":1439:1476  balanceDetails[msg.sender].status = 0 */\n      dup2\n      swap1\n      sstore\n      pop\n        /* \"Airlines.sol\":1529:1542  hashofDetails */\n      dup1\n        /* \"Airlines.sol\":1486:1500  balanceDetails */\n      0x01\n        /* \"Airlines.sol\":1486:1512  balanceDetails[msg.sender] */\n      0x00\n        /* \"Airlines.sol\":1501:1511  msg.sender */\n      caller\n        /* \"Airlines.sol\":1486:1512  balanceDetails[msg.sender] */\n      0xffffffffffffffffffffffffffffffffffffffff\n      and\n      0xffffffffffffffffffffffffffffffffffffffff\n      and\n      dup2\n      mstore\n      0x20\n      add\n      swap1\n      dup2\n      mstore\n      0x20\n      add\n      0x00\n      keccak256\n        /* \"Airlines.sol\":1486:1526  balanceDetails[msg.sender].hashofDetails */\n      0x02\n      add\n        /* \"Airlines.sol\":1486:1542  balanceDetails[msg.sender].hashofDetails = hashofDetails */\n      dup2\n      swap1\n      sstore\n      pop\n        /* \"Airlines.sol\":1276:1549  function request (address toAirline, uint hashofDetails) onlyMember... */\n      pop\n      pop\n      jump\t// out\n\n    auxdata: 0xa2646970667358221220945b4b0245d8fbea21ae562cd5c209b6fc8c4ac1209fd32ef05e0660dcb6088b64736f6c63430006000033\n}\n",
				"bytecode": {
					"linkReferences": {},
					"object": "6080604052336000806101000a81548173ffffffffffffffffffffffffffffffffffffffff021916908373ffffffffffffffffffffffffffffffffffffffff1602179055506001600260003373ffffffffffffffffffffffffffffffffffffffff1673ffffffffffffffffffffffffffffffffffffffff1681526020019081526020016000208190555034600160003373ffffffffffffffffffffffffffffffffffffffff1673ffffffffffffffffffffffffffffffffffffffff168152602001908152602001600020600001819055506108a0806100df6000396000f3fe6080604052600436106100555760003560e01c80631aa3a0081461005a5780632109dc88146100645780632ec2c246146100a85780636d1954e0146100f9578063a3aa19131461015e578063c8c01a55146101d1575b600080fd5b61006261022c565b005b6100a66004803603602081101561007a57600080fd5b81019080803573ffffffffffffffffffffffffffffffffffffffff1690602001909291905050506102c0565b005b3480156100b457600080fd5b506100f7600480360360208110156100cb57600080fd5b81019080803573ffffffffffffffffffffffffffffffffffffffff169060200190929190505050610478565b005b34801561010557600080fd5b5061015c6004803603606081101561011c57600080fd5b81019080803573ffffffffffffffffffffffffffffffffffffffff16906020019092919080359060200190929190803590602001909291905050506105ea565b005b34801561016a57600080fd5b506101ad6004803603602081101561018157600080fd5b81019080803573ffffffffffffffffffffffffffffffffffffffff169060200190929190505050610715565b60405180848152602001838152602001828152602001935050505060405180910390f35b3480156101dd57600080fd5b5061022a600480360360408110156101f457600080fd5b81019080803573ffffffffffffffffffffffffffffffffffffffff1690602001909291908035906020019092919050505061073f565b005b60003390506001600260008373ffffffffffffffffffffffffffffffffffffffff1673ffffffffffffffffffffffffffffffffffffffff1681526020019081526020016000208190555034600160003373ffffffffffffffffffffffffffffffffffffffff1673ffffffffffffffffffffffffffffffffffffffff1681526020019081526020016000206000018190555050565b6001600260003373ffffffffffffffffffffffffffffffffffffffff1673ffffffffffffffffffffffffffffffffffffffff168152602001908152602001600020541461030c57600080fd5b6000339050600034905080600160008573ffffffffffffffffffffffffffffffffffffffff1673ffffffffffffffffffffffffffffffffffffffff1681526020019081526020016000206000015401600160008573ffffffffffffffffffffffffffffffffffffffff1673ffffffffffffffffffffffffffffffffffffffff1681526020019081526020016000206000018190555080600160008473ffffffffffffffffffffffffffffffffffffffff1673ffffffffffffffffffffffffffffffffffffffff1681526020019081526020016000206000015403600160008473ffffffffffffffffffffffffffffffffffffffff1673ffffffffffffffffffffffffffffffffffffffff168152602001908152602001600020600001819055508273ffffffffffffffffffffffffffffffffffffffff166108fc829081150290604051600060405180830381858888f19350505050158015610472573d6000803e3d6000fd5b50505050565b6000809054906101000a900473ffffffffffffffffffffffffffffffffffffffff1673ffffffffffffffffffffffffffffffffffffffff163373ffffffffffffffffffffffffffffffffffffffff16146104d157600080fd5b6000600260008373ffffffffffffffffffffffffffffffffffffffff1673ffffffffffffffffffffffffffffffffffffffff168152602001908152602001600020819055508073ffffffffffffffffffffffffffffffffffffffff166108fc600160008473ffffffffffffffffffffffffffffffffffffffff1673ffffffffffffffffffffffffffffffffffffffff168152602001908152602001600020600001549081150290604051600060405180830381858888f1935050505015801561059e573d6000803e3d6000fd5b506000600160008373ffffffffffffffffffffffffffffffffffffffff1673ffffffffffffffffffffffffffffffffffffffff1681526020019081526020016000206000018190555050565b6001600260003373ffffffffffffffffffffffffffffffffffffffff1673ffffffffffffffffffffffffffffffffffffffff168152602001908152602001600020541461063657600080fd5b6001600260008573ffffffffffffffffffffffffffffffffffffffff1673ffffffffffffffffffffffffffffffffffffffff168152602001908152602001600020541461068257600080fd5b80600160003373ffffffffffffffffffffffffffffffffffffffff1673ffffffffffffffffffffffffffffffffffffffff1681526020019081526020016000206001018190555081600160008573ffffffffffffffffffffffffffffffffffffffff1673ffffffffffffffffffffffffffffffffffffffff16815260200190815260200160002060020181905550505050565b60016020528060005260406000206000915090508060000154908060010154908060020154905083565b6001600260003373ffffffffffffffffffffffffffffffffffffffff1673ffffffffffffffffffffffffffffffffffffffff168152602001908152602001600020541461078b57600080fd5b6001600260008473ffffffffffffffffffffffffffffffffffffffff1673ffffffffffffffffffffffffffffffffffffffff16815260200190815260200160002054146107d757600080fd5b6000600160003373ffffffffffffffffffffffffffffffffffffffff1673ffffffffffffffffffffffffffffffffffffffff1681526020019081526020016000206001018190555080600160003373ffffffffffffffffffffffffffffffffffffffff1673ffffffffffffffffffffffffffffffffffffffff16815260200190815260200160002060020181905550505056fea2646970667358221220945b4b0245d8fbea21ae562cd5c209b6fc8c4ac1209fd32ef05e0660dcb6088b64736f6c63430006000033",
					"opcodes": "PUSH1 0x80 PUSH1 0x40 MSTORE CALLER PUSH1 0x0 DUP1 PUSH2 0x100 EXP DUP2 SLOAD DUP2 PUSH20 0xFFFFFFFFFFFFFFFFFFFFFFFFFFFFFFFFFFFFFFFF MUL NOT AND SWAP1 DUP4 PUSH20 0xFFFFFFFFFFFFFFFFFFFFFFFFFFFFFFFFFFFFFFFF AND MUL OR SWAP1 SSTORE POP PUSH1 0x1 PUSH1 0x2 PUSH1 0x0 CALLER PUSH20 0xFFFFFFFFFFFFFFFFFFFFFFFFFFFFFFFFFFFFFFFF AND PUSH20 0xFFFFFFFFFFFFFFFFFFFFFFFFFFFFFFFFFFFFFFFF AND DUP2 MSTORE PUSH1 0x20 ADD SWAP1 DUP2 MSTORE PUSH1 0x20 ADD PUSH1 0x0 KECCAK256 DUP2 SWAP1 SSTORE POP CALLVALUE PUSH1 0x1 PUSH1 0x0 CALLER PUSH20 0xFFFFFFFFFFFFFFFFFFFFFFFFFFFFFFFFFFFFFFFF AND PUSH20 0xFFFFFFFFFFFFFFFFFFFFFFFFFFFFFFFFFFFFFFFF AND DUP2 MSTORE PUSH1 0x20 ADD SWAP1 DUP2 MSTORE PUSH1 0x20 ADD PUSH1 0x0 KECCAK256 PUSH1 0x0 ADD DUP2 SWAP1 SSTORE POP PUSH2 0x8A0 DUP1 PUSH2 0xDF PUSH1 0x0 CODECOPY PUSH1 0x0 RETURN INVALID PUSH1 0x80 PUSH1 0x40 MSTORE PUSH1 0x4 CALLDATASIZE LT PUSH2 0x55 JUMPI PUSH1 0x0 CALLDATALOAD PUSH1 0xE0 SHR DUP1 PUSH4 0x1AA3A008 EQ PUSH2 0x5A JUMPI DUP1 PUSH4 0x2109DC88 EQ PUSH2 0x64 JUMPI DUP1 PUSH4 0x2EC2C246 EQ PUSH2 0xA8 JUMPI DUP1 PUSH4 0x6D1954E0 EQ PUSH2 0xF9 JUMPI DUP1 PUSH4 0xA3AA1913 EQ PUSH2 0x15E JUMPI DUP1 PUSH4 0xC8C01A55 EQ PUSH2 0x1D1 JUMPI JUMPDEST PUSH1 0x0 DUP1 REVERT JUMPDEST PUSH2 0x62 PUSH2 0x22C JUMP JUMPDEST STOP JUMPDEST PUSH2 0xA6 PUSH1 0x4 DUP1 CALLDATASIZE SUB PUSH1 0x20 DUP2 LT ISZERO PUSH2 0x7A JUMPI PUSH1 0x0 DUP1 REVERT JUMPDEST DUP2 ADD SWAP1 DUP1 DUP1 CALLDATALOAD PUSH20 0xFFFFFFFFFFFFFFFFFFFFFFFFFFFFFFFFFFFFFFFF AND SWAP1 PUSH1 0x20 ADD SWAP1 SWAP3 SWAP2 SWAP1 POP POP POP PUSH2 0x2C0 JUMP JUMPDEST STOP JUMPDEST CALLVALUE DUP1 ISZERO PUSH2 0xB4 JUMPI PUSH1 0x0 DUP1 REVERT JUMPDEST POP PUSH2 0xF7 PUSH1 0x4 DUP1 CALLDATASIZE SUB PUSH1 0x20 DUP2 LT ISZERO PUSH2 0xCB JUMPI PUSH1 0x0 DUP1 REVERT JUMPDEST DUP2 ADD SWAP1 DUP1 DUP1 CALLDATALOAD PUSH20 0xFFFFFFFFFFFFFFFFFFFFFFFFFFFFFFFFFFFFFFFF AND SWAP1 PUSH1 0x20 ADD SWAP1 SWAP3 SWAP2 SWAP1 POP POP POP PUSH2 0x478 JUMP JUMPDEST STOP JUMPDEST CALLVALUE DUP1 ISZERO PUSH2 0x105 JUMPI PUSH1 0x0 DUP1 REVERT JUMPDEST POP PUSH2 0x15C PUSH1 0x4 DUP1 CALLDATASIZE SUB PUSH1 0x60 DUP2 LT ISZERO PUSH2 0x11C JUMPI PUSH1 0x0 DUP1 REVERT JUMPDEST DUP2 ADD SWAP1 DUP1 DUP1 CALLDATALOAD PUSH20 0xFFFFFFFFFFFFFFFFFFFFFFFFFFFFFFFFFFFFFFFF AND SWAP1 PUSH1 0x20 ADD SWAP1 SWAP3 SWAP2 SWAP1 DUP1 CALLDATALOAD SWAP1 PUSH1 0x20 ADD SWAP1 SWAP3 SWAP2 SWAP1 DUP1 CALLDATALOAD SWAP1 PUSH1 0x20 ADD SWAP1 SWAP3 SWAP2 SWAP1 POP POP POP PUSH2 0x5EA JUMP JUMPDEST STOP JUMPDEST CALLVALUE DUP1 ISZERO PUSH2 0x16A JUMPI PUSH1 0x0 DUP1 REVERT JUMPDEST POP PUSH2 0x1AD PUSH1 0x4 DUP1 CALLDATASIZE SUB PUSH1 0x20 DUP2 LT ISZERO PUSH2 0x181 JUMPI PUSH1 0x0 DUP1 REVERT JUMPDEST DUP2 ADD SWAP1 DUP1 DUP1 CALLDATALOAD PUSH20 0xFFFFFFFFFFFFFFFFFFFFFFFFFFFFFFFFFFFFFFFF AND SWAP1 PUSH1 0x20 ADD SWAP1 SWAP3 SWAP2 SWAP1 POP POP POP PUSH2 0x715 JUMP JUMPDEST PUSH1 0x40 MLOAD DUP1 DUP5 DUP2 MSTORE PUSH1 0x20 ADD DUP4 DUP2 MSTORE PUSH1 0x20 ADD DUP3 DUP2 MSTORE PUSH1 0x20 ADD SWAP4 POP POP POP POP PUSH1 0x40 MLOAD DUP1 SWAP2 SUB SWAP1 RETURN JUMPDEST CALLVALUE DUP1 ISZERO PUSH2 0x1DD JUMPI PUSH1 0x0 DUP1 REVERT JUMPDEST POP PUSH2 0x22A PUSH1 0x4 DUP1 CALLDATASIZE SUB PUSH1 0x40 DUP2 LT ISZERO PUSH2 0x1F4 JUMPI PUSH1 0x0 DUP1 REVERT JUMPDEST DUP2 ADD SWAP1 DUP1 DUP1 CALLDATALOAD PUSH20 0xFFFFFFFFFFFFFFFFFFFFFFFFFFFFFFFFFFFFFFFF AND SWAP1 PUSH1 0x20 ADD SWAP1 SWAP3 SWAP2 SWAP1 DUP1 CALLDATALOAD SWAP1 PUSH1 0x20 ADD SWAP1 SWAP3 SWAP2 SWAP1 POP POP POP PUSH2 0x73F JUMP JUMPDEST STOP JUMPDEST PUSH1 0x0 CALLER SWAP1 POP PUSH1 0x1 PUSH1 0x2 PUSH1 0x0 DUP4 PUSH20 0xFFFFFFFFFFFFFFFFFFFFFFFFFFFFFFFFFFFFFFFF AND PUSH20 0xFFFFFFFFFFFFFFFFFFFFFFFFFFFFFFFFFFFFFFFF AND DUP2 MSTORE PUSH1 0x20 ADD SWAP1 DUP2 MSTORE PUSH1 0x20 ADD PUSH1 0x0 KECCAK256 DUP2 SWAP1 SSTORE POP CALLVALUE PUSH1 0x1 PUSH1 0x0 CALLER PUSH20 0xFFFFFFFFFFFFFFFFFFFFFFFFFFFFFFFFFFFFFFFF AND PUSH20 0xFFFFFFFFFFFFFFFFFFFFFFFFFFFFFFFFFFFFFFFF AND DUP2 MSTORE PUSH1 0x20 ADD SWAP1 DUP2 MSTORE PUSH1 0x20 ADD PUSH1 0x0 KECCAK256 PUSH1 0x0 ADD DUP2 SWAP1 SSTORE POP POP JUMP JUMPDEST PUSH1 0x1 PUSH1 0x2 PUSH1 0x0 CALLER PUSH20 0xFFFFFFFFFFFFFFFFFFFFFFFFFFFFFFFFFFFFFFFF AND PUSH20 0xFFFFFFFFFFFFFFFFFFFFFFFFFFFFFFFFFFFFFFFF AND DUP2 MSTORE PUSH1 0x20 ADD SWAP1 DUP2 MSTORE PUSH1 0x20 ADD PUSH1 0x0 KECCAK256 SLOAD EQ PUSH2 0x30C JUMPI PUSH1 0x0 DUP1 REVERT JUMPDEST PUSH1 0x0 CALLER SWAP1 POP PUSH1 0x0 CALLVALUE SWAP1 POP DUP1 PUSH1 0x1 PUSH1 0x0 DUP6 PUSH20 0xFFFFFFFFFFFFFFFFFFFFFFFFFFFFFFFFFFFFFFFF AND PUSH20 0xFFFFFFFFFFFFFFFFFFFFFFFFFFFFFFFFFFFFFFFF AND DUP2 MSTORE PUSH1 0x20 ADD SWAP1 DUP2 MSTORE PUSH1 0x20 ADD PUSH1 0x0 KECCAK256 PUSH1 0x0 ADD SLOAD ADD PUSH1 0x1 PUSH1 0x0 DUP6 PUSH20 0xFFFFFFFFFFFFFFFFFFFFFFFFFFFFFFFFFFFFFFFF AND PUSH20 0xFFFFFFFFFFFFFFFFFFFFFFFFFFFFFFFFFFFFFFFF AND DUP2 MSTORE PUSH1 0x20 ADD SWAP1 DUP2 MSTORE PUSH1 0x20 ADD PUSH1 0x0 KECCAK256 PUSH1 0x0 ADD DUP2 SWAP1 SSTORE POP DUP1 PUSH1 0x1 PUSH1 0x0 DUP5 PUSH20 0xFFFFFFFFFFFFFFFFFFFFFFFFFFFFFFFFFFFFFFFF AND PUSH20 0xFFFFFFFFFFFFFFFFFFFFFFFFFFFFFFFFFFFFFFFF AND DUP2 MSTORE PUSH1 0x20 ADD SWAP1 DUP2 MSTORE PUSH1 0x20 ADD PUSH1 0x0 KECCAK256 PUSH1 0x0 ADD SLOAD SUB PUSH1 0x1 PUSH1 0x0 DUP5 PUSH20 0xFFFFFFFFFFFFFFFFFFFFFFFFFFFFFFFFFFFFFFFF AND PUSH20 0xFFFFFFFFFFFFFFFFFFFFFFFFFFFFFFFFFFFFFFFF AND DUP2 MSTORE PUSH1 0x20 ADD SWAP1 DUP2 MSTORE PUSH1 0x20 ADD PUSH1 0x0 KECCAK256 PUSH1 0x0 ADD DUP2 SWAP1 SSTORE POP DUP3 PUSH20 0xFFFFFFFFFFFFFFFFFFFFFFFFFFFFFFFFFFFFFFFF AND PUSH2 0x8FC DUP3 SWAP1 DUP2 ISZERO MUL SWAP1 PUSH1 0x40 MLOAD PUSH1 0x0 PUSH1 0x40 MLOAD DUP1 DUP4 SUB DUP2 DUP6 DUP9 DUP9 CALL SWAP4 POP POP POP POP ISZERO DUP1 ISZERO PUSH2 0x472 JUMPI RETURNDATASIZE PUSH1 0x0 DUP1 RETURNDATACOPY RETURNDATASIZE PUSH1 0x0 REVERT JUMPDEST POP POP POP POP JUMP JUMPDEST PUSH1 0x0 DUP1 SWAP1 SLOAD SWAP1 PUSH2 0x100 EXP SWAP1 DIV PUSH20 0xFFFFFFFFFFFFFFFFFFFFFFFFFFFFFFFFFFFFFFFF AND PUSH20 0xFFFFFFFFFFFFFFFFFFFFFFFFFFFFFFFFFFFFFFFF AND CALLER PUSH20 0xFFFFFFFFFFFFFFFFFFFFFFFFFFFFFFFFFFFFFFFF AND EQ PUSH2 0x4D1 JUMPI PUSH1 0x0 DUP1 REVERT JUMPDEST PUSH1 0x0 PUSH1 0x2 PUSH1 0x0 DUP4 PUSH20 0xFFFFFFFFFFFFFFFFFFFFFFFFFFFFFFFFFFFFFFFF AND PUSH20 0xFFFFFFFFFFFFFFFFFFFFFFFFFFFFFFFFFFFFFFFF AND DUP2 MSTORE PUSH1 0x20 ADD SWAP1 DUP2 MSTORE PUSH1 0x20 ADD PUSH1 0x0 KECCAK256 DUP2 SWAP1 SSTORE POP DUP1 PUSH20 0xFFFFFFFFFFFFFFFFFFFFFFFFFFFFFFFFFFFFFFFF AND PUSH2 0x8FC PUSH1 0x1 PUSH1 0x0 DUP5 PUSH20 0xFFFFFFFFFFFFFFFFFFFFFFFFFFFFFFFFFFFFFFFF AND PUSH20 0xFFFFFFFFFFFFFFFFFFFFFFFFFFFFFFFFFFFFFFFF AND DUP2 MSTORE PUSH1 0x20 ADD SWAP1 DUP2 MSTORE PUSH1 0x20 ADD PUSH1 0x0 KECCAK256 PUSH1 0x0 ADD SLOAD SWAP1 DUP2 ISZERO MUL SWAP1 PUSH1 0x40 MLOAD PUSH1 0x0 PUSH1 0x40 MLOAD DUP1 DUP4 SUB DUP2 DUP6 DUP9 DUP9 CALL SWAP4 POP POP POP POP ISZERO DUP1 ISZERO PUSH2 0x59E JUMPI RETURNDATASIZE PUSH1 0x0 DUP1 RETURNDATACOPY RETURNDATASIZE PUSH1 0x0 REVERT JUMPDEST POP PUSH1 0x0 PUSH1 0x1 PUSH1 0x0 DUP4 PUSH20 0xFFFFFFFFFFFFFFFFFFFFFFFFFFFFFFFFFFFFFFFF AND PUSH20 0xFFFFFFFFFFFFFFFFFFFFFFFFFFFFFFFFFFFFFFFF AND DUP2 MSTORE PUSH1 0x20 ADD SWAP1 DUP2 MSTORE PUSH1 0x20 ADD PUSH1 0x0 KECCAK256 PUSH1 0x0 ADD DUP2 SWAP1 SSTORE POP POP JUMP JUMPDEST PUSH1 0x1 PUSH1 0x2 PUSH1 0x0 CALLER PUSH20 0xFFFFFFFFFFFFFFFFFFFFFFFFFFFFFFFFFFFFFFFF AND PUSH20 0xFFFFFFFFFFFFFFFFFFFFFFFFFFFFFFFFFFFFFFFF AND DUP2 MSTORE PUSH1 0x20 ADD SWAP1 DUP2 MSTORE PUSH1 0x20 ADD PUSH1 0x0 KECCAK256 SLOAD EQ PUSH2 0x636 JUMPI PUSH1 0x0 DUP1 REVERT JUMPDEST PUSH1 0x1 PUSH1 0x2 PUSH1 0x0 DUP6 PUSH20 0xFFFFFFFFFFFFFFFFFFFFFFFFFFFFFFFFFFFFFFFF AND PUSH20 0xFFFFFFFFFFFFFFFFFFFFFFFFFFFFFFFFFFFFFFFF AND DUP2 MSTORE PUSH1 0x20 ADD SWAP1 DUP2 MSTORE PUSH1 0x20 ADD PUSH1 0x0 KECCAK256 SLOAD EQ PUSH2 0x682 JUMPI PUSH1 0x0 DUP1 REVERT JUMPDEST DUP1 PUSH1 0x1 PUSH1 0x0 CALLER PUSH20 0xFFFFFFFFFFFFFFFFFFFFFFFFFFFFFFFFFFFFFFFF AND PUSH20 0xFFFFFFFFFFFFFFFFFFFFFFFFFFFFFFFFFFFFFFFF AND DUP2 MSTORE PUSH1 0x20 ADD SWAP1 DUP2 MSTORE PUSH1 0x20 ADD PUSH1 0x0 KECCAK256 PUSH1 0x1 ADD DUP2 SWAP1 SSTORE POP DUP2 PUSH1 0x1 PUSH1 0x0 DUP6 PUSH20 0xFFFFFFFFFFFFFFFFFFFFFFFFFFFFFFFFFFFFFFFF AND PUSH20 0xFFFFFFFFFFFFFFFFFFFFFFFFFFFFFFFFFFFFFFFF AND DUP2 MSTORE PUSH1 0x20 ADD SWAP1 DUP2 MSTORE PUSH1 0x20 ADD PUSH1 0x0 KECCAK256 PUSH1 0x2 ADD DUP2 SWAP1 SSTORE POP POP POP POP JUMP JUMPDEST PUSH1 0x1 PUSH1 0x20 MSTORE DUP1 PUSH1 0x0 MSTORE PUSH1 0x40 PUSH1 0x0 KECCAK256 PUSH1 0x0 SWAP2 POP SWAP1 POP DUP1 PUSH1 0x0 ADD SLOAD SWAP1 DUP1 PUSH1 0x1 ADD SLOAD SWAP1 DUP1 PUSH1 0x2 ADD SLOAD SWAP1 POP DUP4 JUMP JUMPDEST PUSH1 0x1 PUSH1 0x2 PUSH1 0x0 CALLER PUSH20 0xFFFFFFFFFFFFFFFFFFFFFFFFFFFFFFFFFFFFFFFF AND PUSH20 0xFFFFFFFFFFFFFFFFFFFFFFFFFFFFFFFFFFFFFFFF AND DUP2 MSTORE PUSH1 0x20 ADD SWAP1 DUP2 MSTORE PUSH1 0x20 ADD PUSH1 0x0 KECCAK256 SLOAD EQ PUSH2 0x78B JUMPI PUSH1 0x0 DUP1 REVERT JUMPDEST PUSH1 0x1 PUSH1 0x2 PUSH1 0x0 DUP5 PUSH20 0xFFFFFFFFFFFFFFFFFFFFFFFFFFFFFFFFFFFFFFFF AND PUSH20 0xFFFFFFFFFFFFFFFFFFFFFFFFFFFFFFFFFFFFFFFF AND DUP2 MSTORE PUSH1 0x20 ADD SWAP1 DUP2 MSTORE PUSH1 0x20 ADD PUSH1 0x0 KECCAK256 SLOAD EQ PUSH2 0x7D7 JUMPI PUSH1 0x0 DUP1 REVERT JUMPDEST PUSH1 0x0 PUSH1 0x1 PUSH1 0x0 CALLER PUSH20 0xFFFFFFFFFFFFFFFFFFFFFFFFFFFFFFFFFFFFFFFF AND PUSH20 0xFFFFFFFFFFFFFFFFFFFFFFFFFFFFFFFFFFFFFFFF AND DUP2 MSTORE PUSH1 0x20 ADD SWAP1 DUP2 MSTORE PUSH1 0x20 ADD PUSH1 0x0 KECCAK256 PUSH1 0x1 ADD DUP2 SWAP1 SSTORE POP DUP1 PUSH1 0x1 PUSH1 0x0 CALLER PUSH20 0xFFFFFFFFFFFFFFFFFFFFFFFFFFFFFFFFFFFFFFFF AND PUSH20 0xFFFFFFFFFFFFFFFFFFFFFFFFFFFFFFFFFFFFFFFF AND DUP2 MSTORE PUSH1 0x20 ADD SWAP1 DUP2 MSTORE PUSH1 0x20 ADD PUSH1 0x0 KECCAK256 PUSH1 0x2 ADD DUP2 SWAP1 SSTORE POP POP POP JUMP INVALID LOG2 PUSH5 0x6970667358 0x22 SLT KECCAK256 SWAP5 JUMPDEST 0x4B MUL GASLIMIT 0xD8 0xFB 0xEA 0x21 0xAE JUMP 0x2C 0xD5 0xC2 MULMOD 0xB6 0xFC DUP13 0x4A 0xC1 KECCAK256 SWAP16 0xD3 0x2E CREATE 0x5E MOD PUSH1 0xDC 0xB6 ADDMOD DUP12 PUSH5 0x736F6C6343 STOP MOD STOP STOP CALLER "
				},
				"gasEstimates": {
					"creation": {
						"codeDepositCost": "441600",
						"executionCost": "61527",
						"totalCost": "503127"
					},
					"external": {
						"balanceDetails(address)": "2913",
						"register()": "40322",
						"request(address,uint256)": "27394",
						"response(address,uint256,uint256)": "42380",
						"settlePayment(address)": "infinite",
						"unregister(address)": "infinite"
					}
				},
				"methodIdentifiers": {
					"balanceDetails(address)": "a3aa1913",
					"register()": "1aa3a008",
					"request(address,uint256)": "c8c01a55",
					"response(address,uint256,uint256)": "6d1954e0",
					"settlePayment(address)": "2109dc88",
					"unregister(address)": "2ec2c246"
				}
			},
			"storageLayout": {
				"storage": [
					{
						"astId": 3,
						"contract": "Airlines.sol:Airlines",
						"label": "chairperson",
						"offset": 0,
						"slot": "0",
						"type": "t_address"
					},
					{
						"astId": 14,
						"contract": "Airlines.sol:Airlines",
						"label": "balanceDetails",
						"offset": 0,
						"slot": "1",
						"type": "t_mapping(t_address,t_struct(details)10_storage)"
					},
					{
						"astId": 18,
						"contract": "Airlines.sol:Airlines",
						"label": "membership",
						"offset": 0,
						"slot": "2",
						"type": "t_mapping(t_address,t_uint256)"
					}
				],
				"types": {
					"t_address": {
						"encoding": "inplace",
						"label": "address",
						"numberOfBytes": "20"
					},
					"t_mapping(t_address,t_struct(details)10_storage)": {
						"encoding": "mapping",
						"key": "t_address",
						"label": "mapping(address => struct Airlines.details)",
						"numberOfBytes": "32",
						"value": "t_struct(details)10_storage"
					},
					"t_mapping(t_address,t_uint256)": {
						"encoding": "mapping",
						"key": "t_address",
						"label": "mapping(address => uint256)",
						"numberOfBytes": "32",
						"value": "t_uint256"
					},
					"t_struct(details)10_storage": {
						"encoding": "inplace",
						"label": "struct Airlines.details",
						"members": [
							{
								"astId": 5,
								"contract": "Airlines.sol:Airlines",
								"label": "escrow",
								"offset": 0,
								"slot": "0",
								"type": "t_uint256"
							},
							{
								"astId": 7,
								"contract": "Airlines.sol:Airlines",
								"label": "status",
								"offset": 0,
								"slot": "1",
								"type": "t_uint256"
							},
							{
								"astId": 9,
								"contract": "Airlines.sol:Airlines",
								"label": "hashofDetails",
								"offset": 0,
								"slot": "2",
								"type": "t_uint256"
							}
						],
						"numberOfBytes": "96"
					},
					"t_uint256": {
						"encoding": "inplace",
						"label": "uint256",
						"numberOfBytes": "32"
					}
				}
			},
			"userdoc": {
				"methods": {}
			}
		}
	}
}