{
	"BallotV4.sol": {
		"BallotV4": {
			"abi": [
				{
					"inputs": [
						{
							"internalType": "uint256",
							"name": "numProposals",
							"type": "uint256"
						}
					],
					"stateMutability": "nonpayable",
					"type": "constructor"
				},
				{
					"inputs": [
						{
							"internalType": "enum BallotV4.Phase",
							"name": "x",
							"type": "uint8"
						}
					],
					"name": "changeState",
					"outputs": [],
					"stateMutability": "nonpayable",
					"type": "function"
				},
				{
					"inputs": [
						{
							"internalType": "address",
							"name": "voter",
							"type": "address"
						}
					],
					"name": "register",
					"outputs": [],
					"stateMutability": "nonpayable",
					"type": "function"
				},
				{
					"inputs": [],
					"name": "reqWinner",
					"outputs": [
						{
							"internalType": "uint256",
							"name": "winningProposal",
							"type": "uint256"
						}
					],
					"stateMutability": "view",
					"type": "function"
				},
				{
					"inputs": [],
					"name": "state",
					"outputs": [
						{
							"internalType": "enum BallotV4.Phase",
							"name": "",
							"type": "uint8"
						}
					],
					"stateMutability": "view",
					"type": "function"
				},
				{
					"inputs": [
						{
							"internalType": "uint256",
							"name": "toProposal",
							"type": "uint256"
						}
					],
					"name": "vote",
					"outputs": [],
					"stateMutability": "nonpayable",
					"type": "function"
				}
			],
			"devdoc": {
				"methods": {}
			},
			"evm": {
				"assembly": "    /* \"BallotV4.sol\":34:2057  contract BallotV4 {... */\n  mstore(0x40, 0x80)\n    /* \"BallotV4.sol\":390:400  Phase.Done */\n  0x03\n    /* \"BallotV4.sol\":369:400  Phase public state = Phase.Done */\n  dup1\n  exp(0x0100, 0x00)\n  dup2\n  sload\n  dup2\n  0xff\n  mul\n  not\n  and\n  swap1\n  dup4\n  0x03\n  dup2\n  gt\n  iszero\n  tag_1\n  jumpi\n  invalid\ntag_1:\n  mul\n  or\n  swap1\n  sstore\n  pop\n    /* \"BallotV4.sol\":618:958  constructor (uint numProposals) public  {... */\n  callvalue\n    /* \"--CODEGEN--\":8:17   */\n  dup1\n    /* \"--CODEGEN--\":5:7   */\n  iszero\n  tag_2\n  jumpi\n    /* \"--CODEGEN--\":30:31   */\n  0x00\n    /* \"--CODEGEN--\":27:28   */\n  dup1\n    /* \"--CODEGEN--\":20:32   */\n  revert\n    /* \"--CODEGEN--\":5:7   */\ntag_2:\n    /* \"BallotV4.sol\":618:958  constructor (uint numProposals) public  {... */\n  pop\n  mload(0x40)\n  sub(codesize, bytecodeSize)\n  dup1\n  bytecodeSize\n  dup4\n  codecopy\n  dup2\n  dup2\n  add\n  0x40\n  mstore\n    /* \"--CODEGEN--\":13:15   */\n  0x20\n    /* \"--CODEGEN--\":8:11   */\n  dup2\n    /* \"--CODEGEN--\":5:16   */\n  lt\n    /* \"--CODEGEN--\":2:4   */\n  iszero\n  tag_3\n  jumpi\n    /* \"--CODEGEN--\":29:30   */\n  0x00\n    /* \"--CODEGEN--\":26:27   */\n  dup1\n    /* \"--CODEGEN--\":19:31   */\n  revert\n    /* \"--CODEGEN--\":2:4   */\ntag_3:\n    /* \"BallotV4.sol\":618:958  constructor (uint numProposals) public  {... */\n  dup2\n  add\n  swap1\n  dup1\n  dup1\n  mload\n  swap1\n  0x20\n  add\n  swap1\n  swap3\n  swap2\n  swap1\n  pop\n  pop\n  pop\n    /* \"BallotV4.sol\":682:692  msg.sender */\n  caller\n    /* \"BallotV4.sol\":668:679  chairperson */\n  0x00\n  dup1\n    /* \"BallotV4.sol\":668:692  chairperson = msg.sender */\n  0x0100\n  exp\n  dup2\n  sload\n  dup2\n  0xffffffffffffffffffffffffffffffffffffffff\n  mul\n  not\n  and\n  swap1\n  dup4\n  0xffffffffffffffffffffffffffffffffffffffff\n  and\n  mul\n  or\n  swap1\n  sstore\n  pop\n    /* \"BallotV4.sol\":731:732  2 */\n  0x02\n    /* \"BallotV4.sol\":702:708  voters */\n  0x01\n    /* \"BallotV4.sol\":702:721  voters[chairperson] */\n  0x00\n    /* \"BallotV4.sol\":709:720  chairperson */\n  dup1\n  0x00\n  swap1\n  sload\n  swap1\n  0x0100\n  exp\n  swap1\n  div\n  0xffffffffffffffffffffffffffffffffffffffff\n  and\n    /* \"BallotV4.sol\":702:721  voters[chairperson] */\n  0xffffffffffffffffffffffffffffffffffffffff\n  and\n  0xffffffffffffffffffffffffffffffffffffffff\n  and\n  dup2\n  mstore\n  0x20\n  add\n  swap1\n  dup2\n  mstore\n  0x20\n  add\n  0x00\n  keccak256\n    /* \"BallotV4.sol\":702:728  voters[chairperson].weight */\n  0x00\n  add\n    /* \"BallotV4.sol\":702:732  voters[chairperson].weight = 2 */\n  dup2\n  swap1\n  sstore\n  pop\n    /* \"BallotV4.sol\":839:848  uint prop */\n  0x00\n    /* \"BallotV4.sol\":851:852  0 */\n  dup1\n    /* \"BallotV4.sol\":839:852  uint prop = 0 */\n  swap1\n  pop\n    /* \"BallotV4.sol\":834:923  for (uint prop = 0; prop < numProposals; prop ++)... */\ntag_6:\n    /* \"BallotV4.sol\":861:873  numProposals */\n  dup2\n    /* \"BallotV4.sol\":854:858  prop */\n  dup2\n    /* \"BallotV4.sol\":854:873  prop < numProposals */\n  lt\n    /* \"BallotV4.sol\":834:923  for (uint prop = 0; prop < numProposals; prop ++)... */\n  iszero\n  tag_7\n  jumpi\n    /* \"BallotV4.sol\":896:905  proposals */\n  0x02\n    /* \"BallotV4.sol\":911:922  Proposal(0) */\n  mload(0x40)\n  dup1\n  0x20\n  add\n  0x40\n  mstore\n  dup1\n    /* \"BallotV4.sol\":920:921  0 */\n  0x00\n    /* \"BallotV4.sol\":911:922  Proposal(0) */\n  dup2\n  mstore\n  pop\n    /* \"BallotV4.sol\":896:923  proposals.push(Proposal(0)) */\n  swap1\n  dup1\n    /* \"--CODEGEN--\":39:40   */\n  0x01\n    /* \"--CODEGEN--\":33:36   */\n  dup2\n    /* \"--CODEGEN--\":27:37   */\n  sload\n    /* \"--CODEGEN--\":23:41   */\n  add\n    /* \"--CODEGEN--\":57:67   */\n  dup1\n    /* \"--CODEGEN--\":52:55   */\n  dup3\n    /* \"--CODEGEN--\":45:68   */\n  sstore\n    /* \"--CODEGEN--\":79:89   */\n  dup1\n    /* \"--CODEGEN--\":72:89   */\n  swap2\n  pop\n    /* \"--CODEGEN--\":0:93   */\n  pop\n    /* \"BallotV4.sol\":896:923  proposals.push(Proposal(0)) */\n  0x01\n  swap1\n  sub\n  swap1\n  0x00\n  mstore\n  keccak256(0x00, 0x20)\n  add\n  0x00\n  swap1\n  swap2\n  swap1\n  swap2\n  swap1\n  swap2\n  pop\n  0x00\n  dup3\n  add\n  mload\n  dup2\n  0x00\n  add\n  sstore\n  pop\n  pop\n    /* \"BallotV4.sol\":875:882  prop ++ */\n  dup1\n  dup1\n  0x01\n  add\n  swap2\n  pop\n  pop\n    /* \"BallotV4.sol\":834:923  for (uint prop = 0; prop < numProposals; prop ++)... */\n  jump(tag_6)\ntag_7:\n  pop\n    /* \"BallotV4.sol\":941:951  Phase.Regs */\n  0x01\n    /* \"BallotV4.sol\":933:938  state */\n  0x03\n  0x00\n    /* \"BallotV4.sol\":933:951  state = Phase.Regs */\n  0x0100\n  exp\n  dup2\n  sload\n  dup2\n  0xff\n  mul\n  not\n  and\n  swap1\n  dup4\n  0x03\n  dup2\n  gt\n  iszero\n  tag_10\n  jumpi\n  invalid\ntag_10:\n  mul\n  or\n  swap1\n  sstore\n  pop\n    /* \"BallotV4.sol\":618:958  constructor (uint numProposals) public  {... */\n  pop\n    /* \"BallotV4.sol\":34:2057  contract BallotV4 {... */\n  dataSize(sub_0)\n  dup1\n  dataOffset(sub_0)\n  0x00\n  codecopy\n  0x00\n  return\nstop\n\nsub_0: assembly {\n        /* \"BallotV4.sol\":34:2057  contract BallotV4 {... */\n      mstore(0x40, 0x80)\n      callvalue\n        /* \"--CODEGEN--\":8:17   */\n      dup1\n        /* \"--CODEGEN--\":5:7   */\n      iszero\n      tag_1\n      jumpi\n        /* \"--CODEGEN--\":30:31   */\n      0x00\n        /* \"--CODEGEN--\":27:28   */\n      dup1\n        /* \"--CODEGEN--\":20:32   */\n      revert\n        /* \"--CODEGEN--\":5:7   */\n    tag_1:\n        /* \"BallotV4.sol\":34:2057  contract BallotV4 {... */\n      pop\n      jumpi(tag_2, lt(calldatasize, 0x04))\n      shr(0xe0, calldataload(0x00))\n      dup1\n      0x0121b93f\n      eq\n      tag_3\n      jumpi\n      dup1\n      0x268f1153\n      eq\n      tag_4\n      jumpi\n      dup1\n      0x4420e486\n      eq\n      tag_5\n      jumpi\n      dup1\n      0x508b30c9\n      eq\n      tag_6\n      jumpi\n      dup1\n      0xc19d93fb\n      eq\n      tag_7\n      jumpi\n    tag_2:\n      0x00\n      dup1\n      revert\n        /* \"BallotV4.sol\":1282:1634  function vote(uint toProposal) public validPhase(Phase.Vote)  {... */\n    tag_3:\n      tag_8\n      0x04\n      dup1\n      calldatasize\n      sub\n        /* \"--CODEGEN--\":13:15   */\n      0x20\n        /* \"--CODEGEN--\":8:11   */\n      dup2\n        /* \"--CODEGEN--\":5:16   */\n      lt\n        /* \"--CODEGEN--\":2:4   */\n      iszero\n      tag_9\n      jumpi\n        /* \"--CODEGEN--\":29:30   */\n      0x00\n        /* \"--CODEGEN--\":26:27   */\n      dup1\n        /* \"--CODEGEN--\":19:31   */\n      revert\n        /* \"--CODEGEN--\":2:4   */\n    tag_9:\n        /* \"BallotV4.sol\":1282:1634  function vote(uint toProposal) public validPhase(Phase.Vote)  {... */\n      dup2\n      add\n      swap1\n      dup1\n      dup1\n      calldataload\n      swap1\n      0x20\n      add\n      swap1\n      swap3\n      swap2\n      swap1\n      pop\n      pop\n      pop\n      tag_10\n      jump\t// in\n    tag_8:\n      stop\n        /* \"BallotV4.sol\":969:1090  function changeState(Phase x) onlyChair public {... */\n    tag_4:\n      tag_11\n      0x04\n      dup1\n      calldatasize\n      sub\n        /* \"--CODEGEN--\":13:15   */\n      0x20\n        /* \"--CODEGEN--\":8:11   */\n      dup2\n        /* \"--CODEGEN--\":5:16   */\n      lt\n        /* \"--CODEGEN--\":2:4   */\n      iszero\n      tag_12\n      jumpi\n        /* \"--CODEGEN--\":29:30   */\n      0x00\n        /* \"--CODEGEN--\":26:27   */\n      dup1\n        /* \"--CODEGEN--\":19:31   */\n      revert\n        /* \"--CODEGEN--\":2:4   */\n    tag_12:\n        /* \"BallotV4.sol\":969:1090  function changeState(Phase x) onlyChair public {... */\n      dup2\n      add\n      swap1\n      dup1\n      dup1\n      calldataload\n      0xff\n      and\n      swap1\n      0x20\n      add\n      swap1\n      swap3\n      swap2\n      swap1\n      pop\n      pop\n      pop\n      tag_13\n      jump\t// in\n    tag_11:\n      stop\n        /* \"BallotV4.sol\":1100:1272  function register(address voter) public validPhase(Phase.Regs) onlyChair {... */\n    tag_5:\n      tag_14\n      0x04\n      dup1\n      calldatasize\n      sub\n        /* \"--CODEGEN--\":13:15   */\n      0x20\n        /* \"--CODEGEN--\":8:11   */\n      dup2\n        /* \"--CODEGEN--\":5:16   */\n      lt\n        /* \"--CODEGEN--\":2:4   */\n      iszero\n      tag_15\n      jumpi\n        /* \"--CODEGEN--\":29:30   */\n      0x00\n        /* \"--CODEGEN--\":26:27   */\n      dup1\n        /* \"--CODEGEN--\":19:31   */\n      revert\n        /* \"--CODEGEN--\":2:4   */\n    tag_15:\n        /* \"BallotV4.sol\":1100:1272  function register(address voter) public validPhase(Phase.Regs) onlyChair {... */\n      dup2\n      add\n      swap1\n      dup1\n      dup1\n      calldataload\n      0xffffffffffffffffffffffffffffffffffffffff\n      and\n      swap1\n      0x20\n      add\n      swap1\n      swap3\n      swap2\n      swap1\n      pop\n      pop\n      pop\n      tag_16\n      jump\t// in\n    tag_14:\n      stop\n        /* \"BallotV4.sol\":1640:2055  function reqWinner() public validPhase(Phase.Done) view returns (uint winningProposal) {... */\n    tag_6:\n      tag_17\n      tag_18\n      jump\t// in\n    tag_17:\n      mload(0x40)\n      dup1\n      dup3\n      dup2\n      mstore\n      0x20\n      add\n      swap2\n      pop\n      pop\n      mload(0x40)\n      dup1\n      swap2\n      sub\n      swap1\n      return\n        /* \"BallotV4.sol\":369:400  Phase public state = Phase.Done */\n    tag_7:\n      tag_19\n      tag_20\n      jump\t// in\n    tag_19:\n      mload(0x40)\n      dup1\n      dup3\n      0x03\n      dup2\n      gt\n      iszero\n      tag_21\n      jumpi\n      invalid\n    tag_21:\n      0xff\n      and\n      dup2\n      mstore\n      0x20\n      add\n      swap2\n      pop\n      pop\n      mload(0x40)\n      dup1\n      swap2\n      sub\n      swap1\n      return\n        /* \"BallotV4.sol\":1282:1634  function vote(uint toProposal) public validPhase(Phase.Vote)  {... */\n    tag_10:\n        /* \"BallotV4.sol\":1331:1341  Phase.Vote */\n      0x02\n        /* \"BallotV4.sol\":490:498  reqPhase */\n      dup1\n        /* \"BallotV4.sol\":481:498  state == reqPhase */\n      0x03\n      dup2\n      gt\n      iszero\n      tag_23\n      jumpi\n      invalid\n    tag_23:\n        /* \"BallotV4.sol\":481:486  state */\n      0x03\n      0x00\n      swap1\n      sload\n      swap1\n      0x0100\n      exp\n      swap1\n      div\n      0xff\n      and\n        /* \"BallotV4.sol\":481:498  state == reqPhase */\n      0x03\n      dup2\n      gt\n      iszero\n      tag_24\n      jumpi\n      invalid\n    tag_24:\n      eq\n        /* \"BallotV4.sol\":473:499  require(state == reqPhase) */\n      tag_25\n      jumpi\n      0x00\n      dup1\n      revert\n    tag_25:\n        /* \"BallotV4.sol\":1361:1380  Voter memory sender */\n      tag_27\n      tag_28\n      jump\t// in\n    tag_27:\n        /* \"BallotV4.sol\":1383:1389  voters */\n      0x01\n        /* \"BallotV4.sol\":1383:1401  voters[msg.sender] */\n      0x00\n        /* \"BallotV4.sol\":1390:1400  msg.sender */\n      caller\n        /* \"BallotV4.sol\":1383:1401  voters[msg.sender] */\n      0xffffffffffffffffffffffffffffffffffffffff\n      and\n      0xffffffffffffffffffffffffffffffffffffffff\n      and\n      dup2\n      mstore\n      0x20\n      add\n      swap1\n      dup2\n      mstore\n      0x20\n      add\n      0x00\n      keccak256\n        /* \"BallotV4.sol\":1361:1401  Voter memory sender = voters[msg.sender] */\n      mload(0x40)\n      dup1\n      0x60\n      add\n      0x40\n      mstore\n      swap1\n      dup2\n      0x00\n      dup3\n      add\n      sload\n      dup2\n      mstore\n      0x20\n      add\n      0x01\n      dup3\n      add\n      0x00\n      swap1\n      sload\n      swap1\n      0x0100\n      exp\n      swap1\n      div\n      0xff\n      and\n      iszero\n      iszero\n      iszero\n      iszero\n      dup2\n      mstore\n      0x20\n      add\n      0x02\n      dup3\n      add\n      sload\n      dup2\n      mstore\n      pop\n      pop\n      swap1\n      pop\n        /* \"BallotV4.sol\":1430:1436  sender */\n      dup1\n        /* \"BallotV4.sol\":1430:1442  sender.voted */\n      0x20\n      add\n      mload\n        /* \"BallotV4.sol\":1429:1442  !sender.voted */\n      iszero\n        /* \"BallotV4.sol\":1420:1443  require (!sender.voted) */\n      tag_29\n      jumpi\n      0x00\n      dup1\n      revert\n    tag_29:\n        /* \"BallotV4.sol\":1476:1485  proposals */\n      0x02\n        /* \"BallotV4.sol\":1476:1492  proposals.length */\n      dup1\n      sload\n      swap1\n      pop\n        /* \"BallotV4.sol\":1463:1473  toProposal */\n      dup4\n        /* \"BallotV4.sol\":1463:1492  toProposal < proposals.length */\n      lt\n        /* \"BallotV4.sol\":1454:1493  require (toProposal < proposals.length) */\n      tag_30\n      jumpi\n      0x00\n      dup1\n      revert\n    tag_30:\n        /* \"BallotV4.sol\":1528:1532  true */\n      0x01\n        /* \"BallotV4.sol\":1513:1519  sender */\n      dup2\n        /* \"BallotV4.sol\":1513:1525  sender.voted */\n      0x20\n      add\n        /* \"BallotV4.sol\":1513:1532  sender.voted = true */\n      swap1\n      iszero\n      iszero\n      swap1\n      dup2\n      iszero\n      iszero\n      dup2\n      mstore\n      pop\n      pop\n        /* \"BallotV4.sol\":1556:1566  toProposal */\n      dup3\n        /* \"BallotV4.sol\":1542:1548  sender */\n      dup2\n        /* \"BallotV4.sol\":1542:1553  sender.vote */\n      0x40\n      add\n        /* \"BallotV4.sol\":1542:1566  sender.vote = toProposal */\n      dup2\n      dup2\n      mstore\n      pop\n      pop\n        /* \"BallotV4.sol\":1614:1620  sender */\n      dup1\n        /* \"BallotV4.sol\":1614:1627  sender.weight */\n      0x00\n      add\n      mload\n        /* \"BallotV4.sol\":1579:1588  proposals */\n      0x02\n        /* \"BallotV4.sol\":1589:1599  toProposal */\n      dup5\n        /* \"BallotV4.sol\":1579:1600  proposals[toProposal] */\n      dup2\n      sload\n      dup2\n      lt\n      tag_31\n      jumpi\n      invalid\n    tag_31:\n      swap1\n      0x00\n      mstore\n      keccak256(0x00, 0x20)\n      add\n        /* \"BallotV4.sol\":1579:1610  proposals[toProposal].voteCount */\n      0x00\n      add\n      0x00\n        /* \"BallotV4.sol\":1579:1627  proposals[toProposal].voteCount += sender.weight */\n      dup3\n      dup3\n      sload\n      add\n      swap3\n      pop\n      pop\n      dup2\n      swap1\n      sstore\n      pop\n        /* \"BallotV4.sol\":508:509  _ */\n      pop\n        /* \"BallotV4.sol\":1282:1634  function vote(uint toProposal) public validPhase(Phase.Vote)  {... */\n      pop\n      pop\n      jump\t// out\n        /* \"BallotV4.sol\":969:1090  function changeState(Phase x) onlyChair public {... */\n    tag_13:\n        /* \"BallotV4.sol\":578:589  chairperson */\n      0x00\n      dup1\n      swap1\n      sload\n      swap1\n      0x0100\n      exp\n      swap1\n      div\n      0xffffffffffffffffffffffffffffffffffffffff\n      and\n        /* \"BallotV4.sol\":564:589  msg.sender == chairperson */\n      0xffffffffffffffffffffffffffffffffffffffff\n      and\n        /* \"BallotV4.sol\":564:574  msg.sender */\n      caller\n        /* \"BallotV4.sol\":564:589  msg.sender == chairperson */\n      0xffffffffffffffffffffffffffffffffffffffff\n      and\n      eq\n        /* \"BallotV4.sol\":556:590  require(msg.sender == chairperson) */\n      tag_34\n      jumpi\n      0x00\n      dup1\n      revert\n    tag_34:\n        /* \"BallotV4.sol\":1048:1053  state */\n      0x03\n      0x00\n      swap1\n      sload\n      swap1\n      0x0100\n      exp\n      swap1\n      div\n      0xff\n      and\n        /* \"BallotV4.sol\":1044:1053  x > state */\n      0x03\n      dup2\n      gt\n      iszero\n      tag_36\n      jumpi\n      invalid\n    tag_36:\n        /* \"BallotV4.sol\":1044:1045  x */\n      dup2\n        /* \"BallotV4.sol\":1044:1053  x > state */\n      0x03\n      dup2\n      gt\n      iszero\n      tag_37\n      jumpi\n      invalid\n    tag_37:\n      gt\n        /* \"BallotV4.sol\":1035:1055  require (x > state ) */\n      tag_38\n      jumpi\n      0x00\n      dup1\n      revert\n    tag_38:\n        /* \"BallotV4.sol\":1081:1082  x */\n      dup1\n        /* \"BallotV4.sol\":1073:1078  state */\n      0x03\n      0x00\n        /* \"BallotV4.sol\":1073:1082  state = x */\n      0x0100\n      exp\n      dup2\n      sload\n      dup2\n      0xff\n      mul\n      not\n      and\n      swap1\n      dup4\n      0x03\n      dup2\n      gt\n      iszero\n      tag_39\n      jumpi\n      invalid\n    tag_39:\n      mul\n      or\n      swap1\n      sstore\n      pop\n        /* \"BallotV4.sol\":969:1090  function changeState(Phase x) onlyChair public {... */\n      pop\n      jump\t// out\n        /* \"BallotV4.sol\":1100:1272  function register(address voter) public validPhase(Phase.Regs) onlyChair {... */\n    tag_16:\n        /* \"BallotV4.sol\":1151:1161  Phase.Regs */\n      0x01\n        /* \"BallotV4.sol\":490:498  reqPhase */\n      dup1\n        /* \"BallotV4.sol\":481:498  state == reqPhase */\n      0x03\n      dup2\n      gt\n      iszero\n      tag_41\n      jumpi\n      invalid\n    tag_41:\n        /* \"BallotV4.sol\":481:486  state */\n      0x03\n      0x00\n      swap1\n      sload\n      swap1\n      0x0100\n      exp\n      swap1\n      div\n      0xff\n      and\n        /* \"BallotV4.sol\":481:498  state == reqPhase */\n      0x03\n      dup2\n      gt\n      iszero\n      tag_42\n      jumpi\n      invalid\n    tag_42:\n      eq\n        /* \"BallotV4.sol\":473:499  require(state == reqPhase) */\n      tag_43\n      jumpi\n      0x00\n      dup1\n      revert\n    tag_43:\n        /* \"BallotV4.sol\":578:589  chairperson */\n      0x00\n      dup1\n      swap1\n      sload\n      swap1\n      0x0100\n      exp\n      swap1\n      div\n      0xffffffffffffffffffffffffffffffffffffffff\n      and\n        /* \"BallotV4.sol\":564:589  msg.sender == chairperson */\n      0xffffffffffffffffffffffffffffffffffffffff\n      and\n        /* \"BallotV4.sol\":564:574  msg.sender */\n      caller\n        /* \"BallotV4.sol\":564:589  msg.sender == chairperson */\n      0xffffffffffffffffffffffffffffffffffffffff\n      and\n      eq\n        /* \"BallotV4.sol\":556:590  require(msg.sender == chairperson) */\n      tag_45\n      jumpi\n      0x00\n      dup1\n      revert\n    tag_45:\n        /* \"BallotV4.sol\":1202:1208  voters */\n      0x01\n        /* \"BallotV4.sol\":1202:1215  voters[voter] */\n      0x00\n        /* \"BallotV4.sol\":1209:1214  voter */\n      dup4\n        /* \"BallotV4.sol\":1202:1215  voters[voter] */\n      0xffffffffffffffffffffffffffffffffffffffff\n      and\n      0xffffffffffffffffffffffffffffffffffffffff\n      and\n      dup2\n      mstore\n      0x20\n      add\n      swap1\n      dup2\n      mstore\n      0x20\n      add\n      0x00\n      keccak256\n        /* \"BallotV4.sol\":1202:1221  voters[voter].voted */\n      0x01\n      add\n      0x00\n      swap1\n      sload\n      swap1\n      0x0100\n      exp\n      swap1\n      div\n      0xff\n      and\n        /* \"BallotV4.sol\":1200:1221  ! voters[voter].voted */\n      iszero\n        /* \"BallotV4.sol\":1191:1222  require (! voters[voter].voted) */\n      tag_47\n      jumpi\n      0x00\n      dup1\n      revert\n    tag_47:\n        /* \"BallotV4.sol\":1255:1256  1 */\n      0x01\n        /* \"BallotV4.sol\":1232:1238  voters */\n      dup1\n        /* \"BallotV4.sol\":1232:1245  voters[voter] */\n      0x00\n        /* \"BallotV4.sol\":1239:1244  voter */\n      dup5\n        /* \"BallotV4.sol\":1232:1245  voters[voter] */\n      0xffffffffffffffffffffffffffffffffffffffff\n      and\n      0xffffffffffffffffffffffffffffffffffffffff\n      and\n      dup2\n      mstore\n      0x20\n      add\n      swap1\n      dup2\n      mstore\n      0x20\n      add\n      0x00\n      keccak256\n        /* \"BallotV4.sol\":1232:1252  voters[voter].weight */\n      0x00\n      add\n        /* \"BallotV4.sol\":1232:1256  voters[voter].weight = 1 */\n      dup2\n      swap1\n      sstore\n      pop\n        /* \"BallotV4.sol\":1100:1272  function register(address voter) public validPhase(Phase.Regs) onlyChair {... */\n      pop\n      pop\n      jump\t// out\n        /* \"BallotV4.sol\":1640:2055  function reqWinner() public validPhase(Phase.Done) view returns (uint winningProposal) {... */\n    tag_18:\n        /* \"BallotV4.sol\":1705:1725  uint winningProposal */\n      0x00\n        /* \"BallotV4.sol\":1679:1689  Phase.Done */\n      0x03\n        /* \"BallotV4.sol\":490:498  reqPhase */\n      dup1\n        /* \"BallotV4.sol\":481:498  state == reqPhase */\n      0x03\n      dup2\n      gt\n      iszero\n      tag_49\n      jumpi\n      invalid\n    tag_49:\n        /* \"BallotV4.sol\":481:486  state */\n      0x03\n      0x00\n      swap1\n      sload\n      swap1\n      0x0100\n      exp\n      swap1\n      div\n      0xff\n      and\n        /* \"BallotV4.sol\":481:498  state == reqPhase */\n      0x03\n      dup2\n      gt\n      iszero\n      tag_50\n      jumpi\n      invalid\n    tag_50:\n      eq\n        /* \"BallotV4.sol\":473:499  require(state == reqPhase) */\n      tag_51\n      jumpi\n      0x00\n      dup1\n      revert\n    tag_51:\n        /* \"BallotV4.sol\":1745:1766  uint winningVoteCount */\n      0x00\n        /* \"BallotV4.sol\":1769:1770  0 */\n      dup1\n        /* \"BallotV4.sol\":1745:1770  uint winningVoteCount = 0 */\n      swap1\n      pop\n        /* \"BallotV4.sol\":1785:1794  uint prop */\n      0x00\n        /* \"BallotV4.sol\":1797:1798  0 */\n      dup1\n        /* \"BallotV4.sol\":1785:1798  uint prop = 0 */\n      swap1\n      pop\n        /* \"BallotV4.sol\":1780:2013  for (uint prop = 0; prop < proposals.length; prop++) ... */\n    tag_53:\n        /* \"BallotV4.sol\":1807:1816  proposals */\n      0x02\n        /* \"BallotV4.sol\":1807:1823  proposals.length */\n      dup1\n      sload\n      swap1\n      pop\n        /* \"BallotV4.sol\":1800:1804  prop */\n      dup2\n        /* \"BallotV4.sol\":1800:1823  prop < proposals.length */\n      lt\n        /* \"BallotV4.sol\":1780:2013  for (uint prop = 0; prop < proposals.length; prop++) ... */\n      iszero\n      tag_54\n      jumpi\n        /* \"BallotV4.sol\":1878:1894  winningVoteCount */\n      dup2\n        /* \"BallotV4.sol\":1850:1859  proposals */\n      0x02\n        /* \"BallotV4.sol\":1860:1864  prop */\n      dup3\n        /* \"BallotV4.sol\":1850:1865  proposals[prop] */\n      dup2\n      sload\n      dup2\n      lt\n      tag_56\n      jumpi\n      invalid\n    tag_56:\n      swap1\n      0x00\n      mstore\n      keccak256(0x00, 0x20)\n      add\n        /* \"BallotV4.sol\":1850:1875  proposals[prop].voteCount */\n      0x00\n      add\n      sload\n        /* \"BallotV4.sol\":1850:1894  proposals[prop].voteCount > winningVoteCount */\n      gt\n        /* \"BallotV4.sol\":1846:2013  if (proposals[prop].voteCount > winningVoteCount) {... */\n      iszero\n      tag_58\n      jumpi\n        /* \"BallotV4.sol\":1933:1942  proposals */\n      0x02\n        /* \"BallotV4.sol\":1943:1947  prop */\n      dup2\n        /* \"BallotV4.sol\":1933:1948  proposals[prop] */\n      dup2\n      sload\n      dup2\n      lt\n      tag_59\n      jumpi\n      invalid\n    tag_59:\n      swap1\n      0x00\n      mstore\n      keccak256(0x00, 0x20)\n      add\n        /* \"BallotV4.sol\":1933:1958  proposals[prop].voteCount */\n      0x00\n      add\n      sload\n        /* \"BallotV4.sol\":1914:1958  winningVoteCount = proposals[prop].voteCount */\n      swap2\n      pop\n        /* \"BallotV4.sol\":1994:1998  prop */\n      dup1\n        /* \"BallotV4.sol\":1976:1998  winningProposal = prop */\n      swap4\n      pop\n        /* \"BallotV4.sol\":1846:2013  if (proposals[prop].voteCount > winningVoteCount) {... */\n    tag_58:\n        /* \"BallotV4.sol\":1825:1831  prop++ */\n      dup1\n      dup1\n      0x01\n      add\n      swap2\n      pop\n      pop\n        /* \"BallotV4.sol\":1780:2013  for (uint prop = 0; prop < proposals.length; prop++) ... */\n      jump(tag_53)\n    tag_54:\n      pop\n        /* \"BallotV4.sol\":2046:2047  3 */\n      0x03\n        /* \"BallotV4.sol\":2028:2044  winningVoteCount */\n      dup2\n        /* \"BallotV4.sol\":2028:2047  winningVoteCount>=3 */\n      lt\n      iszero\n        /* \"BallotV4.sol\":2021:2048  assert(winningVoteCount>=3) */\n      tag_61\n      jumpi\n      invalid\n    tag_61:\n        /* \"BallotV4.sol\":508:509  _ */\n      pop\n        /* \"BallotV4.sol\":1640:2055  function reqWinner() public validPhase(Phase.Done) view returns (uint winningProposal) {... */\n      pop\n      swap1\n      jump\t// out\n        /* \"BallotV4.sol\":369:400  Phase public state = Phase.Done */\n    tag_20:\n      0x03\n      0x00\n      swap1\n      sload\n      swap1\n      0x0100\n      exp\n      swap1\n      div\n      0xff\n      and\n      dup2\n      jump\t// out\n        /* \"BallotV4.sol\":34:2057  contract BallotV4 {... */\n    tag_28:\n      mload(0x40)\n      dup1\n      0x60\n      add\n      0x40\n      mstore\n      dup1\n      0x00\n      dup2\n      mstore\n      0x20\n      add\n      iszero(iszero(0x00))\n      dup2\n      mstore\n      0x20\n      add\n      0x00\n      dup2\n      mstore\n      pop\n      swap1\n      jump\t// out\n\n    auxdata: 0xa2646970667358221220b2db0a5400044b1da33af86bdefc540c7a91aa9867a11cfdd92c8b0ebc69830e64736f6c63430006000033\n}\n",
				"bytecode": {
					"linkReferences": {},
					"object": "608060405260038060006101000a81548160ff0219169083600381111561002257fe5b021790555034801561003357600080fd5b506040516107093803806107098339818101604052602081101561005657600080fd5b8101908080519060200190929190505050336000806101000a81548173ffffffffffffffffffffffffffffffffffffffff021916908373ffffffffffffffffffffffffffffffffffffffff1602179055506002600160008060009054906101000a900473ffffffffffffffffffffffffffffffffffffffff1673ffffffffffffffffffffffffffffffffffffffff1673ffffffffffffffffffffffffffffffffffffffff1681526020019081526020016000206000018190555060008090505b8181101561016e57600260405180602001604052806000815250908060018154018082558091505060019003906000526020600020016000909190919091506000820151816000015550508080600101915050610116565b506001600360006101000a81548160ff0219169083600381111561018e57fe5b021790555050610566806101a36000396000f3fe608060405234801561001057600080fd5b50600436106100575760003560e01c80630121b93f1461005c578063268f11531461008a5780634420e486146100bb578063508b30c9146100ff578063c19d93fb1461011d575b600080fd5b6100886004803603602081101561007257600080fd5b8101908080359060200190929190505050610149565b005b6100b9600480360360208110156100a057600080fd5b81019080803560ff16906020019092919050505061026b565b005b6100fd600480360360208110156100d157600080fd5b81019080803573ffffffffffffffffffffffffffffffffffffffff16906020019092919050505061031b565b005b61010761044c565b6040518082815260200191505060405180910390f35b6101256104fa565b6040518082600381111561013557fe5b60ff16815260200191505060405180910390f35b600280600381111561015757fe5b600360009054906101000a900460ff16600381111561017257fe5b1461017c57600080fd5b61018461050d565b600160003373ffffffffffffffffffffffffffffffffffffffff1673ffffffffffffffffffffffffffffffffffffffff168152602001908152602001600020604051806060016040529081600082015481526020016001820160009054906101000a900460ff16151515158152602001600282015481525050905080602001511561020e57600080fd5b600280549050831061021f57600080fd5b60018160200190151590811515815250508281604001818152505080600001516002848154811061024c57fe5b9060005260206000200160000160008282540192505081905550505050565b6000809054906101000a900473ffffffffffffffffffffffffffffffffffffffff1673ffffffffffffffffffffffffffffffffffffffff163373ffffffffffffffffffffffffffffffffffffffff16146102c457600080fd5b600360009054906101000a900460ff1660038111156102df57fe5b8160038111156102eb57fe5b116102f557600080fd5b80600360006101000a81548160ff0219169083600381111561031357fe5b021790555050565b600180600381111561032957fe5b600360009054906101000a900460ff16600381111561034457fe5b1461034e57600080fd5b6000809054906101000a900473ffffffffffffffffffffffffffffffffffffffff1673ffffffffffffffffffffffffffffffffffffffff163373ffffffffffffffffffffffffffffffffffffffff16146103a757600080fd5b600160008373ffffffffffffffffffffffffffffffffffffffff1673ffffffffffffffffffffffffffffffffffffffff16815260200190815260200160002060010160009054906101000a900460ff161561040157600080fd5b60018060008473ffffffffffffffffffffffffffffffffffffffff1673ffffffffffffffffffffffffffffffffffffffff168152602001908152602001600020600001819055505050565b6000600380600381111561045c57fe5b600360009054906101000a900460ff16600381111561047757fe5b1461048157600080fd5b600080905060008090505b6002805490508110156104e95781600282815481106104a757fe5b906000526020600020016000015411156104dc57600281815481106104c857fe5b906000526020600020016000015491508093505b808060010191505061048c565b5060038110156104f557fe5b505090565b600360009054906101000a900460ff1681565b60405180606001604052806000815260200160001515815260200160008152509056fea2646970667358221220b2db0a5400044b1da33af86bdefc540c7a91aa9867a11cfdd92c8b0ebc69830e64736f6c63430006000033",
					"opcodes": "PUSH1 0x80 PUSH1 0x40 MSTORE PUSH1 0x3 DUP1 PUSH1 0x0 PUSH2 0x100 EXP DUP2 SLOAD DUP2 PUSH1 0xFF MUL NOT AND SWAP1 DUP4 PUSH1 0x3 DUP2 GT ISZERO PUSH2 0x22 JUMPI INVALID JUMPDEST MUL OR SWAP1 SSTORE POP CALLVALUE DUP1 ISZERO PUSH2 0x33 JUMPI PUSH1 0x0 DUP1 REVERT JUMPDEST POP PUSH1 0x40 MLOAD PUSH2 0x709 CODESIZE SUB DUP1 PUSH2 0x709 DUP4 CODECOPY DUP2 DUP2 ADD PUSH1 0x40 MSTORE PUSH1 0x20 DUP2 LT ISZERO PUSH2 0x56 JUMPI PUSH1 0x0 DUP1 REVERT JUMPDEST DUP2 ADD SWAP1 DUP1 DUP1 MLOAD SWAP1 PUSH1 0x20 ADD SWAP1 SWAP3 SWAP2 SWAP1 POP POP POP CALLER PUSH1 0x0 DUP1 PUSH2 0x100 EXP DUP2 SLOAD DUP2 PUSH20 0xFFFFFFFFFFFFFFFFFFFFFFFFFFFFFFFFFFFFFFFF MUL NOT AND SWAP1 DUP4 PUSH20 0xFFFFFFFFFFFFFFFFFFFFFFFFFFFFFFFFFFFFFFFF AND MUL OR SWAP1 SSTORE POP PUSH1 0x2 PUSH1 0x1 PUSH1 0x0 DUP1 PUSH1 0x0 SWAP1 SLOAD SWAP1 PUSH2 0x100 EXP SWAP1 DIV PUSH20 0xFFFFFFFFFFFFFFFFFFFFFFFFFFFFFFFFFFFFFFFF AND PUSH20 0xFFFFFFFFFFFFFFFFFFFFFFFFFFFFFFFFFFFFFFFF AND PUSH20 0xFFFFFFFFFFFFFFFFFFFFFFFFFFFFFFFFFFFFFFFF AND DUP2 MSTORE PUSH1 0x20 ADD SWAP1 DUP2 MSTORE PUSH1 0x20 ADD PUSH1 0x0 KECCAK256 PUSH1 0x0 ADD DUP2 SWAP1 SSTORE POP PUSH1 0x0 DUP1 SWAP1 POP JUMPDEST DUP2 DUP2 LT ISZERO PUSH2 0x16E JUMPI PUSH1 0x2 PUSH1 0x40 MLOAD DUP1 PUSH1 0x20 ADD PUSH1 0x40 MSTORE DUP1 PUSH1 0x0 DUP2 MSTORE POP SWAP1 DUP1 PUSH1 0x1 DUP2 SLOAD ADD DUP1 DUP3 SSTORE DUP1 SWAP2 POP POP PUSH1 0x1 SWAP1 SUB SWAP1 PUSH1 0x0 MSTORE PUSH1 0x20 PUSH1 0x0 KECCAK256 ADD PUSH1 0x0 SWAP1 SWAP2 SWAP1 SWAP2 SWAP1 SWAP2 POP PUSH1 0x0 DUP3 ADD MLOAD DUP2 PUSH1 0x0 ADD SSTORE POP POP DUP1 DUP1 PUSH1 0x1 ADD SWAP2 POP POP PUSH2 0x116 JUMP JUMPDEST POP PUSH1 0x1 PUSH1 0x3 PUSH1 0x0 PUSH2 0x100 EXP DUP2 SLOAD DUP2 PUSH1 0xFF MUL NOT AND SWAP1 DUP4 PUSH1 0x3 DUP2 GT ISZERO PUSH2 0x18E JUMPI INVALID JUMPDEST MUL OR SWAP1 SSTORE POP POP PUSH2 0x566 DUP1 PUSH2 0x1A3 PUSH1 0x0 CODECOPY PUSH1 0x0 RETURN INVALID PUSH1 0x80 PUSH1 0x40 MSTORE CALLVALUE DUP1 ISZERO PUSH2 0x10 JUMPI PUSH1 0x0 DUP1 REVERT JUMPDEST POP PUSH1 0x4 CALLDATASIZE LT PUSH2 0x57 JUMPI PUSH1 0x0 CALLDATALOAD PUSH1 0xE0 SHR DUP1 PUSH4 0x121B93F EQ PUSH2 0x5C JUMPI DUP1 PUSH4 0x268F1153 EQ PUSH2 0x8A JUMPI DUP1 PUSH4 0x4420E486 EQ PUSH2 0xBB JUMPI DUP1 PUSH4 0x508B30C9 EQ PUSH2 0xFF JUMPI DUP1 PUSH4 0xC19D93FB EQ PUSH2 0x11D JUMPI JUMPDEST PUSH1 0x0 DUP1 REVERT JUMPDEST PUSH2 0x88 PUSH1 0x4 DUP1 CALLDATASIZE SUB PUSH1 0x20 DUP2 LT ISZERO PUSH2 0x72 JUMPI PUSH1 0x0 DUP1 REVERT JUMPDEST DUP2 ADD SWAP1 DUP1 DUP1 CALLDATALOAD SWAP1 PUSH1 0x20 ADD SWAP1 SWAP3 SWAP2 SWAP1 POP POP POP PUSH2 0x149 JUMP JUMPDEST STOP JUMPDEST PUSH2 0xB9 PUSH1 0x4 DUP1 CALLDATASIZE SUB PUSH1 0x20 DUP2 LT ISZERO PUSH2 0xA0 JUMPI PUSH1 0x0 DUP1 REVERT JUMPDEST DUP2 ADD SWAP1 DUP1 DUP1 CALLDATALOAD PUSH1 0xFF AND SWAP1 PUSH1 0x20 ADD SWAP1 SWAP3 SWAP2 SWAP1 POP POP POP PUSH2 0x26B JUMP JUMPDEST STOP JUMPDEST PUSH2 0xFD PUSH1 0x4 DUP1 CALLDATASIZE SUB PUSH1 0x20 DUP2 LT ISZERO PUSH2 0xD1 JUMPI PUSH1 0x0 DUP1 REVERT JUMPDEST DUP2 ADD SWAP1 DUP1 DUP1 CALLDATALOAD PUSH20 0xFFFFFFFFFFFFFFFFFFFFFFFFFFFFFFFFFFFFFFFF AND SWAP1 PUSH1 0x20 ADD SWAP1 SWAP3 SWAP2 SWAP1 POP POP POP PUSH2 0x31B JUMP JUMPDEST STOP JUMPDEST PUSH2 0x107 PUSH2 0x44C JUMP JUMPDEST PUSH1 0x40 MLOAD DUP1 DUP3 DUP2 MSTORE PUSH1 0x20 ADD SWAP2 POP POP PUSH1 0x40 MLOAD DUP1 SWAP2 SUB SWAP1 RETURN JUMPDEST PUSH2 0x125 PUSH2 0x4FA JUMP JUMPDEST PUSH1 0x40 MLOAD DUP1 DUP3 PUSH1 0x3 DUP2 GT ISZERO PUSH2 0x135 JUMPI INVALID JUMPDEST PUSH1 0xFF AND DUP2 MSTORE PUSH1 0x20 ADD SWAP2 POP POP PUSH1 0x40 MLOAD DUP1 SWAP2 SUB SWAP1 RETURN JUMPDEST PUSH1 0x2 DUP1 PUSH1 0x3 DUP2 GT ISZERO PUSH2 0x157 JUMPI INVALID JUMPDEST PUSH1 0x3 PUSH1 0x0 SWAP1 SLOAD SWAP1 PUSH2 0x100 EXP SWAP1 DIV PUSH1 0xFF AND PUSH1 0x3 DUP2 GT ISZERO PUSH2 0x172 JUMPI INVALID JUMPDEST EQ PUSH2 0x17C JUMPI PUSH1 0x0 DUP1 REVERT JUMPDEST PUSH2 0x184 PUSH2 0x50D JUMP JUMPDEST PUSH1 0x1 PUSH1 0x0 CALLER PUSH20 0xFFFFFFFFFFFFFFFFFFFFFFFFFFFFFFFFFFFFFFFF AND PUSH20 0xFFFFFFFFFFFFFFFFFFFFFFFFFFFFFFFFFFFFFFFF AND DUP2 MSTORE PUSH1 0x20 ADD SWAP1 DUP2 MSTORE PUSH1 0x20 ADD PUSH1 0x0 KECCAK256 PUSH1 0x40 MLOAD DUP1 PUSH1 0x60 ADD PUSH1 0x40 MSTORE SWAP1 DUP2 PUSH1 0x0 DUP3 ADD SLOAD DUP2 MSTORE PUSH1 0x20 ADD PUSH1 0x1 DUP3 ADD PUSH1 0x0 SWAP1 SLOAD SWAP1 PUSH2 0x100 EXP SWAP1 DIV PUSH1 0xFF AND ISZERO ISZERO ISZERO ISZERO DUP2 MSTORE PUSH1 0x20 ADD PUSH1 0x2 DUP3 ADD SLOAD DUP2 MSTORE POP POP SWAP1 POP DUP1 PUSH1 0x20 ADD MLOAD ISZERO PUSH2 0x20E JUMPI PUSH1 0x0 DUP1 REVERT JUMPDEST PUSH1 0x2 DUP1 SLOAD SWAP1 POP DUP4 LT PUSH2 0x21F JUMPI PUSH1 0x0 DUP1 REVERT JUMPDEST PUSH1 0x1 DUP2 PUSH1 0x20 ADD SWAP1 ISZERO ISZERO SWAP1 DUP2 ISZERO ISZERO DUP2 MSTORE POP POP DUP3 DUP2 PUSH1 0x40 ADD DUP2 DUP2 MSTORE POP POP DUP1 PUSH1 0x0 ADD MLOAD PUSH1 0x2 DUP5 DUP2 SLOAD DUP2 LT PUSH2 0x24C JUMPI INVALID JUMPDEST SWAP1 PUSH1 0x0 MSTORE PUSH1 0x20 PUSH1 0x0 KECCAK256 ADD PUSH1 0x0 ADD PUSH1 0x0 DUP3 DUP3 SLOAD ADD SWAP3 POP POP DUP2 SWAP1 SSTORE POP POP POP POP JUMP JUMPDEST PUSH1 0x0 DUP1 SWAP1 SLOAD SWAP1 PUSH2 0x100 EXP SWAP1 DIV PUSH20 0xFFFFFFFFFFFFFFFFFFFFFFFFFFFFFFFFFFFFFFFF AND PUSH20 0xFFFFFFFFFFFFFFFFFFFFFFFFFFFFFFFFFFFFFFFF AND CALLER PUSH20 0xFFFFFFFFFFFFFFFFFFFFFFFFFFFFFFFFFFFFFFFF AND EQ PUSH2 0x2C4 JUMPI PUSH1 0x0 DUP1 REVERT JUMPDEST PUSH1 0x3 PUSH1 0x0 SWAP1 SLOAD SWAP1 PUSH2 0x100 EXP SWAP1 DIV PUSH1 0xFF AND PUSH1 0x3 DUP2 GT ISZERO PUSH2 0x2DF JUMPI INVALID JUMPDEST DUP2 PUSH1 0x3 DUP2 GT ISZERO PUSH2 0x2EB JUMPI INVALID JUMPDEST GT PUSH2 0x2F5 JUMPI PUSH1 0x0 DUP1 REVERT JUMPDEST DUP1 PUSH1 0x3 PUSH1 0x0 PUSH2 0x100 EXP DUP2 SLOAD DUP2 PUSH1 0xFF MUL NOT AND SWAP1 DUP4 PUSH1 0x3 DUP2 GT ISZERO PUSH2 0x313 JUMPI INVALID JUMPDEST MUL OR SWAP1 SSTORE POP POP JUMP JUMPDEST PUSH1 0x1 DUP1 PUSH1 0x3 DUP2 GT ISZERO PUSH2 0x329 JUMPI INVALID JUMPDEST PUSH1 0x3 PUSH1 0x0 SWAP1 SLOAD SWAP1 PUSH2 0x100 EXP SWAP1 DIV PUSH1 0xFF AND PUSH1 0x3 DUP2 GT ISZERO PUSH2 0x344 JUMPI INVALID JUMPDEST EQ PUSH2 0x34E JUMPI PUSH1 0x0 DUP1 REVERT JUMPDEST PUSH1 0x0 DUP1 SWAP1 SLOAD SWAP1 PUSH2 0x100 EXP SWAP1 DIV PUSH20 0xFFFFFFFFFFFFFFFFFFFFFFFFFFFFFFFFFFFFFFFF AND PUSH20 0xFFFFFFFFFFFFFFFFFFFFFFFFFFFFFFFFFFFFFFFF AND CALLER PUSH20 0xFFFFFFFFFFFFFFFFFFFFFFFFFFFFFFFFFFFFFFFF AND EQ PUSH2 0x3A7 JUMPI PUSH1 0x0 DUP1 REVERT JUMPDEST PUSH1 0x1 PUSH1 0x0 DUP4 PUSH20 0xFFFFFFFFFFFFFFFFFFFFFFFFFFFFFFFFFFFFFFFF AND PUSH20 0xFFFFFFFFFFFFFFFFFFFFFFFFFFFFFFFFFFFFFFFF AND DUP2 MSTORE PUSH1 0x20 ADD SWAP1 DUP2 MSTORE PUSH1 0x20 ADD PUSH1 0x0 KECCAK256 PUSH1 0x1 ADD PUSH1 0x0 SWAP1 SLOAD SWAP1 PUSH2 0x100 EXP SWAP1 DIV PUSH1 0xFF AND ISZERO PUSH2 0x401 JUMPI PUSH1 0x0 DUP1 REVERT JUMPDEST PUSH1 0x1 DUP1 PUSH1 0x0 DUP5 PUSH20 0xFFFFFFFFFFFFFFFFFFFFFFFFFFFFFFFFFFFFFFFF AND PUSH20 0xFFFFFFFFFFFFFFFFFFFFFFFFFFFFFFFFFFFFFFFF AND DUP2 MSTORE PUSH1 0x20 ADD SWAP1 DUP2 MSTORE PUSH1 0x20 ADD PUSH1 0x0 KECCAK256 PUSH1 0x0 ADD DUP2 SWAP1 SSTORE POP POP POP JUMP JUMPDEST PUSH1 0x0 PUSH1 0x3 DUP1 PUSH1 0x3 DUP2 GT ISZERO PUSH2 0x45C JUMPI INVALID JUMPDEST PUSH1 0x3 PUSH1 0x0 SWAP1 SLOAD SWAP1 PUSH2 0x100 EXP SWAP1 DIV PUSH1 0xFF AND PUSH1 0x3 DUP2 GT ISZERO PUSH2 0x477 JUMPI INVALID JUMPDEST EQ PUSH2 0x481 JUMPI PUSH1 0x0 DUP1 REVERT JUMPDEST PUSH1 0x0 DUP1 SWAP1 POP PUSH1 0x0 DUP1 SWAP1 POP JUMPDEST PUSH1 0x2 DUP1 SLOAD SWAP1 POP DUP2 LT ISZERO PUSH2 0x4E9 JUMPI DUP2 PUSH1 0x2 DUP3 DUP2 SLOAD DUP2 LT PUSH2 0x4A7 JUMPI INVALID JUMPDEST SWAP1 PUSH1 0x0 MSTORE PUSH1 0x20 PUSH1 0x0 KECCAK256 ADD PUSH1 0x0 ADD SLOAD GT ISZERO PUSH2 0x4DC JUMPI PUSH1 0x2 DUP2 DUP2 SLOAD DUP2 LT PUSH2 0x4C8 JUMPI INVALID JUMPDEST SWAP1 PUSH1 0x0 MSTORE PUSH1 0x20 PUSH1 0x0 KECCAK256 ADD PUSH1 0x0 ADD SLOAD SWAP2 POP DUP1 SWAP4 POP JUMPDEST DUP1 DUP1 PUSH1 0x1 ADD SWAP2 POP POP PUSH2 0x48C JUMP JUMPDEST POP PUSH1 0x3 DUP2 LT ISZERO PUSH2 0x4F5 JUMPI INVALID JUMPDEST POP POP SWAP1 JUMP JUMPDEST PUSH1 0x3 PUSH1 0x0 SWAP1 SLOAD SWAP1 PUSH2 0x100 EXP SWAP1 DIV PUSH1 0xFF AND DUP2 JUMP JUMPDEST PUSH1 0x40 MLOAD DUP1 PUSH1 0x60 ADD PUSH1 0x40 MSTORE DUP1 PUSH1 0x0 DUP2 MSTORE PUSH1 0x20 ADD PUSH1 0x0 ISZERO ISZERO DUP2 MSTORE PUSH1 0x20 ADD PUSH1 0x0 DUP2 MSTORE POP SWAP1 JUMP INVALID LOG2 PUSH5 0x6970667358 0x22 SLT KECCAK256 0xB2 0xDB EXP SLOAD STOP DIV 0x4B SAR LOG3 GASPRICE 0xF8 PUSH12 0xDEFC540C7A91AA9867A11CFD 0xD9 0x2C DUP12 0xE 0xBC PUSH10 0x830E64736F6C63430006 STOP STOP CALLER "
				},
				"gasEstimates": {
					"creation": {
						"codeDepositCost": "276400",
						"executionCost": "infinite",
						"totalCost": "infinite"
					},
					"external": {
						"changeState(uint8)": "22902",
						"register(address)": "23104",
						"reqWinner()": "infinite",
						"state()": "1139",
						"vote(uint256)": "26532"
					}
				},
				"methodIdentifiers": {
					"changeState(uint8)": "268f1153",
					"register(address)": "4420e486",
					"reqWinner()": "508b30c9",
					"state()": "c19d93fb",
					"vote(uint256)": "0121b93f"
				}
			},
			"storageLayout": {
				"storage": [
					{
						"astId": 13,
						"contract": "BallotV4.sol:BallotV4",
						"label": "chairperson",
						"offset": 0,
						"slot": "0",
						"type": "t_address"
					},
					{
						"astId": 17,
						"contract": "BallotV4.sol:BallotV4",
						"label": "voters",
						"offset": 0,
						"slot": "1",
						"type": "t_mapping(t_address,t_struct(Voter)8_storage)"
					},
					{
						"astId": 20,
						"contract": "BallotV4.sol:BallotV4",
						"label": "proposals",
						"offset": 0,
						"slot": "2",
						"type": "t_array(t_struct(Proposal)11_storage)dyn_storage"
					},
					{
						"astId": 29,
						"contract": "BallotV4.sol:BallotV4",
						"label": "state",
						"offset": 0,
						"slot": "3",
						"type": "t_enum(Phase)25"
					}
				],
				"types": {
					"t_address": {
						"encoding": "inplace",
						"label": "address",
						"numberOfBytes": "20"
					},
					"t_array(t_struct(Proposal)11_storage)dyn_storage": {
						"base": "t_struct(Proposal)11_storage",
						"encoding": "dynamic_array",
						"label": "struct BallotV4.Proposal[]",
						"numberOfBytes": "32"
					},
					"t_bool": {
						"encoding": "inplace",
						"label": "bool",
						"numberOfBytes": "1"
					},
					"t_enum(Phase)25": {
						"encoding": "inplace",
						"label": "enum BallotV4.Phase",
						"numberOfBytes": "1"
					},
					"t_mapping(t_address,t_struct(Voter)8_storage)": {
						"encoding": "mapping",
						"key": "t_address",
						"label": "mapping(address => struct BallotV4.Voter)",
						"numberOfBytes": "32",
						"value": "t_struct(Voter)8_storage"
					},
					"t_struct(Proposal)11_storage": {
						"encoding": "inplace",
						"label": "struct BallotV4.Proposal",
						"members": [
							{
								"astId": 10,
								"contract": "BallotV4.sol:BallotV4",
								"label": "voteCount",
								"offset": 0,
								"slot": "0",
								"type": "t_uint256"
							}
						],
						"numberOfBytes": "32"
					},
					"t_struct(Voter)8_storage": {
						"encoding": "inplace",
						"label": "struct BallotV4.Voter",
						"members": [
							{
								"astId": 3,
								"contract": "BallotV4.sol:BallotV4",
								"label": "weight",
								"offset": 0,
								"slot": "0",
								"type": "t_uint256"
							},
							{
								"astId": 5,
								"contract": "BallotV4.sol:BallotV4",
								"label": "voted",
								"offset": 0,
								"slot": "1",
								"type": "t_bool"
							},
							{
								"astId": 7,
								"contract": "BallotV4.sol:BallotV4",
								"label": "vote",
								"offset": 0,
								"slot": "2",
								"type": "t_uint256"
							}
						],
						"numberOfBytes": "96"
					},
					"t_uint256": {
						"encoding": "inplace",
						"label": "uint256",
						"numberOfBytes": "32"
					}
				}
			},
			"userdoc": {
				"methods": {}
			}
		}
	}
}