{
	"BallotV3.sol": {
		"BallotV3": {
			"abi": [
				{
					"inputs": [
						{
							"internalType": "uint256",
							"name": "numProposals",
							"type": "uint256"
						}
					],
					"stateMutability": "nonpayable",
					"type": "constructor"
				},
				{
					"inputs": [
						{
							"internalType": "enum BallotV3.Phase",
							"name": "x",
							"type": "uint8"
						}
					],
					"name": "changeState",
					"outputs": [],
					"stateMutability": "nonpayable",
					"type": "function"
				},
				{
					"inputs": [
						{
							"internalType": "address",
							"name": "voter",
							"type": "address"
						}
					],
					"name": "register",
					"outputs": [],
					"stateMutability": "nonpayable",
					"type": "function"
				},
				{
					"inputs": [],
					"name": "reqWinner",
					"outputs": [
						{
							"internalType": "uint256",
							"name": "winningProposal",
							"type": "uint256"
						}
					],
					"stateMutability": "view",
					"type": "function"
				},
				{
					"inputs": [],
					"name": "state",
					"outputs": [
						{
							"internalType": "enum BallotV3.Phase",
							"name": "",
							"type": "uint8"
						}
					],
					"stateMutability": "view",
					"type": "function"
				},
				{
					"inputs": [
						{
							"internalType": "uint256",
							"name": "toProposal",
							"type": "uint256"
						}
					],
					"name": "vote",
					"outputs": [],
					"stateMutability": "nonpayable",
					"type": "function"
				}
			],
			"devdoc": {
				"methods": {}
			},
			"evm": {
				"assembly": "    /* \"BallotV3.sol\":34:2306  contract BallotV3 {... */\n  mstore(0x40, 0x80)\n    /* \"BallotV3.sol\":390:400  Phase.Done */\n  0x03\n    /* \"BallotV3.sol\":369:400  Phase public state = Phase.Done */\n  dup1\n  exp(0x0100, 0x00)\n  dup2\n  sload\n  dup2\n  0xff\n  mul\n  not\n  and\n  swap1\n  dup4\n  0x03\n  dup2\n  gt\n  iszero\n  tag_1\n  jumpi\n  invalid\ntag_1:\n  mul\n  or\n  swap1\n  sstore\n  pop\n    /* \"BallotV3.sol\":539:884  constructor (uint numProposals) public  {... */\n  callvalue\n    /* \"--CODEGEN--\":8:17   */\n  dup1\n    /* \"--CODEGEN--\":5:7   */\n  iszero\n  tag_2\n  jumpi\n    /* \"--CODEGEN--\":30:31   */\n  0x00\n    /* \"--CODEGEN--\":27:28   */\n  dup1\n    /* \"--CODEGEN--\":20:32   */\n  revert\n    /* \"--CODEGEN--\":5:7   */\ntag_2:\n    /* \"BallotV3.sol\":539:884  constructor (uint numProposals) public  {... */\n  pop\n  mload(0x40)\n  sub(codesize, bytecodeSize)\n  dup1\n  bytecodeSize\n  dup4\n  codecopy\n  dup2\n  dup2\n  add\n  0x40\n  mstore\n    /* \"--CODEGEN--\":13:15   */\n  0x20\n    /* \"--CODEGEN--\":8:11   */\n  dup2\n    /* \"--CODEGEN--\":5:16   */\n  lt\n    /* \"--CODEGEN--\":2:4   */\n  iszero\n  tag_3\n  jumpi\n    /* \"--CODEGEN--\":29:30   */\n  0x00\n    /* \"--CODEGEN--\":26:27   */\n  dup1\n    /* \"--CODEGEN--\":19:31   */\n  revert\n    /* \"--CODEGEN--\":2:4   */\ntag_3:\n    /* \"BallotV3.sol\":539:884  constructor (uint numProposals) public  {... */\n  dup2\n  add\n  swap1\n  dup1\n  dup1\n  mload\n  swap1\n  0x20\n  add\n  swap1\n  swap3\n  swap2\n  swap1\n  pop\n  pop\n  pop\n    /* \"BallotV3.sol\":603:613  msg.sender */\n  caller\n    /* \"BallotV3.sol\":589:600  chairperson */\n  0x00\n  dup1\n    /* \"BallotV3.sol\":589:613  chairperson = msg.sender */\n  0x0100\n  exp\n  dup2\n  sload\n  dup2\n  0xffffffffffffffffffffffffffffffffffffffff\n  mul\n  not\n  and\n  swap1\n  dup4\n  0xffffffffffffffffffffffffffffffffffffffff\n  and\n  mul\n  or\n  swap1\n  sstore\n  pop\n    /* \"BallotV3.sol\":652:653  2 */\n  0x02\n    /* \"BallotV3.sol\":623:629  voters */\n  0x01\n    /* \"BallotV3.sol\":623:642  voters[chairperson] */\n  0x00\n    /* \"BallotV3.sol\":630:641  chairperson */\n  dup1\n  0x00\n  swap1\n  sload\n  swap1\n  0x0100\n  exp\n  swap1\n  div\n  0xffffffffffffffffffffffffffffffffffffffff\n  and\n    /* \"BallotV3.sol\":623:642  voters[chairperson] */\n  0xffffffffffffffffffffffffffffffffffffffff\n  and\n  0xffffffffffffffffffffffffffffffffffffffff\n  and\n  dup2\n  mstore\n  0x20\n  add\n  swap1\n  dup2\n  mstore\n  0x20\n  add\n  0x00\n  keccak256\n    /* \"BallotV3.sol\":623:649  voters[chairperson].weight */\n  0x00\n  add\n    /* \"BallotV3.sol\":623:653  voters[chairperson].weight = 2 */\n  dup2\n  swap1\n  sstore\n  pop\n    /* \"BallotV3.sol\":760:769  uint prop */\n  0x00\n    /* \"BallotV3.sol\":772:773  0 */\n  dup1\n    /* \"BallotV3.sol\":760:773  uint prop = 0 */\n  swap1\n  pop\n    /* \"BallotV3.sol\":755:844  for (uint prop = 0; prop < numProposals; prop ++)... */\ntag_6:\n    /* \"BallotV3.sol\":782:794  numProposals */\n  dup2\n    /* \"BallotV3.sol\":775:779  prop */\n  dup2\n    /* \"BallotV3.sol\":775:794  prop < numProposals */\n  lt\n    /* \"BallotV3.sol\":755:844  for (uint prop = 0; prop < numProposals; prop ++)... */\n  iszero\n  tag_7\n  jumpi\n    /* \"BallotV3.sol\":817:826  proposals */\n  0x02\n    /* \"BallotV3.sol\":832:843  Proposal(0) */\n  mload(0x40)\n  dup1\n  0x20\n  add\n  0x40\n  mstore\n  dup1\n    /* \"BallotV3.sol\":841:842  0 */\n  0x00\n    /* \"BallotV3.sol\":832:843  Proposal(0) */\n  dup2\n  mstore\n  pop\n    /* \"BallotV3.sol\":817:844  proposals.push(Proposal(0)) */\n  swap1\n  dup1\n    /* \"--CODEGEN--\":39:40   */\n  0x01\n    /* \"--CODEGEN--\":33:36   */\n  dup2\n    /* \"--CODEGEN--\":27:37   */\n  sload\n    /* \"--CODEGEN--\":23:41   */\n  add\n    /* \"--CODEGEN--\":57:67   */\n  dup1\n    /* \"--CODEGEN--\":52:55   */\n  dup3\n    /* \"--CODEGEN--\":45:68   */\n  sstore\n    /* \"--CODEGEN--\":79:89   */\n  dup1\n    /* \"--CODEGEN--\":72:89   */\n  swap2\n  pop\n    /* \"--CODEGEN--\":0:93   */\n  pop\n    /* \"BallotV3.sol\":817:844  proposals.push(Proposal(0)) */\n  0x01\n  swap1\n  sub\n  swap1\n  0x00\n  mstore\n  keccak256(0x00, 0x20)\n  add\n  0x00\n  swap1\n  swap2\n  swap1\n  swap2\n  swap1\n  swap2\n  pop\n  0x00\n  dup3\n  add\n  mload\n  dup2\n  0x00\n  add\n  sstore\n  pop\n  pop\n    /* \"BallotV3.sol\":796:803  prop ++ */\n  dup1\n  dup1\n  0x01\n  add\n  swap2\n  pop\n  pop\n    /* \"BallotV3.sol\":755:844  for (uint prop = 0; prop < numProposals; prop ++)... */\n  jump(tag_6)\ntag_7:\n  pop\n    /* \"BallotV3.sol\":862:872  Phase.Regs */\n  0x01\n    /* \"BallotV3.sol\":854:859  state */\n  0x03\n  0x00\n    /* \"BallotV3.sol\":854:872  state = Phase.Regs */\n  0x0100\n  exp\n  dup2\n  sload\n  dup2\n  0xff\n  mul\n  not\n  and\n  swap1\n  dup4\n  0x03\n  dup2\n  gt\n  iszero\n  tag_10\n  jumpi\n  invalid\ntag_10:\n  mul\n  or\n  swap1\n  sstore\n  pop\n    /* \"BallotV3.sol\":539:884  constructor (uint numProposals) public  {... */\n  pop\n    /* \"BallotV3.sol\":34:2306  contract BallotV3 {... */\n  dataSize(sub_0)\n  dup1\n  dataOffset(sub_0)\n  0x00\n  codecopy\n  0x00\n  return\nstop\n\nsub_0: assembly {\n        /* \"BallotV3.sol\":34:2306  contract BallotV3 {... */\n      mstore(0x40, 0x80)\n      callvalue\n        /* \"--CODEGEN--\":8:17   */\n      dup1\n        /* \"--CODEGEN--\":5:7   */\n      iszero\n      tag_1\n      jumpi\n        /* \"--CODEGEN--\":30:31   */\n      0x00\n        /* \"--CODEGEN--\":27:28   */\n      dup1\n        /* \"--CODEGEN--\":20:32   */\n      revert\n        /* \"--CODEGEN--\":5:7   */\n    tag_1:\n        /* \"BallotV3.sol\":34:2306  contract BallotV3 {... */\n      pop\n      jumpi(tag_2, lt(calldatasize, 0x04))\n      shr(0xe0, calldataload(0x00))\n      dup1\n      0x0121b93f\n      eq\n      tag_3\n      jumpi\n      dup1\n      0x268f1153\n      eq\n      tag_4\n      jumpi\n      dup1\n      0x4420e486\n      eq\n      tag_5\n      jumpi\n      dup1\n      0x508b30c9\n      eq\n      tag_6\n      jumpi\n      dup1\n      0xc19d93fb\n      eq\n      tag_7\n      jumpi\n    tag_2:\n      0x00\n      dup1\n      revert\n        /* \"BallotV3.sol\":1472:1792  function vote(uint toProposal) public validPhase(Phase.Vote)  {... */\n    tag_3:\n      tag_8\n      0x04\n      dup1\n      calldatasize\n      sub\n        /* \"--CODEGEN--\":13:15   */\n      0x20\n        /* \"--CODEGEN--\":8:11   */\n      dup2\n        /* \"--CODEGEN--\":5:16   */\n      lt\n        /* \"--CODEGEN--\":2:4   */\n      iszero\n      tag_9\n      jumpi\n        /* \"--CODEGEN--\":29:30   */\n      0x00\n        /* \"--CODEGEN--\":26:27   */\n      dup1\n        /* \"--CODEGEN--\":19:31   */\n      revert\n        /* \"--CODEGEN--\":2:4   */\n    tag_9:\n        /* \"BallotV3.sol\":1472:1792  function vote(uint toProposal) public validPhase(Phase.Vote)  {... */\n      dup2\n      add\n      swap1\n      dup1\n      dup1\n      calldataload\n      swap1\n      0x20\n      add\n      swap1\n      swap3\n      swap2\n      swap1\n      pop\n      pop\n      pop\n      tag_10\n      jump\t// in\n    tag_8:\n      stop\n        /* \"BallotV3.sol\":973:1121  function changeState(Phase x) public {... */\n    tag_4:\n      tag_11\n      0x04\n      dup1\n      calldatasize\n      sub\n        /* \"--CODEGEN--\":13:15   */\n      0x20\n        /* \"--CODEGEN--\":8:11   */\n      dup2\n        /* \"--CODEGEN--\":5:16   */\n      lt\n        /* \"--CODEGEN--\":2:4   */\n      iszero\n      tag_12\n      jumpi\n        /* \"--CODEGEN--\":29:30   */\n      0x00\n        /* \"--CODEGEN--\":26:27   */\n      dup1\n        /* \"--CODEGEN--\":19:31   */\n      revert\n        /* \"--CODEGEN--\":2:4   */\n    tag_12:\n        /* \"BallotV3.sol\":973:1121  function changeState(Phase x) public {... */\n      dup2\n      add\n      swap1\n      dup1\n      dup1\n      calldataload\n      0xff\n      and\n      swap1\n      0x20\n      add\n      swap1\n      swap3\n      swap2\n      swap1\n      pop\n      pop\n      pop\n      tag_13\n      jump\t// in\n    tag_11:\n      stop\n        /* \"BallotV3.sol\":1186:1411  function register(address voter) public validPhase(Phase.Regs) {... */\n    tag_5:\n      tag_14\n      0x04\n      dup1\n      calldatasize\n      sub\n        /* \"--CODEGEN--\":13:15   */\n      0x20\n        /* \"--CODEGEN--\":8:11   */\n      dup2\n        /* \"--CODEGEN--\":5:16   */\n      lt\n        /* \"--CODEGEN--\":2:4   */\n      iszero\n      tag_15\n      jumpi\n        /* \"--CODEGEN--\":29:30   */\n      0x00\n        /* \"--CODEGEN--\":26:27   */\n      dup1\n        /* \"--CODEGEN--\":19:31   */\n      revert\n        /* \"--CODEGEN--\":2:4   */\n    tag_15:\n        /* \"BallotV3.sol\":1186:1411  function register(address voter) public validPhase(Phase.Regs) {... */\n      dup2\n      add\n      swap1\n      dup1\n      dup1\n      calldataload\n      0xffffffffffffffffffffffffffffffffffffffff\n      and\n      swap1\n      0x20\n      add\n      swap1\n      swap3\n      swap2\n      swap1\n      pop\n      pop\n      pop\n      tag_16\n      jump\t// in\n    tag_14:\n      stop\n        /* \"BallotV3.sol\":1853:2304  function reqWinner() public validPhase(Phase.Done) view returns (uint winningProposal) {... */\n    tag_6:\n      tag_17\n      tag_18\n      jump\t// in\n    tag_17:\n      mload(0x40)\n      dup1\n      dup3\n      dup2\n      mstore\n      0x20\n      add\n      swap2\n      pop\n      pop\n      mload(0x40)\n      dup1\n      swap2\n      sub\n      swap1\n      return\n        /* \"BallotV3.sol\":369:400  Phase public state = Phase.Done */\n    tag_7:\n      tag_19\n      tag_20\n      jump\t// in\n    tag_19:\n      mload(0x40)\n      dup1\n      dup3\n      0x03\n      dup2\n      gt\n      iszero\n      tag_21\n      jumpi\n      invalid\n    tag_21:\n      0xff\n      and\n      dup2\n      mstore\n      0x20\n      add\n      swap2\n      pop\n      pop\n      mload(0x40)\n      dup1\n      swap2\n      sub\n      swap1\n      return\n        /* \"BallotV3.sol\":1472:1792  function vote(uint toProposal) public validPhase(Phase.Vote)  {... */\n    tag_10:\n        /* \"BallotV3.sol\":1521:1531  Phase.Vote */\n      0x02\n        /* \"BallotV3.sol\":490:498  reqPhase */\n      dup1\n        /* \"BallotV3.sol\":481:498  state == reqPhase */\n      0x03\n      dup2\n      gt\n      iszero\n      tag_23\n      jumpi\n      invalid\n    tag_23:\n        /* \"BallotV3.sol\":481:486  state */\n      0x03\n      0x00\n      swap1\n      sload\n      swap1\n      0x0100\n      exp\n      swap1\n      div\n      0xff\n      and\n        /* \"BallotV3.sol\":481:498  state == reqPhase */\n      0x03\n      dup2\n      gt\n      iszero\n      tag_24\n      jumpi\n      invalid\n    tag_24:\n      eq\n        /* \"BallotV3.sol\":473:499  require(state == reqPhase) */\n      tag_25\n      jumpi\n      0x00\n      dup1\n      revert\n    tag_25:\n        /* \"BallotV3.sol\":1552:1571  Voter memory sender */\n      tag_27\n      tag_28\n      jump\t// in\n    tag_27:\n        /* \"BallotV3.sol\":1574:1580  voters */\n      0x01\n        /* \"BallotV3.sol\":1574:1592  voters[msg.sender] */\n      0x00\n        /* \"BallotV3.sol\":1581:1591  msg.sender */\n      caller\n        /* \"BallotV3.sol\":1574:1592  voters[msg.sender] */\n      0xffffffffffffffffffffffffffffffffffffffff\n      and\n      0xffffffffffffffffffffffffffffffffffffffff\n      and\n      dup2\n      mstore\n      0x20\n      add\n      swap1\n      dup2\n      mstore\n      0x20\n      add\n      0x00\n      keccak256\n        /* \"BallotV3.sol\":1552:1592  Voter memory sender = voters[msg.sender] */\n      mload(0x40)\n      dup1\n      0x60\n      add\n      0x40\n      mstore\n      swap1\n      dup2\n      0x00\n      dup3\n      add\n      sload\n      dup2\n      mstore\n      0x20\n      add\n      0x01\n      dup3\n      add\n      0x00\n      swap1\n      sload\n      swap1\n      0x0100\n      exp\n      swap1\n      div\n      0xff\n      and\n      iszero\n      iszero\n      iszero\n      iszero\n      dup2\n      mstore\n      0x20\n      add\n      0x02\n      dup3\n      add\n      sload\n      dup2\n      mstore\n      pop\n      pop\n      swap1\n      pop\n        /* \"BallotV3.sol\":1606:1612  sender */\n      dup1\n        /* \"BallotV3.sol\":1606:1618  sender.voted */\n      0x20\n      add\n      mload\n        /* \"BallotV3.sol\":1606:1652  sender.voted || toProposal >= proposals.length */\n      dup1\n      tag_29\n      jumpi\n      pop\n        /* \"BallotV3.sol\":1636:1645  proposals */\n      0x02\n        /* \"BallotV3.sol\":1636:1652  proposals.length */\n      dup1\n      sload\n      swap1\n      pop\n        /* \"BallotV3.sol\":1622:1632  toProposal */\n      dup4\n        /* \"BallotV3.sol\":1622:1652  toProposal >= proposals.length */\n      lt\n      iszero\n        /* \"BallotV3.sol\":1606:1652  sender.voted || toProposal >= proposals.length */\n    tag_29:\n        /* \"BallotV3.sol\":1602:1661  if (sender.voted || toProposal >= proposals.length) return; */\n      iszero\n      tag_30\n      jumpi\n        /* \"BallotV3.sol\":1654:1661  return; */\n      pop\n      jump(tag_26)\n        /* \"BallotV3.sol\":1602:1661  if (sender.voted || toProposal >= proposals.length) return; */\n    tag_30:\n        /* \"BallotV3.sol\":1686:1690  true */\n      0x01\n        /* \"BallotV3.sol\":1671:1677  sender */\n      dup2\n        /* \"BallotV3.sol\":1671:1683  sender.voted */\n      0x20\n      add\n        /* \"BallotV3.sol\":1671:1690  sender.voted = true */\n      swap1\n      iszero\n      iszero\n      swap1\n      dup2\n      iszero\n      iszero\n      dup2\n      mstore\n      pop\n      pop\n        /* \"BallotV3.sol\":1714:1724  toProposal */\n      dup3\n        /* \"BallotV3.sol\":1700:1706  sender */\n      dup2\n        /* \"BallotV3.sol\":1700:1711  sender.vote */\n      0x40\n      add\n        /* \"BallotV3.sol\":1700:1724  sender.vote = toProposal */\n      dup2\n      dup2\n      mstore\n      pop\n      pop\n        /* \"BallotV3.sol\":1772:1778  sender */\n      dup1\n        /* \"BallotV3.sol\":1772:1785  sender.weight */\n      0x00\n      add\n      mload\n        /* \"BallotV3.sol\":1737:1746  proposals */\n      0x02\n        /* \"BallotV3.sol\":1747:1757  toProposal */\n      dup5\n        /* \"BallotV3.sol\":1737:1758  proposals[toProposal] */\n      dup2\n      sload\n      dup2\n      lt\n      tag_31\n      jumpi\n      invalid\n    tag_31:\n      swap1\n      0x00\n      mstore\n      keccak256(0x00, 0x20)\n      add\n        /* \"BallotV3.sol\":1737:1768  proposals[toProposal].voteCount */\n      0x00\n      add\n      0x00\n        /* \"BallotV3.sol\":1737:1785  proposals[toProposal].voteCount += sender.weight */\n      dup3\n      dup3\n      sload\n      add\n      swap3\n      pop\n      pop\n      dup2\n      swap1\n      sstore\n      pop\n        /* \"BallotV3.sol\":508:509  _ */\n      pop\n    tag_26:\n        /* \"BallotV3.sol\":1472:1792  function vote(uint toProposal) public validPhase(Phase.Vote)  {... */\n      pop\n      pop\n      jump\t// out\n        /* \"BallotV3.sol\":973:1121  function changeState(Phase x) public {... */\n    tag_13:\n        /* \"BallotV3.sol\":1038:1049  chairperson */\n      0x00\n      dup1\n      swap1\n      sload\n      swap1\n      0x0100\n      exp\n      swap1\n      div\n      0xffffffffffffffffffffffffffffffffffffffff\n      and\n        /* \"BallotV3.sol\":1024:1049  msg.sender != chairperson */\n      0xffffffffffffffffffffffffffffffffffffffff\n      and\n        /* \"BallotV3.sol\":1024:1034  msg.sender */\n      caller\n        /* \"BallotV3.sol\":1024:1049  msg.sender != chairperson */\n      0xffffffffffffffffffffffffffffffffffffffff\n      and\n      eq\n        /* \"BallotV3.sol\":1020:1062  if (msg.sender != chairperson) {revert();} */\n      tag_34\n      jumpi\n        /* \"BallotV3.sol\":1052:1060  revert() */\n      0x00\n      dup1\n      revert\n        /* \"BallotV3.sol\":1020:1062  if (msg.sender != chairperson) {revert();} */\n    tag_34:\n        /* \"BallotV3.sol\":1079:1084  state */\n      0x03\n      0x00\n      swap1\n      sload\n      swap1\n      0x0100\n      exp\n      swap1\n      div\n      0xff\n      and\n        /* \"BallotV3.sol\":1075:1084  x < state */\n      0x03\n      dup2\n      gt\n      iszero\n      tag_35\n      jumpi\n      invalid\n    tag_35:\n        /* \"BallotV3.sol\":1075:1076  x */\n      dup2\n        /* \"BallotV3.sol\":1075:1084  x < state */\n      0x03\n      dup2\n      gt\n      iszero\n      tag_36\n      jumpi\n      invalid\n    tag_36:\n      lt\n        /* \"BallotV3.sol\":1071:1095  if (x < state ) revert() */\n      iszero\n      tag_37\n      jumpi\n        /* \"BallotV3.sol\":1087:1095  revert() */\n      0x00\n      dup1\n      revert\n        /* \"BallotV3.sol\":1071:1095  if (x < state ) revert() */\n    tag_37:\n        /* \"BallotV3.sol\":1113:1114  x */\n      dup1\n        /* \"BallotV3.sol\":1105:1110  state */\n      0x03\n      0x00\n        /* \"BallotV3.sol\":1105:1114  state = x */\n      0x0100\n      exp\n      dup2\n      sload\n      dup2\n      0xff\n      mul\n      not\n      and\n      swap1\n      dup4\n      0x03\n      dup2\n      gt\n      iszero\n      tag_38\n      jumpi\n      invalid\n    tag_38:\n      mul\n      or\n      swap1\n      sstore\n      pop\n        /* \"BallotV3.sol\":973:1121  function changeState(Phase x) public {... */\n      pop\n      jump\t// out\n        /* \"BallotV3.sol\":1186:1411  function register(address voter) public validPhase(Phase.Regs) {... */\n    tag_16:\n        /* \"BallotV3.sol\":1237:1247  Phase.Regs */\n      0x01\n        /* \"BallotV3.sol\":490:498  reqPhase */\n      dup1\n        /* \"BallotV3.sol\":481:498  state == reqPhase */\n      0x03\n      dup2\n      gt\n      iszero\n      tag_40\n      jumpi\n      invalid\n    tag_40:\n        /* \"BallotV3.sol\":481:486  state */\n      0x03\n      0x00\n      swap1\n      sload\n      swap1\n      0x0100\n      exp\n      swap1\n      div\n      0xff\n      and\n        /* \"BallotV3.sol\":481:498  state == reqPhase */\n      0x03\n      dup2\n      gt\n      iszero\n      tag_41\n      jumpi\n      invalid\n    tag_41:\n      eq\n        /* \"BallotV3.sol\":473:499  require(state == reqPhase) */\n      tag_42\n      jumpi\n      0x00\n      dup1\n      revert\n    tag_42:\n        /* \"BallotV3.sol\":1277:1288  chairperson */\n      0x00\n      dup1\n      swap1\n      sload\n      swap1\n      0x0100\n      exp\n      swap1\n      div\n      0xffffffffffffffffffffffffffffffffffffffff\n      and\n        /* \"BallotV3.sol\":1263:1288  msg.sender != chairperson */\n      0xffffffffffffffffffffffffffffffffffffffff\n      and\n        /* \"BallotV3.sol\":1263:1273  msg.sender */\n      caller\n        /* \"BallotV3.sol\":1263:1288  msg.sender != chairperson */\n      0xffffffffffffffffffffffffffffffffffffffff\n      and\n      eq\n      iszero\n        /* \"BallotV3.sol\":1263:1311  msg.sender != chairperson || voters[voter].voted */\n      dup1\n      tag_44\n      jumpi\n      pop\n        /* \"BallotV3.sol\":1292:1298  voters */\n      0x01\n        /* \"BallotV3.sol\":1292:1305  voters[voter] */\n      0x00\n        /* \"BallotV3.sol\":1299:1304  voter */\n      dup4\n        /* \"BallotV3.sol\":1292:1305  voters[voter] */\n      0xffffffffffffffffffffffffffffffffffffffff\n      and\n      0xffffffffffffffffffffffffffffffffffffffff\n      and\n      dup2\n      mstore\n      0x20\n      add\n      swap1\n      dup2\n      mstore\n      0x20\n      add\n      0x00\n      keccak256\n        /* \"BallotV3.sol\":1292:1311  voters[voter].voted */\n      0x01\n      add\n      0x00\n      swap1\n      sload\n      swap1\n      0x0100\n      exp\n      swap1\n      div\n      0xff\n      and\n        /* \"BallotV3.sol\":1263:1311  msg.sender != chairperson || voters[voter].voted */\n    tag_44:\n        /* \"BallotV3.sol\":1259:1321  if (msg.sender != chairperson || voters[voter].voted) revert() */\n      iszero\n      tag_45\n      jumpi\n        /* \"BallotV3.sol\":1313:1321  revert() */\n      0x00\n      dup1\n      revert\n        /* \"BallotV3.sol\":1259:1321  if (msg.sender != chairperson || voters[voter].voted) revert() */\n    tag_45:\n        /* \"BallotV3.sol\":1355:1356  1 */\n      0x01\n        /* \"BallotV3.sol\":1332:1338  voters */\n      dup1\n        /* \"BallotV3.sol\":1332:1345  voters[voter] */\n      0x00\n        /* \"BallotV3.sol\":1339:1344  voter */\n      dup5\n        /* \"BallotV3.sol\":1332:1345  voters[voter] */\n      0xffffffffffffffffffffffffffffffffffffffff\n      and\n      0xffffffffffffffffffffffffffffffffffffffff\n      and\n      dup2\n      mstore\n      0x20\n      add\n      swap1\n      dup2\n      mstore\n      0x20\n      add\n      0x00\n      keccak256\n        /* \"BallotV3.sol\":1332:1352  voters[voter].weight */\n      0x00\n      add\n        /* \"BallotV3.sol\":1332:1356  voters[voter].weight = 1 */\n      dup2\n      swap1\n      sstore\n      pop\n        /* \"BallotV3.sol\":1388:1393  false */\n      0x00\n        /* \"BallotV3.sol\":1366:1372  voters */\n      0x01\n        /* \"BallotV3.sol\":1366:1379  voters[voter] */\n      0x00\n        /* \"BallotV3.sol\":1373:1378  voter */\n      dup5\n        /* \"BallotV3.sol\":1366:1379  voters[voter] */\n      0xffffffffffffffffffffffffffffffffffffffff\n      and\n      0xffffffffffffffffffffffffffffffffffffffff\n      and\n      dup2\n      mstore\n      0x20\n      add\n      swap1\n      dup2\n      mstore\n      0x20\n      add\n      0x00\n      keccak256\n        /* \"BallotV3.sol\":1366:1385  voters[voter].voted */\n      0x01\n      add\n      0x00\n        /* \"BallotV3.sol\":1366:1393  voters[voter].voted = false */\n      0x0100\n      exp\n      dup2\n      sload\n      dup2\n      0xff\n      mul\n      not\n      and\n      swap1\n      dup4\n      iszero\n      iszero\n      mul\n      or\n      swap1\n      sstore\n      pop\n        /* \"BallotV3.sol\":1186:1411  function register(address voter) public validPhase(Phase.Regs) {... */\n      pop\n      pop\n      jump\t// out\n        /* \"BallotV3.sol\":1853:2304  function reqWinner() public validPhase(Phase.Done) view returns (uint winningProposal) {... */\n    tag_18:\n        /* \"BallotV3.sol\":1918:1938  uint winningProposal */\n      0x00\n        /* \"BallotV3.sol\":1892:1902  Phase.Done */\n      0x03\n        /* \"BallotV3.sol\":490:498  reqPhase */\n      dup1\n        /* \"BallotV3.sol\":481:498  state == reqPhase */\n      0x03\n      dup2\n      gt\n      iszero\n      tag_47\n      jumpi\n      invalid\n    tag_47:\n        /* \"BallotV3.sol\":481:486  state */\n      0x03\n      0x00\n      swap1\n      sload\n      swap1\n      0x0100\n      exp\n      swap1\n      div\n      0xff\n      and\n        /* \"BallotV3.sol\":481:498  state == reqPhase */\n      0x03\n      dup2\n      gt\n      iszero\n      tag_48\n      jumpi\n      invalid\n    tag_48:\n      eq\n        /* \"BallotV3.sol\":473:499  require(state == reqPhase) */\n      tag_49\n      jumpi\n      0x00\n      dup1\n      revert\n    tag_49:\n        /* \"BallotV3.sol\":2030:2051  uint winningVoteCount */\n      0x00\n        /* \"BallotV3.sol\":2054:2055  0 */\n      dup1\n        /* \"BallotV3.sol\":2030:2055  uint winningVoteCount = 0 */\n      swap1\n      pop\n        /* \"BallotV3.sol\":2070:2079  uint prop */\n      0x00\n        /* \"BallotV3.sol\":2082:2083  0 */\n      dup1\n        /* \"BallotV3.sol\":2070:2083  uint prop = 0 */\n      swap1\n      pop\n        /* \"BallotV3.sol\":2065:2298  for (uint prop = 0; prop < proposals.length; prop++) ... */\n    tag_51:\n        /* \"BallotV3.sol\":2092:2101  proposals */\n      0x02\n        /* \"BallotV3.sol\":2092:2108  proposals.length */\n      dup1\n      sload\n      swap1\n      pop\n        /* \"BallotV3.sol\":2085:2089  prop */\n      dup2\n        /* \"BallotV3.sol\":2085:2108  prop < proposals.length */\n      lt\n        /* \"BallotV3.sol\":2065:2298  for (uint prop = 0; prop < proposals.length; prop++) ... */\n      iszero\n      tag_52\n      jumpi\n        /* \"BallotV3.sol\":2163:2179  winningVoteCount */\n      dup2\n        /* \"BallotV3.sol\":2135:2144  proposals */\n      0x02\n        /* \"BallotV3.sol\":2145:2149  prop */\n      dup3\n        /* \"BallotV3.sol\":2135:2150  proposals[prop] */\n      dup2\n      sload\n      dup2\n      lt\n      tag_54\n      jumpi\n      invalid\n    tag_54:\n      swap1\n      0x00\n      mstore\n      keccak256(0x00, 0x20)\n      add\n        /* \"BallotV3.sol\":2135:2160  proposals[prop].voteCount */\n      0x00\n      add\n      sload\n        /* \"BallotV3.sol\":2135:2179  proposals[prop].voteCount > winningVoteCount */\n      gt\n        /* \"BallotV3.sol\":2131:2298  if (proposals[prop].voteCount > winningVoteCount) {... */\n      iszero\n      tag_56\n      jumpi\n        /* \"BallotV3.sol\":2218:2227  proposals */\n      0x02\n        /* \"BallotV3.sol\":2228:2232  prop */\n      dup2\n        /* \"BallotV3.sol\":2218:2233  proposals[prop] */\n      dup2\n      sload\n      dup2\n      lt\n      tag_57\n      jumpi\n      invalid\n    tag_57:\n      swap1\n      0x00\n      mstore\n      keccak256(0x00, 0x20)\n      add\n        /* \"BallotV3.sol\":2218:2243  proposals[prop].voteCount */\n      0x00\n      add\n      sload\n        /* \"BallotV3.sol\":2199:2243  winningVoteCount = proposals[prop].voteCount */\n      swap2\n      pop\n        /* \"BallotV3.sol\":2279:2283  prop */\n      dup1\n        /* \"BallotV3.sol\":2261:2283  winningProposal = prop */\n      swap4\n      pop\n        /* \"BallotV3.sol\":2131:2298  if (proposals[prop].voteCount > winningVoteCount) {... */\n    tag_56:\n        /* \"BallotV3.sol\":2110:2116  prop++ */\n      dup1\n      dup1\n      0x01\n      add\n      swap2\n      pop\n      pop\n        /* \"BallotV3.sol\":2065:2298  for (uint prop = 0; prop < proposals.length; prop++) ... */\n      jump(tag_51)\n    tag_52:\n      pop\n        /* \"BallotV3.sol\":508:509  _ */\n      pop\n        /* \"BallotV3.sol\":1853:2304  function reqWinner() public validPhase(Phase.Done) view returns (uint winningProposal) {... */\n      pop\n      swap1\n      jump\t// out\n        /* \"BallotV3.sol\":369:400  Phase public state = Phase.Done */\n    tag_20:\n      0x03\n      0x00\n      swap1\n      sload\n      swap1\n      0x0100\n      exp\n      swap1\n      div\n      0xff\n      and\n      dup2\n      jump\t// out\n        /* \"BallotV3.sol\":34:2306  contract BallotV3 {... */\n    tag_28:\n      mload(0x40)\n      dup1\n      0x60\n      add\n      0x40\n      mstore\n      dup1\n      0x00\n      dup2\n      mstore\n      0x20\n      add\n      iszero(iszero(0x00))\n      dup2\n      mstore\n      0x20\n      add\n      0x00\n      dup2\n      mstore\n      pop\n      swap1\n      jump\t// out\n\n    auxdata: 0xa26469706673582212202890ac6fd4ad12fefde479d38a5cbf63cbb59457fa57455e6e647d0622076ab564736f6c63430006000033\n}\n",
				"bytecode": {
					"linkReferences": {},
					"object": "608060405260038060006101000a81548160ff0219169083600381111561002257fe5b021790555034801561003357600080fd5b5060405161075a38038061075a8339818101604052602081101561005657600080fd5b8101908080519060200190929190505050336000806101000a81548173ffffffffffffffffffffffffffffffffffffffff021916908373ffffffffffffffffffffffffffffffffffffffff1602179055506002600160008060009054906101000a900473ffffffffffffffffffffffffffffffffffffffff1673ffffffffffffffffffffffffffffffffffffffff1673ffffffffffffffffffffffffffffffffffffffff1681526020019081526020016000206000018190555060008090505b8181101561016e57600260405180602001604052806000815250908060018154018082558091505060019003906000526020600020016000909190919091506000820151816000015550508080600101915050610116565b506001600360006101000a81548160ff0219169083600381111561018e57fe5b0217905550506105b7806101a36000396000f3fe608060405234801561001057600080fd5b50600436106100575760003560e01c80630121b93f1461005c578063268f11531461008a5780634420e486146100bb578063508b30c9146100ff578063c19d93fb1461011d575b600080fd5b6100886004803603602081101561007257600080fd5b8101908080359060200190929190505050610149565b005b6100b9600480360360208110156100a057600080fd5b81019080803560ff16906020019092919050505061026c565b005b6100fd600480360360208110156100d157600080fd5b81019080803573ffffffffffffffffffffffffffffffffffffffff16906020019092919050505061031d565b005b6101076104a8565b6040518082815260200191505060405180910390f35b61012561054b565b6040518082600381111561013557fe5b60ff16815260200191505060405180910390f35b600280600381111561015757fe5b600360009054906101000a900460ff16600381111561017257fe5b1461017c57600080fd5b61018461055e565b600160003373ffffffffffffffffffffffffffffffffffffffff1673ffffffffffffffffffffffffffffffffffffffff168152602001908152602001600020604051806060016040529081600082015481526020016001820160009054906101000a900460ff16151515158152602001600282015481525050905080602001518061021457506002805490508310155b1561021f5750610268565b60018160200190151590811515815250508281604001818152505080600001516002848154811061024c57fe5b9060005260206000200160000160008282540192505081905550505b5050565b6000809054906101000a900473ffffffffffffffffffffffffffffffffffffffff1673ffffffffffffffffffffffffffffffffffffffff163373ffffffffffffffffffffffffffffffffffffffff16146102c557600080fd5b600360009054906101000a900460ff1660038111156102e057fe5b8160038111156102ec57fe5b10156102f757600080fd5b80600360006101000a81548160ff0219169083600381111561031557fe5b021790555050565b600180600381111561032b57fe5b600360009054906101000a900460ff16600381111561034657fe5b1461035057600080fd5b6000809054906101000a900473ffffffffffffffffffffffffffffffffffffffff1673ffffffffffffffffffffffffffffffffffffffff163373ffffffffffffffffffffffffffffffffffffffff161415806103f85750600160008373ffffffffffffffffffffffffffffffffffffffff1673ffffffffffffffffffffffffffffffffffffffff16815260200190815260200160002060010160009054906101000a900460ff165b1561040257600080fd5b60018060008473ffffffffffffffffffffffffffffffffffffffff1673ffffffffffffffffffffffffffffffffffffffff168152602001908152602001600020600001819055506000600160008473ffffffffffffffffffffffffffffffffffffffff1673ffffffffffffffffffffffffffffffffffffffff16815260200190815260200160002060010160006101000a81548160ff0219169083151502179055505050565b600060038060038111156104b857fe5b600360009054906101000a900460ff1660038111156104d357fe5b146104dd57600080fd5b600080905060008090505b60028054905081101561054557816002828154811061050357fe5b90600052602060002001600001541115610538576002818154811061052457fe5b906000526020600020016000015491508093505b80806001019150506104e8565b50505090565b600360009054906101000a900460ff1681565b60405180606001604052806000815260200160001515815260200160008152509056fea26469706673582212202890ac6fd4ad12fefde479d38a5cbf63cbb59457fa57455e6e647d0622076ab564736f6c63430006000033",
					"opcodes": "PUSH1 0x80 PUSH1 0x40 MSTORE PUSH1 0x3 DUP1 PUSH1 0x0 PUSH2 0x100 EXP DUP2 SLOAD DUP2 PUSH1 0xFF MUL NOT AND SWAP1 DUP4 PUSH1 0x3 DUP2 GT ISZERO PUSH2 0x22 JUMPI INVALID JUMPDEST MUL OR SWAP1 SSTORE POP CALLVALUE DUP1 ISZERO PUSH2 0x33 JUMPI PUSH1 0x0 DUP1 REVERT JUMPDEST POP PUSH1 0x40 MLOAD PUSH2 0x75A CODESIZE SUB DUP1 PUSH2 0x75A DUP4 CODECOPY DUP2 DUP2 ADD PUSH1 0x40 MSTORE PUSH1 0x20 DUP2 LT ISZERO PUSH2 0x56 JUMPI PUSH1 0x0 DUP1 REVERT JUMPDEST DUP2 ADD SWAP1 DUP1 DUP1 MLOAD SWAP1 PUSH1 0x20 ADD SWAP1 SWAP3 SWAP2 SWAP1 POP POP POP CALLER PUSH1 0x0 DUP1 PUSH2 0x100 EXP DUP2 SLOAD DUP2 PUSH20 0xFFFFFFFFFFFFFFFFFFFFFFFFFFFFFFFFFFFFFFFF MUL NOT AND SWAP1 DUP4 PUSH20 0xFFFFFFFFFFFFFFFFFFFFFFFFFFFFFFFFFFFFFFFF AND MUL OR SWAP1 SSTORE POP PUSH1 0x2 PUSH1 0x1 PUSH1 0x0 DUP1 PUSH1 0x0 SWAP1 SLOAD SWAP1 PUSH2 0x100 EXP SWAP1 DIV PUSH20 0xFFFFFFFFFFFFFFFFFFFFFFFFFFFFFFFFFFFFFFFF AND PUSH20 0xFFFFFFFFFFFFFFFFFFFFFFFFFFFFFFFFFFFFFFFF AND PUSH20 0xFFFFFFFFFFFFFFFFFFFFFFFFFFFFFFFFFFFFFFFF AND DUP2 MSTORE PUSH1 0x20 ADD SWAP1 DUP2 MSTORE PUSH1 0x20 ADD PUSH1 0x0 KECCAK256 PUSH1 0x0 ADD DUP2 SWAP1 SSTORE POP PUSH1 0x0 DUP1 SWAP1 POP JUMPDEST DUP2 DUP2 LT ISZERO PUSH2 0x16E JUMPI PUSH1 0x2 PUSH1 0x40 MLOAD DUP1 PUSH1 0x20 ADD PUSH1 0x40 MSTORE DUP1 PUSH1 0x0 DUP2 MSTORE POP SWAP1 DUP1 PUSH1 0x1 DUP2 SLOAD ADD DUP1 DUP3 SSTORE DUP1 SWAP2 POP POP PUSH1 0x1 SWAP1 SUB SWAP1 PUSH1 0x0 MSTORE PUSH1 0x20 PUSH1 0x0 KECCAK256 ADD PUSH1 0x0 SWAP1 SWAP2 SWAP1 SWAP2 SWAP1 SWAP2 POP PUSH1 0x0 DUP3 ADD MLOAD DUP2 PUSH1 0x0 ADD SSTORE POP POP DUP1 DUP1 PUSH1 0x1 ADD SWAP2 POP POP PUSH2 0x116 JUMP JUMPDEST POP PUSH1 0x1 PUSH1 0x3 PUSH1 0x0 PUSH2 0x100 EXP DUP2 SLOAD DUP2 PUSH1 0xFF MUL NOT AND SWAP1 DUP4 PUSH1 0x3 DUP2 GT ISZERO PUSH2 0x18E JUMPI INVALID JUMPDEST MUL OR SWAP1 SSTORE POP POP PUSH2 0x5B7 DUP1 PUSH2 0x1A3 PUSH1 0x0 CODECOPY PUSH1 0x0 RETURN INVALID PUSH1 0x80 PUSH1 0x40 MSTORE CALLVALUE DUP1 ISZERO PUSH2 0x10 JUMPI PUSH1 0x0 DUP1 REVERT JUMPDEST POP PUSH1 0x4 CALLDATASIZE LT PUSH2 0x57 JUMPI PUSH1 0x0 CALLDATALOAD PUSH1 0xE0 SHR DUP1 PUSH4 0x121B93F EQ PUSH2 0x5C JUMPI DUP1 PUSH4 0x268F1153 EQ PUSH2 0x8A JUMPI DUP1 PUSH4 0x4420E486 EQ PUSH2 0xBB JUMPI DUP1 PUSH4 0x508B30C9 EQ PUSH2 0xFF JUMPI DUP1 PUSH4 0xC19D93FB EQ PUSH2 0x11D JUMPI JUMPDEST PUSH1 0x0 DUP1 REVERT JUMPDEST PUSH2 0x88 PUSH1 0x4 DUP1 CALLDATASIZE SUB PUSH1 0x20 DUP2 LT ISZERO PUSH2 0x72 JUMPI PUSH1 0x0 DUP1 REVERT JUMPDEST DUP2 ADD SWAP1 DUP1 DUP1 CALLDATALOAD SWAP1 PUSH1 0x20 ADD SWAP1 SWAP3 SWAP2 SWAP1 POP POP POP PUSH2 0x149 JUMP JUMPDEST STOP JUMPDEST PUSH2 0xB9 PUSH1 0x4 DUP1 CALLDATASIZE SUB PUSH1 0x20 DUP2 LT ISZERO PUSH2 0xA0 JUMPI PUSH1 0x0 DUP1 REVERT JUMPDEST DUP2 ADD SWAP1 DUP1 DUP1 CALLDATALOAD PUSH1 0xFF AND SWAP1 PUSH1 0x20 ADD SWAP1 SWAP3 SWAP2 SWAP1 POP POP POP PUSH2 0x26C JUMP JUMPDEST STOP JUMPDEST PUSH2 0xFD PUSH1 0x4 DUP1 CALLDATASIZE SUB PUSH1 0x20 DUP2 LT ISZERO PUSH2 0xD1 JUMPI PUSH1 0x0 DUP1 REVERT JUMPDEST DUP2 ADD SWAP1 DUP1 DUP1 CALLDATALOAD PUSH20 0xFFFFFFFFFFFFFFFFFFFFFFFFFFFFFFFFFFFFFFFF AND SWAP1 PUSH1 0x20 ADD SWAP1 SWAP3 SWAP2 SWAP1 POP POP POP PUSH2 0x31D JUMP JUMPDEST STOP JUMPDEST PUSH2 0x107 PUSH2 0x4A8 JUMP JUMPDEST PUSH1 0x40 MLOAD DUP1 DUP3 DUP2 MSTORE PUSH1 0x20 ADD SWAP2 POP POP PUSH1 0x40 MLOAD DUP1 SWAP2 SUB SWAP1 RETURN JUMPDEST PUSH2 0x125 PUSH2 0x54B JUMP JUMPDEST PUSH1 0x40 MLOAD DUP1 DUP3 PUSH1 0x3 DUP2 GT ISZERO PUSH2 0x135 JUMPI INVALID JUMPDEST PUSH1 0xFF AND DUP2 MSTORE PUSH1 0x20 ADD SWAP2 POP POP PUSH1 0x40 MLOAD DUP1 SWAP2 SUB SWAP1 RETURN JUMPDEST PUSH1 0x2 DUP1 PUSH1 0x3 DUP2 GT ISZERO PUSH2 0x157 JUMPI INVALID JUMPDEST PUSH1 0x3 PUSH1 0x0 SWAP1 SLOAD SWAP1 PUSH2 0x100 EXP SWAP1 DIV PUSH1 0xFF AND PUSH1 0x3 DUP2 GT ISZERO PUSH2 0x172 JUMPI INVALID JUMPDEST EQ PUSH2 0x17C JUMPI PUSH1 0x0 DUP1 REVERT JUMPDEST PUSH2 0x184 PUSH2 0x55E JUMP JUMPDEST PUSH1 0x1 PUSH1 0x0 CALLER PUSH20 0xFFFFFFFFFFFFFFFFFFFFFFFFFFFFFFFFFFFFFFFF AND PUSH20 0xFFFFFFFFFFFFFFFFFFFFFFFFFFFFFFFFFFFFFFFF AND DUP2 MSTORE PUSH1 0x20 ADD SWAP1 DUP2 MSTORE PUSH1 0x20 ADD PUSH1 0x0 KECCAK256 PUSH1 0x40 MLOAD DUP1 PUSH1 0x60 ADD PUSH1 0x40 MSTORE SWAP1 DUP2 PUSH1 0x0 DUP3 ADD SLOAD DUP2 MSTORE PUSH1 0x20 ADD PUSH1 0x1 DUP3 ADD PUSH1 0x0 SWAP1 SLOAD SWAP1 PUSH2 0x100 EXP SWAP1 DIV PUSH1 0xFF AND ISZERO ISZERO ISZERO ISZERO DUP2 MSTORE PUSH1 0x20 ADD PUSH1 0x2 DUP3 ADD SLOAD DUP2 MSTORE POP POP SWAP1 POP DUP1 PUSH1 0x20 ADD MLOAD DUP1 PUSH2 0x214 JUMPI POP PUSH1 0x2 DUP1 SLOAD SWAP1 POP DUP4 LT ISZERO JUMPDEST ISZERO PUSH2 0x21F JUMPI POP PUSH2 0x268 JUMP JUMPDEST PUSH1 0x1 DUP2 PUSH1 0x20 ADD SWAP1 ISZERO ISZERO SWAP1 DUP2 ISZERO ISZERO DUP2 MSTORE POP POP DUP3 DUP2 PUSH1 0x40 ADD DUP2 DUP2 MSTORE POP POP DUP1 PUSH1 0x0 ADD MLOAD PUSH1 0x2 DUP5 DUP2 SLOAD DUP2 LT PUSH2 0x24C JUMPI INVALID JUMPDEST SWAP1 PUSH1 0x0 MSTORE PUSH1 0x20 PUSH1 0x0 KECCAK256 ADD PUSH1 0x0 ADD PUSH1 0x0 DUP3 DUP3 SLOAD ADD SWAP3 POP POP DUP2 SWAP1 SSTORE POP POP JUMPDEST POP POP JUMP JUMPDEST PUSH1 0x0 DUP1 SWAP1 SLOAD SWAP1 PUSH2 0x100 EXP SWAP1 DIV PUSH20 0xFFFFFFFFFFFFFFFFFFFFFFFFFFFFFFFFFFFFFFFF AND PUSH20 0xFFFFFFFFFFFFFFFFFFFFFFFFFFFFFFFFFFFFFFFF AND CALLER PUSH20 0xFFFFFFFFFFFFFFFFFFFFFFFFFFFFFFFFFFFFFFFF AND EQ PUSH2 0x2C5 JUMPI PUSH1 0x0 DUP1 REVERT JUMPDEST PUSH1 0x3 PUSH1 0x0 SWAP1 SLOAD SWAP1 PUSH2 0x100 EXP SWAP1 DIV PUSH1 0xFF AND PUSH1 0x3 DUP2 GT ISZERO PUSH2 0x2E0 JUMPI INVALID JUMPDEST DUP2 PUSH1 0x3 DUP2 GT ISZERO PUSH2 0x2EC JUMPI INVALID JUMPDEST LT ISZERO PUSH2 0x2F7 JUMPI PUSH1 0x0 DUP1 REVERT JUMPDEST DUP1 PUSH1 0x3 PUSH1 0x0 PUSH2 0x100 EXP DUP2 SLOAD DUP2 PUSH1 0xFF MUL NOT AND SWAP1 DUP4 PUSH1 0x3 DUP2 GT ISZERO PUSH2 0x315 JUMPI INVALID JUMPDEST MUL OR SWAP1 SSTORE POP POP JUMP JUMPDEST PUSH1 0x1 DUP1 PUSH1 0x3 DUP2 GT ISZERO PUSH2 0x32B JUMPI INVALID JUMPDEST PUSH1 0x3 PUSH1 0x0 SWAP1 SLOAD SWAP1 PUSH2 0x100 EXP SWAP1 DIV PUSH1 0xFF AND PUSH1 0x3 DUP2 GT ISZERO PUSH2 0x346 JUMPI INVALID JUMPDEST EQ PUSH2 0x350 JUMPI PUSH1 0x0 DUP1 REVERT JUMPDEST PUSH1 0x0 DUP1 SWAP1 SLOAD SWAP1 PUSH2 0x100 EXP SWAP1 DIV PUSH20 0xFFFFFFFFFFFFFFFFFFFFFFFFFFFFFFFFFFFFFFFF AND PUSH20 0xFFFFFFFFFFFFFFFFFFFFFFFFFFFFFFFFFFFFFFFF AND CALLER PUSH20 0xFFFFFFFFFFFFFFFFFFFFFFFFFFFFFFFFFFFFFFFF AND EQ ISZERO DUP1 PUSH2 0x3F8 JUMPI POP PUSH1 0x1 PUSH1 0x0 DUP4 PUSH20 0xFFFFFFFFFFFFFFFFFFFFFFFFFFFFFFFFFFFFFFFF AND PUSH20 0xFFFFFFFFFFFFFFFFFFFFFFFFFFFFFFFFFFFFFFFF AND DUP2 MSTORE PUSH1 0x20 ADD SWAP1 DUP2 MSTORE PUSH1 0x20 ADD PUSH1 0x0 KECCAK256 PUSH1 0x1 ADD PUSH1 0x0 SWAP1 SLOAD SWAP1 PUSH2 0x100 EXP SWAP1 DIV PUSH1 0xFF AND JUMPDEST ISZERO PUSH2 0x402 JUMPI PUSH1 0x0 DUP1 REVERT JUMPDEST PUSH1 0x1 DUP1 PUSH1 0x0 DUP5 PUSH20 0xFFFFFFFFFFFFFFFFFFFFFFFFFFFFFFFFFFFFFFFF AND PUSH20 0xFFFFFFFFFFFFFFFFFFFFFFFFFFFFFFFFFFFFFFFF AND DUP2 MSTORE PUSH1 0x20 ADD SWAP1 DUP2 MSTORE PUSH1 0x20 ADD PUSH1 0x0 KECCAK256 PUSH1 0x0 ADD DUP2 SWAP1 SSTORE POP PUSH1 0x0 PUSH1 0x1 PUSH1 0x0 DUP5 PUSH20 0xFFFFFFFFFFFFFFFFFFFFFFFFFFFFFFFFFFFFFFFF AND PUSH20 0xFFFFFFFFFFFFFFFFFFFFFFFFFFFFFFFFFFFFFFFF AND DUP2 MSTORE PUSH1 0x20 ADD SWAP1 DUP2 MSTORE PUSH1 0x20 ADD PUSH1 0x0 KECCAK256 PUSH1 0x1 ADD PUSH1 0x0 PUSH2 0x100 EXP DUP2 SLOAD DUP2 PUSH1 0xFF MUL NOT AND SWAP1 DUP4 ISZERO ISZERO MUL OR SWAP1 SSTORE POP POP POP JUMP JUMPDEST PUSH1 0x0 PUSH1 0x3 DUP1 PUSH1 0x3 DUP2 GT ISZERO PUSH2 0x4B8 JUMPI INVALID JUMPDEST PUSH1 0x3 PUSH1 0x0 SWAP1 SLOAD SWAP1 PUSH2 0x100 EXP SWAP1 DIV PUSH1 0xFF AND PUSH1 0x3 DUP2 GT ISZERO PUSH2 0x4D3 JUMPI INVALID JUMPDEST EQ PUSH2 0x4DD JUMPI PUSH1 0x0 DUP1 REVERT JUMPDEST PUSH1 0x0 DUP1 SWAP1 POP PUSH1 0x0 DUP1 SWAP1 POP JUMPDEST PUSH1 0x2 DUP1 SLOAD SWAP1 POP DUP2 LT ISZERO PUSH2 0x545 JUMPI DUP2 PUSH1 0x2 DUP3 DUP2 SLOAD DUP2 LT PUSH2 0x503 JUMPI INVALID JUMPDEST SWAP1 PUSH1 0x0 MSTORE PUSH1 0x20 PUSH1 0x0 KECCAK256 ADD PUSH1 0x0 ADD SLOAD GT ISZERO PUSH2 0x538 JUMPI PUSH1 0x2 DUP2 DUP2 SLOAD DUP2 LT PUSH2 0x524 JUMPI INVALID JUMPDEST SWAP1 PUSH1 0x0 MSTORE PUSH1 0x20 PUSH1 0x0 KECCAK256 ADD PUSH1 0x0 ADD SLOAD SWAP2 POP DUP1 SWAP4 POP JUMPDEST DUP1 DUP1 PUSH1 0x1 ADD SWAP2 POP POP PUSH2 0x4E8 JUMP JUMPDEST POP POP POP SWAP1 JUMP JUMPDEST PUSH1 0x3 PUSH1 0x0 SWAP1 SLOAD SWAP1 PUSH2 0x100 EXP SWAP1 DIV PUSH1 0xFF AND DUP2 JUMP JUMPDEST PUSH1 0x40 MLOAD DUP1 PUSH1 0x60 ADD PUSH1 0x40 MSTORE DUP1 PUSH1 0x0 DUP2 MSTORE PUSH1 0x20 ADD PUSH1 0x0 ISZERO ISZERO DUP2 MSTORE PUSH1 0x20 ADD PUSH1 0x0 DUP2 MSTORE POP SWAP1 JUMP INVALID LOG2 PUSH5 0x6970667358 0x22 SLT KECCAK256 0x28 SWAP1 0xAC PUSH16 0xD4AD12FEFDE479D38A5CBF63CBB59457 STATICCALL JUMPI GASLIMIT 0x5E PUSH15 0x647D0622076AB564736F6C63430006 STOP STOP CALLER "
				},
				"gasEstimates": {
					"creation": {
						"codeDepositCost": "292600",
						"executionCost": "infinite",
						"totalCost": "infinite"
					},
					"external": {
						"changeState(uint8)": "22905",
						"register(address)": "44075",
						"reqWinner()": "infinite",
						"state()": "1139",
						"vote(uint256)": "26541"
					}
				},
				"methodIdentifiers": {
					"changeState(uint8)": "268f1153",
					"register(address)": "4420e486",
					"reqWinner()": "508b30c9",
					"state()": "c19d93fb",
					"vote(uint256)": "0121b93f"
				}
			},
			"storageLayout": {
				"storage": [
					{
						"astId": 13,
						"contract": "BallotV3.sol:BallotV3",
						"label": "chairperson",
						"offset": 0,
						"slot": "0",
						"type": "t_address"
					},
					{
						"astId": 17,
						"contract": "BallotV3.sol:BallotV3",
						"label": "voters",
						"offset": 0,
						"slot": "1",
						"type": "t_mapping(t_address,t_struct(Voter)8_storage)"
					},
					{
						"astId": 20,
						"contract": "BallotV3.sol:BallotV3",
						"label": "proposals",
						"offset": 0,
						"slot": "2",
						"type": "t_array(t_struct(Proposal)11_storage)dyn_storage"
					},
					{
						"astId": 29,
						"contract": "BallotV3.sol:BallotV3",
						"label": "state",
						"offset": 0,
						"slot": "3",
						"type": "t_enum(Phase)25"
					}
				],
				"types": {
					"t_address": {
						"encoding": "inplace",
						"label": "address",
						"numberOfBytes": "20"
					},
					"t_array(t_struct(Proposal)11_storage)dyn_storage": {
						"base": "t_struct(Proposal)11_storage",
						"encoding": "dynamic_array",
						"label": "struct BallotV3.Proposal[]",
						"numberOfBytes": "32"
					},
					"t_bool": {
						"encoding": "inplace",
						"label": "bool",
						"numberOfBytes": "1"
					},
					"t_enum(Phase)25": {
						"encoding": "inplace",
						"label": "enum BallotV3.Phase",
						"numberOfBytes": "1"
					},
					"t_mapping(t_address,t_struct(Voter)8_storage)": {
						"encoding": "mapping",
						"key": "t_address",
						"label": "mapping(address => struct BallotV3.Voter)",
						"numberOfBytes": "32",
						"value": "t_struct(Voter)8_storage"
					},
					"t_struct(Proposal)11_storage": {
						"encoding": "inplace",
						"label": "struct BallotV3.Proposal",
						"members": [
							{
								"astId": 10,
								"contract": "BallotV3.sol:BallotV3",
								"label": "voteCount",
								"offset": 0,
								"slot": "0",
								"type": "t_uint256"
							}
						],
						"numberOfBytes": "32"
					},
					"t_struct(Voter)8_storage": {
						"encoding": "inplace",
						"label": "struct BallotV3.Voter",
						"members": [
							{
								"astId": 3,
								"contract": "BallotV3.sol:BallotV3",
								"label": "weight",
								"offset": 0,
								"slot": "0",
								"type": "t_uint256"
							},
							{
								"astId": 5,
								"contract": "BallotV3.sol:BallotV3",
								"label": "voted",
								"offset": 0,
								"slot": "1",
								"type": "t_bool"
							},
							{
								"astId": 7,
								"contract": "BallotV3.sol:BallotV3",
								"label": "vote",
								"offset": 0,
								"slot": "2",
								"type": "t_uint256"
							}
						],
						"numberOfBytes": "96"
					},
					"t_uint256": {
						"encoding": "inplace",
						"label": "uint256",
						"numberOfBytes": "32"
					}
				}
			},
			"userdoc": {
				"methods": {}
			}
		}
	}
}