{
  "contractName": "Ballot",
  "abi": [
    {
      "inputs": [
        {
          "internalType": "uint256",
          "name": "numProposals",
          "type": "uint256"
        }
      ],
      "stateMutability": "nonpayable",
      "type": "constructor"
    },
    {
      "inputs": [
        {
          "internalType": "address",
          "name": "voter",
          "type": "address"
        }
      ],
      "name": "register",
      "outputs": [],
      "stateMutability": "nonpayable",
      "type": "function"
    },
    {
      "inputs": [
        {
          "internalType": "uint256",
          "name": "toProposal",
          "type": "uint256"
        }
      ],
      "name": "vote",
      "outputs": [],
      "stateMutability": "nonpayable",
      "type": "function"
    },
    {
      "inputs": [],
      "name": "reqWinner",
      "outputs": [
        {
          "internalType": "uint256",
          "name": "winningProposal",
          "type": "uint256"
        }
      ],
      "stateMutability": "view",
      "type": "function",
      "constant": true
    }
  ],
  "bytecode": "0x608060405234801561001057600080fd5b506040516108c53803806108c583398181016040528101906100329190610181565b336000806101000a81548173ffffffffffffffffffffffffffffffffffffffff021916908373ffffffffffffffffffffffffffffffffffffffff1602179055506002600160008060009054906101000a900473ffffffffffffffffffffffffffffffffffffffff1673ffffffffffffffffffffffffffffffffffffffff1673ffffffffffffffffffffffffffffffffffffffff1681526020019081526020016000206000018190555060005b818160ff16101561013f57600260405180602001604052806000815250908060018154018082558091505060019003906000526020600020016000909190919091506000820151816000015550508080610137906101ea565b9150506100de565b5050610213565b600080fd5b6000819050919050565b61015e8161014b565b811461016957600080fd5b50565b60008151905061017b81610155565b92915050565b60006020828403121561019757610196610146565b5b60006101a58482850161016c565b91505092915050565b7f4e487b7100000000000000000000000000000000000000000000000000000000600052601160045260246000fd5b600060ff82169050919050565b60006101f5826101dd565b915060ff8203610208576102076101ae565b5b600182019050919050565b6106a3806102226000396000f3fe608060405234801561001057600080fd5b50600436106100415760003560e01c80630121b93f146100465780634420e48614610062578063508b30c91461007e575b600080fd5b610060600480360381019061005b91906103e3565b61009c565b005b61007c6004803603810190610077919061046e565b610219565b005b610086610316565b60405161009391906104aa565b60405180910390f35b6000600160003373ffffffffffffffffffffffffffffffffffffffff1673ffffffffffffffffffffffffffffffffffffffff1681526020019081526020016000206000015411610121576040517f08c379a000000000000000000000000000000000000000000000000000000000815260040161011890610522565b60405180910390fd5b6000600160003373ffffffffffffffffffffffffffffffffffffffff1673ffffffffffffffffffffffffffffffffffffffff168152602001908152602001600020604051806060016040529081600082015481526020016001820160009054906101000a900460ff1615151515815260200160028201548152505090508060200151156101ad57600080fd5b60028054905082106101be57600080fd5b6001816020019015159081151581525050818160400181815250508060000151600283815481106101f2576101f1610542565b5b90600052602060002001600001600082825461020e91906105a0565b925050819055505050565b60008054906101000a900473ffffffffffffffffffffffffffffffffffffffff1673ffffffffffffffffffffffffffffffffffffffff163373ffffffffffffffffffffffffffffffffffffffff161461027157600080fd5b60018060008373ffffffffffffffffffffffffffffffffffffffff1673ffffffffffffffffffffffffffffffffffffffff168152602001908152602001600020600001819055506000600160008373ffffffffffffffffffffffffffffffffffffffff1673ffffffffffffffffffffffffffffffffffffffff16815260200190815260200160002060010160006101000a81548160ff02191690831515021790555050565b6000806000905060005b60028054905081101561039157816002828154811061034257610341610542565b5b9060005260206000200160000154111561037e576002818154811061036a57610369610542565b5b906000526020600020016000015491508092505b8080610389906105f6565b915050610320565b5060038110156103a4576103a361063e565b5b5090565b600080fd5b6000819050919050565b6103c0816103ad565b81146103cb57600080fd5b50565b6000813590506103dd816103b7565b92915050565b6000602082840312156103f9576103f86103a8565b5b6000610407848285016103ce565b91505092915050565b600073ffffffffffffffffffffffffffffffffffffffff82169050919050565b600061043b82610410565b9050919050565b61044b81610430565b811461045657600080fd5b50565b60008135905061046881610442565b92915050565b600060208284031215610484576104836103a8565b5b600061049284828501610459565b91505092915050565b6104a4816103ad565b82525050565b60006020820190506104bf600083018461049b565b92915050565b600082825260208201905092915050565b7f4e6f742061205265676973746572656420566f74657200000000000000000000600082015250565b600061050c6016836104c5565b9150610517826104d6565b602082019050919050565b6000602082019050818103600083015261053b816104ff565b9050919050565b7f4e487b7100000000000000000000000000000000000000000000000000000000600052603260045260246000fd5b7f4e487b7100000000000000000000000000000000000000000000000000000000600052601160045260246000fd5b60006105ab826103ad565b91506105b6836103ad565b9250827fffffffffffffffffffffffffffffffffffffffffffffffffffffffffffffffff038211156105eb576105ea610571565b5b828201905092915050565b6000610601826103ad565b91507fffffffffffffffffffffffffffffffffffffffffffffffffffffffffffffffff820361063357610632610571565b5b600182019050919050565b7f4e487b7100000000000000000000000000000000000000000000000000000000600052600160045260246000fdfea26469706673582212209643f54d8aa6946171ae34e8fb49577c6cb2be7f7745b58a67d1ee87236d198164736f6c634300080d0033",
  "immutableReferences": {},
  "source": "pragma solidity ^0.8.13;\ncontract Ballot {\n\n    struct Voter {                     \n        uint weight;\n        bool voted;\n        uint vote;\n    }\n    struct Proposal {                  \n        uint voteCount;\n    }\n\n    address chairperson;\n    mapping(address => Voter) voters;  \n    Proposal[] proposals;\n\n    \n       //modifiers\n   \n    modifier onlyChair() \n     {require(msg.sender == chairperson);\n      _;\n     }\n     \n     modifier validVoter()\n    {\n        require(voters[msg.sender].weight > 0, \"Not a Registered Voter\");\n        _;\n    }\n\n    constructor (uint numProposals) public  {\n        chairperson = msg.sender;\n        voters[chairperson].weight = 2; // weight 2 for testing purposes\n        //proposals.length = numProposals; -- before 0.6.0\n        for (uint8 prop = 0; prop < numProposals; prop ++)\n            proposals.push(Proposal(0));\n        \n    }\n    \n     \n    function register(address voter) public  onlyChair {\n        \n        voters[voter].weight = 1;\n        voters[voter].voted = false;\n    }\n\n   \n    function vote(uint toProposal) public  validVoter{\n      \n        Voter memory sender = voters[msg.sender];\n        \n        require (!sender.voted); \n        require (toProposal < proposals.length); \n        \n        sender.voted = true;\n        sender.vote = toProposal;   \n        proposals[toProposal].voteCount += sender.weight;\n    }\n\n    function reqWinner() public view returns (uint winningProposal) {\n       \n        uint winningVoteCount = 0;\n        for (uint prop = 0; prop < proposals.length; prop++) \n            if (proposals[prop].voteCount > winningVoteCount) {\n                winningVoteCount = proposals[prop].voteCount;\n                winningProposal = prop;\n            }\n       assert(winningVoteCount>=3);\n    }\n}",
  "sourcePath": "/Users/kimmingyu/Desktop/Solidity-Remix/Chapter4/Ballot-Dapp/ballot-contract/contracts/Ballot.sol",
  "compiler": {
    "name": "solc",
    "version": "0.8.13+commit.abaa5c0e.Emscripten.clang"
  },
  "schemaVersion": "3.4.7",
  "updatedAt": "2022-05-05T04:48:53.823Z",
  "networkType": "ethereum",
  "devdoc": {
    "kind": "dev",
    "methods": {},
    "version": 1
  },
  "userdoc": {
    "kind": "user",
    "methods": {},
    "version": 1
  }
}