{
	"data": {
		"bytecode": {
			"linkReferences": {},
			"object": "608060405260038060006101000a81548160ff0219169083600381111561002257fe5b021790555034801561003357600080fd5b50609f806100426000396000f3fe6080604052348015600f57600080fd5b506004361060285760003560e01c8063c19d93fb14602d575b600080fd5b60336056565b60405180826003811115604257fe5b60ff16815260200191505060405180910390f35b600360009054906101000a900460ff168156fea2646970667358221220a91b3ee8de51d7b945198eeb824b13b0b9b123c9be3ded9530ec56fd33cff76c64736f6c63430006000033",
			"opcodes": "PUSH1 0x80 PUSH1 0x40 MSTORE PUSH1 0x3 DUP1 PUSH1 0x0 PUSH2 0x100 EXP DUP2 SLOAD DUP2 PUSH1 0xFF MUL NOT AND SWAP1 DUP4 PUSH1 0x3 DUP2 GT ISZERO PUSH2 0x22 JUMPI INVALID JUMPDEST MUL OR SWAP1 SSTORE POP CALLVALUE DUP1 ISZERO PUSH2 0x33 JUMPI PUSH1 0x0 DUP1 REVERT JUMPDEST POP PUSH1 0x9F DUP1 PUSH2 0x42 PUSH1 0x0 CODECOPY PUSH1 0x0 RETURN INVALID PUSH1 0x80 PUSH1 0x40 MSTORE CALLVALUE DUP1 ISZERO PUSH1 0xF JUMPI PUSH1 0x0 DUP1 REVERT JUMPDEST POP PUSH1 0x4 CALLDATASIZE LT PUSH1 0x28 JUMPI PUSH1 0x0 CALLDATALOAD PUSH1 0xE0 SHR DUP1 PUSH4 0xC19D93FB EQ PUSH1 0x2D JUMPI JUMPDEST PUSH1 0x0 DUP1 REVERT JUMPDEST PUSH1 0x33 PUSH1 0x56 JUMP JUMPDEST PUSH1 0x40 MLOAD DUP1 DUP3 PUSH1 0x3 DUP2 GT ISZERO PUSH1 0x42 JUMPI INVALID JUMPDEST PUSH1 0xFF AND DUP2 MSTORE PUSH1 0x20 ADD SWAP2 POP POP PUSH1 0x40 MLOAD DUP1 SWAP2 SUB SWAP1 RETURN JUMPDEST PUSH1 0x3 PUSH1 0x0 SWAP1 SLOAD SWAP1 PUSH2 0x100 EXP SWAP1 DIV PUSH1 0xFF AND DUP2 JUMP INVALID LOG2 PUSH5 0x6970667358 0x22 SLT KECCAK256 0xA9 SHL RETURNDATACOPY 0xE8 0xDE MLOAD 0xD7 0xB9 GASLIMIT NOT DUP15 0xEB DUP3 0x4B SGT 0xB0 0xB9 0xB1 0x23 0xC9 0xBE RETURNDATASIZE 0xED SWAP6 ADDRESS 0xEC JUMP REVERT CALLER 0xCF 0xF7 PUSH13 0x64736F6C634300060000330000 "
		},
		"gasEstimates": {
			"creation": {
				"codeDepositCost": "31800",
				"executionCost": "20968",
				"totalCost": "52768"
			},
			"external": {
				"state()": "1051"
			}
		},
		"methodIdentifiers": {
			"state()": "c19d93fb"
		}
	},
	"abi": [
		{
			"inputs": [],
			"name": "state",
			"outputs": [
				{
					"internalType": "enum BallotV1.Phase",
					"name": "",
					"type": "uint8"
				}
			],
			"stateMutability": "view",
			"type": "function"
		}
	]
}